:100000000C94EF260C9420270C9420270C94202786
:100010000C9420270C9420270C9420270C94202744
:100020000C9420270C9420270C9420270C94202734
:100030000C9420270C94CB9D0C9420270C94202703
:100040000C9420270C94AD700C9420270C9420273E
:100050000C9420270C9420270D94371C0C94DB4A19
:100060000C9420270D940D1C0D94DD1B0C9420275F
:100070000C9420270C9420270C9420270C942027E4
:100080000C94F0780C9420270C9420270C942027B3
:100090000C9420270C9420270C9420270C942027C4
:1000A0000C9420270C9420270C9420270C942027B4
:1000B0000C9420270C9420270C9420270C942027A4
:1000C0000C9420270C9420270C9420270C94202794
:1000D0000C9420270C9420270C9420270C94202784
:1000E0000C942027C745C245B645AA459E45CC4538
:1000F00096458E45824576456A4559454D4541456B
:10010000CC45354529450E45EF4B4E4B4E4B4E4B9E
:100110004E4B4E4B4E4B4E4B4E4B4E4B4E4B4E4B17
:100120004E4B4E4B4E4B4E4B4E4B4E4B4E4B4E4B07
:100130004E4B4E4B4E4B4E4B4E4B4E4B034C4E4B41
:100140004E4B1A4C4E4B4E4B464C5B4C4E4B4E4B13
:100150004E4B4E4B4E4B4E4B4E4B4E4B4E4BB44C70
:100160004E4B4E4BD14CE84CFF4C4E4B3A4D544D00
:100170004E4B4E4B4E4B4E4B4E4B4E4B4E4B4E4BB7
:10018000824D4E4B4E4B9E4DD94DC94E4E4B4E4B14
:100190009E4E4E4B4E4BBB4E4E4B4E4B084E574E0B
:1001A0004E4B4E4B714E4E4B4E4B4E4B894EAF4BC2
:1001B0008A4C2C4C4A7960797C792779887927791F
:1001C0006A792779319C359C399C3F9C459C309CB1
:1001D0004B9C519C579C5D9C639C699C6F9C759C3F
:1001E000309C7B9C819C2B9C96AC96ACDAA8DAA8C0
:1001F000A1A831A331A331A331A331A399A8B5ACF0
:1002000031A331A331A331A331A331A331A331A34E
:10021000B0AC1FA731A331A331A331A331A331A3C4
:10022000EBA622A7DFA6C6A631A331A331A331A333
:1002300031A331A331A331A331A331A331A331A31E
:1002400031A331A331A331A331A331A331A331A30E
:1002500031A331A331A331A331A331A331A331A3FE
:1002600031A331A331A331A331A331A331A331A3EE
:1002700031A331A331A331A331A331A331A331A3DE
:1002800031A331A331A331A331A331A331A331A3CE
:1002900031A331A331A331A331A331A3B8A6A9A6B9
:1002A000E4A531A331A331A331A331A331A331A3F9
:1002B0007BA531A331A331A331A331A331A331A352
:1002C00031A331A331A331A331A331A331A331A38E
:1002D00031A331A331A331A331A331A331A331A37E
:1002E00031A331A331A331A331A331A331A322A57B
:1002F0005EA486A331A358A3F5C302C002C002C006
:1003000002C002C002C002C002C002C002C002C0DD
:1003100002C002C002C002C002C002C002C002C0CD
:1003200002C002C002C0C4C353C428C491C36BC37B
:1003300041C310C3DDC2B2C27FC24DC21AC291C155
:1003400061C12FC103C102C0D8C0AFC088C002C004
:1003500002C002C05EC038C0DABF02C002C002C024
:1003600002C002C002C0C4C353C428C491C36BC33B
:1003700041C310C3DDC2B2C27FC24DC21AC291C115
:1003800061C12FC103C102C0D8C0AFC088C002C0C4
:1003900002C002C05EC038C0DABFC7D8AFD8AFD87D
:1003A000AFD8AFD8AFD8AFD8AFD8AFD8AFD8AFD815
:1003B000AFD8AFD89CD8AFD8AFD8AFD86DD86DD89C
:1003C0006DD86DD86DD86DD86DD86DD86DD86DD805
:1003D0006DD86DD86DD86DD86DD86DD86DD86DD8F5
:1003E0006DD86DD86DD86DD86DD86DD86DD86DD8E5
:1003F0006DD86DD86DD86DD86DD86DD86DD89CD8A6
:100400009CD89CD86DD86DD86DD86DD86DD86DD866
:100410006DD89CD89CD86DD86DD86DD86DD86DD856
:100420006DD86DD86DD86DD86DD86DD86DD86DD8A4
:100430006DD86DD86DD86DD86DD86DD86DD86DD894
:100440006DD86DD86DD86DD86DD86DD86DD86DD884
:100450006DD86DD86DD86DD86DD86DD8AFD8AFD8F0
:10046000AFD89CD8CDD88FD98FD98FD98FD98FD9E4
:100470008FD98FD98FD98FD98FD98FD98FD937D994
:100480008FD98FD98FD976D876D876D876D876D8AE
:1004900076D876D876D876D876D876D876D876D8EC
:1004A00076D876D876D876D876D876D876D876D8DC
:1004B00076D876D876D876D876D876D876D876D8CC
:1004C00076D876D876D876D837D937D937D976D876
:1004D00076D876D876D876D876D876D82CD90ED95C
:1004E000F0D876D876D876D876D876D876D876D822
:1004F00076D876D876D876D876D876D876D876D88C
:1005000076D876D876D876D876D876D876D876D87B
:1005100076D876D876D876D876D876D876D876D86B
:1005200076D876D876D876D876D876D8D8D8084AF5
:10053000D73B3BCE016E84BCBFFDC12F3D6C7431F7
:100540009ABD56833DDA3D00C77F11BED9E4BB4C4E
:100550003E916BAAAABE000000803F05A84CCDB218
:10056000D44EB93836A9020C50B9918688083CA6F9
:10057000AAAA2ABE000000803F000D9464180D94C2
:10058000AC160D94711A0D94141A0D947A160D94DC
:10059000EB160D94EF160D94E5160D94ED160D94D3
:1005A000581A0D9451160D94D1160D9475160D947C
:1005B000C5160D94092D0D947C160D9484160D947A
:1005C000B0160D94861A0D94B8160D94E9160D9474
:1005D00063180D947B190D9462180D9450160D94A8
:1005E000491A0D947E160D9466190D94E3160D9418
:1005F00083160D94E7160D94AE160D940A2D0D94E6
:10060000B916456E642066696C65206C6973740068
:10061000426567696E2066696C65206C6973740059
:100620005344207072696E74696E672062797465D4
:1006300020004E6F74205344207072696E74696E8E
:10064000670057726974696E6720746F2066696C01
:10065000653A20006F70656E206661696C65642C78
:100660002046696C653A20004372656174696F6E5B
:10067000206661696C6564004469726563746F72B9
:10068000792063726561746564006578747275645D
:10069000657220636F6F6C6572207370656564208E
:1006A0005B302D3235355D0064697374616E63654E
:1006B00020746F2072657472616374207768656E50
:1006C0002068656174696E67205B6D6D5D0074659F
:1006D0006D702E20666F722072657472616374692A
:1006E0006F6E207768656E2068656174696E67203B
:1006F0005B435D0074656D702E2073746162696C7C
:10070000697A652074696D65205B735D005A2D6F91
:100710006666736574205B73746570735D00592D34
:100720006F6666736574205B73746570735D0058E3
:100730002D6F6666736574205B73746570735D00FE
:10074000504944206D61782076616C7565205B307E
:100750002D3235355D0050494420442D6761696E66
:100760000050494420492D6761696E00504944207A
:10077000502D6761696E2F646561642D74696D65C4
:1007800000504944206472697665206D696E00509E
:100790004944206472697665206D617800686561FE
:1007A00074206D616E61676572205B302D335D0072
:1007B000507265686561742074656D702E205BB041
:1007C000435D00616363656C65726174696F6E207F
:1007D0005B6D6D2F735E325D0073746172742066A1
:1007E00065656472617465205B6D6D2F735D006D6E
:1007F00061782E206665656472617465205B6D6D3D
:100800002F735D00737465707320706572206D6D59
:100810000052657472616374696F6E20756E646FE7
:100820002073706565640045787472612065787422
:10083000727573696F6E206F6E20756E646F2072B3
:10084000657472616374205B6D6D5D0052657472D6
:10085000616374696F6E207A2D6C696674205B6DBC
:100860006D5D0052657472616374696F6E207370A0
:10087000656564205B6D6D2F735D005265747261F8
:100880006374696F6E206C656E677468205B6D6D54
:100890005D00456E61626C6520726574726163749F
:1008A000696F6E20636F6E76657273696F6E205B21
:1008B000302F315D0042656420504944206D6178DD
:1008C0002076616C7565205B302D3235355D0042D8
:1008D00065642050494420442D6761696E0042657B
:1008E000642050494420492D6761696E0042656467
:1008F0002050494420502D6761696E004265642094
:10090000504944206472697665206D696E004265C5
:100910006420504944206472697665206D617800D6
:100920004265642048656174204D616E616765723F
:10093000205B302D335D0042656420507265686530
:1009400061742074656D702E205BB0435D005A2D7C
:1009500070726F62652062656E64696E6720636F96
:100960007272656374696F6E2043205B6D6D5D000C
:100970005A2D70726F62652062656E64696E6720C1
:10098000636F7272656374696F6E2042205B6D6D78
:100990005D005A2D70726F62652062656E64696ECB
:1009A0006720636F7272656374696F6E2041205BAC
:1009B0006D6D5D005A2D70726F6265205933205B3A
:1009C0006D6D5D005A2D70726F6265205833205B2B
:1009D0006D6D5D005A2D70726F6265205932205B1B
:1009E0006D6D5D005A2D70726F6265205832205B0C
:1009F0006D6D5D005A2D70726F6265205931205BFC
:100A00006D6D5D005A2D70726F6265205831205BEC
:100A10006D6D5D005A2D70726F6265206F66667332
:100A200065742079205B6D6D5D005A2D70726F6268
:100A300065206F66667365742078205B6D6D5D0060
:100A40005A2D70726F626520782D792D73706565EF
:100A500064205B6D6D2F735D005A2D70726F62653F
:100A6000207370656564205B6D6D2F735D004D6153
:100A7000782E207A2D70726F6265202D2062656459
:100A800020646973742E205B6D6D5D005A2D707249
:100A90006F626520686569676874205B6D6D5D00D5
:100AA000436F6174696E6720746869636B6E657308
:100AB00073205B6D6D5D00436F72722E20646961FF
:100AC000676F6E616C2043205B6D6D5D00436F72DC
:100AD000722E20646961676F6E616C2042205B6DCD
:100AE0006D5D00436F72722E20646961676F6E6185
:100AF0006C2041205B6D6D5D0044656C746120521B
:100B0000616469757320432830293A0044656C7428
:100B1000612052616469757320422830293A00448B
:100B2000656C7461205261646975732041283029B5
:100B30003A00416C7068612043283930293A0041FD
:100B40006C706861204228333330293A00416C7060
:100B50006861204128323130293A00546F7765723C
:100B6000205A20656E6473746F70206F66667365BB
:100B700074205B73746570735D00546F77657220C9
:100B80005920656E6473746F70206F666673657448
:100B9000205B73746570735D00546F7765722058C5
:100BA00020656E6473746F70206F66667365742061
:100BB0005B73746570735D004D6178207072696E4F
:100BC0007461626C6520726164697573205B6D6D20
:100BD0005D00486F72697A6F6E74616C20726F6429
:100BE0002072616469757320617420302C30205B41
:100BF0006D6D5D00446961676F6E616C20726F643A
:100C0000206C656E677468205B6D6D5D0054726169
:100C100076656C20616363656C65726174696F6E83
:100C2000205B6D6D2F735E325D00416363656C65A3
:100C3000726174696F6E205B6D6D2F735E325D0043
:100C40005365676D656E74732F7320666F722070C5
:100C500072696E74696E67005365676D656E747353
:100C60002F7320666F722074726176656C005A2053
:100C70006D6178206C656E677468205B6D6D5D00DA
:100C800059206D6178206C656E677468205B6D6DAE
:100C90005D0058206D6178206C656E677468205B1C
:100CA0006D6D5D005A206D696E20706F73205B6DF5
:100CB0006D5D0059206D696E20706F73205B6D6DE6
:100CC0005D0058206D696E20706F73205B6D6D5DE7
:100CD000004D61782E206A65726B205B6D6D2F73FD
:100CE0005D00486F6D696E6720666565647261744A
:100CF00065205B6D6D2F735D004D61782E206665FC
:100D0000656472617465205B6D6D2F735D00537453
:100D100065707320706572206D6D0053746F702064
:100D20007374657070657220616674657220696E97
:100D30006163746976697479205B6D732C303D6FE3
:100D400066665D004D61782E20696E616374697618
:100D5000652074696D65205B6D732C303D6F666630
:100D60005D005072696E74657220616374697665A6
:100D7000205B735D0046696C616D656E74207072F6
:100D8000696E746564205B6D5D00426175647261BB
:100D90007465004C616E6775616765005049442059
:100DA0004175746F74756E65206661696C65642148
:100DB0002074696D656F75740050494420417574E5
:100DC0006F74756E65206661696C65642120546579
:100DD0006D706572617475726520746F6F206869DB
:100DE000676800204B643A2000204B693A200020BD
:100DF0004B703A200020436C617373696320504943
:100E000044002054753A2000204B753A2000206D94
:100E100061783A2000206D696E3A200020643A2003
:100E20000020626961733A20005049442041757482
:100E30006F74756E65207374617274004E6F2063F9
:100E4000617365206C6967687473004D61785465DF
:100E50006D703A004469616D657465723A00416372
:100E600063656C65726174696F6E3A004D617853A9
:100E7000706565643A004A65726B3A004D6178426C
:100E8000656454656D703A005072696E7465725491
:100E90007970653A44656C7461005A547261766584
:100EA0006C416363656C3A005954726176656C41BC
:100EB0006363656C3A005854726176656C41636394
:100EC000656C3A005A5072696E74416363656C3A9E
:100ED00000595072696E74416363656C3A005850F2
:100EE00072696E74416363656C3A005A53697A653E
:100EF0003A005953697A653A005853697A653A005D
:100F00005A4D61783A00594D61783A00584D6178F0
:100F10003A005A4D696E3A00594D696E3A00584D83
:100F2000696E3A0052657472616374696F6E556ED2
:100F3000646F53706565643A0052657472616374DE
:100F4000696F6E556E646F45787472614C6F6E6731
:100F50004C656E6774683A005265747261637469B7
:100F60006F6E556E646F45787472614C656E677410
:100F7000683A0052657472616374696F6E5A4C69A5
:100F800066743A0052657472616374696F6E53706F
:100F90006565643A0052657472616374696F6E4C82
:100FA0006F6E674C656E6774683A00526574726163
:100FB0006374696F6E4C656E6774683A004B656563
:100FC00070416C697665496E74657276616C3A0041
:100FD0004A65726B58593A005072696E746C696E4A
:100FE0006543616368653A00454550524F4D3A008C
:100FF0004175746F6C6576656C3A005A50726F6219
:10100000653A00436173654C69676874733A0053CD
:101010007570706F72744C6F63616C46696C616D52
:10102000656E746368616E67653A00537570706FC2
:1010300072744731304731313A005A486F6D65500C
:101040006F733A0059486F6D65506F733A00584896
:101050006F6D65506F733A005A486F6D65446972E1
:101060003A0059486F6D654469723A0058486F6D8F
:10107000654469723A00536F667477617265506FA8
:101080007765725377697463683A004C43443A0059
:1010900046616E323A300046616E3A005344436115
:1010A00072643A004865617465644265643A004D53
:1010B0006978696E6745787472756465723A004E36
:1010C000756D45787472756465723A00496E707515
:1010D000744275666665723A004261756472617445
:1010E000653A00436F6E66696775726174696F6E09
:1010F00020726573657420746F2064656661756C19
:1011000074732E00696E666F3A436F6E74696E7504
:10111000652066726F6D20666174616C2073746106
:101120007465000054657374696E6720666174614C
:101130006C206572726F7200436F6E6669677572BC
:101140006174696F6E206C6F616465642066726F94
:101150006D20454550524F4D2E00436F6E666967B6
:1011600075726174696F6E2073746F726564207438
:101170006F20454550524F4D2E00436F6C642065E3
:101180007874727573696F6E20646973616C6C6FCB
:1011900077656400436F6C64206578747275736959
:1011A0006F6E20616C6C6F7765640054726967675D
:1011B0006572696E67207761746368646F672E205B
:1011C0004966206163746976617465642C20746873
:1011D00065207072696E7465722077696C6C20721C
:1011E000657365742E005761746368646F6720646B
:1011F000697361626C6564004175746F72657472C5
:101200006163743A004A65726B3A0020746F200083
:1012100053657420766F6C756D65747269632065B3
:101220007874727573696F6E20666F72206578745A
:101230007275646572200044697361626C65642034
:10124000766F6C756D6574726963206578747275FC
:1012500073696F6E20666F7220657874727564654D
:101260007220002050524548454154005052454894
:101270004541545F4245443A00205A533A002059B0
:10128000533A0058533A00505245484541543A3178
:1012900000504155534553544F503A3100544F4735
:1012A000474C455F4C49474854533A3000534F46EA
:1012B00054574152455F504F5745523A31005A5F9B
:1012C00050524F42453A31004155544F4C455645D6
:1012D0004C3A3000454550524F4D3A31004155543B
:1012E0004F5245504F52545F54454D503A31005083
:1012F000524F47524553533A31004649524D574198
:1013000052455F4E414D453A52657065746965724C
:101310005F312E302E30646576204649524D57415C
:1013200052455F55524C3A68747470733A2F2F6768
:1013300069746875622E636F6D2F7265706574696C
:1013400065722F52657065746965722D4669726D9C
:10135000776172652F2050524F544F434F4C5F5668
:10136000455253494F4E3A312E30204D4143484962
:101370004E455F545950453A44656C746120455858
:101380005452554445525F434F554E543A312052C2
:10139000455045544945525F50524F544F434F4C6E
:1013A0003A330050696E2063616E206E6F74206264
:1013B0006520736574206279204D34322C20697366
:1013C00020696E2073656E73697469766520706933
:1013D0006E732120002069732000496C6C65676181
:1013E0006C20532076616C756520666F72204D34D9
:1013F000320020746F2000536574206F757470750F
:10140000743A2000000136372603023C3D380E0FA7
:101410002E303E12130D0C0A081A1C180D0E350D35
:1014200017536F6674776172652052657365740037
:101430005761746368646F67205265736574004216
:10144000726F776E206F75742052657365740045F6
:10145000787465726E616C20526573657400506FAC
:10146000776572557000110A0411040A1111001CED
:101470001F11111F0000040A0A0A0E1F1F0E001F71
:101480001111111F0000001F1F1F1F1F0000040A61
:10149000040000000000040E150404041C0042694E
:1014A0006C6C20426169277320416E7943756269D3
:1014B0006300416E794375626963204B6F73736596
:1014C0006C20506C7573005265706574696572208C
:1014D000312E302E306465760046726565205241AB
:1014E0004D3A0082000001001F144E6565647320B0
:1014F0006C616E67756167652073656C656374699F
:101500006F6E007374617274007761697400436F69
:10151000756C64206E6F74206163746976617465A4
:10152000207A2D70726F6265206F66667365742015
:1015300064756520746F20636F6F7264696E617487
:101540006520636F6E73747261696E7473202D20F1
:10155000726573756C7420697320696E616363755D
:101560007261746521002C20004163746976617496
:10157000696E67207A2D70726F626520776F756C67
:1015800064206C65616420746F20666F72626964A8
:1015900064656E20787920706F736974696F6E3A34
:1015A00020004D3334302050302053373030004D40
:1015B000333430205030205331353030005A2D50E4
:1015C000726F62652068656967687420736574204E
:1015D000746F3A200000002020203F2E3F3F002063
:1015E000486F6D696E670020646563200020646544
:1015F000662000030004002000000000000000003E
:101600000000620000000000000000000061000017
:10161000000000000000000060000000000000006A
:101620000000005F001A160F160416F91503550482
:1016300004002516456E676C69736800000003ACF2
:101640000F00000000B4000000022D160000000092
:101650002100000004260440000000960000000461
:101660004C0400000000BB000000044D040000001A
:1016700000BC000000042E040000000090000000E8
:10168000042A04000000008F000000042B04000066
:1016900000008E000000042C04000000008D0000FB
:1016A00000042904000000008C0000000413040062
:1016B0000000005600000004160400000000520064
:1016C0000000040E040000000037000000040D04B8
:1016D0000000000036000000040A04000000003290
:1016E0000000000000000000000089000000000071
:1016F0000000000000880000000000000000000062
:101700008600000000000000000000850034160381
:10171000A426000000000000000004D00400000027
:10172000002201000004CF04000000002801000096
:1017300001000000000000210100000382040000FD
:1017400000000A010000038104000000003F0000C7
:1017500000038004000000003E000000037F04003E
:101760000000003D000000037E04000000003C007B
:10177000461ED01C47163C168218461E9F1694160D
:1017800089167E16731668165D16001AF519EA1981
:10179000DF19D419C919BE195216B319461EB51648
:1017A000AA16461ED616CB16C016EC16E116021760
:1017B000F716461E0D172E17461E23171817461E1E
:1017C00065175A174F1744173917020000050070A4
:1017D0001702000011007A1702000003009C170294
:1017E00000000400A2170358040200AA17032004F3
:1017F0000200AE170200000200B21702000004004F
:10180000B6170200000600BE17000002CA1700004B
:101810000000B5000000030704000000003B0000CA
:1018200000030604000000003A00000002D1170087
:101830000000000F00000002D817000000004E005A
:10184000000002DF17000000003900000002E61768
:10185000000000008700000002ED17000000008477
:10186000000000041004000000008B00000002F4DF
:101870001700000000E400000003B40400000000B2
:10188000D200000003D6040000000029010000027D
:10189000FB170000000021010000020218000000F8
:1018A000001100000004BD0400001000E30000006F
:1018B00003B90400001000E100000003B8040000B8
:1018C0001000E000000003B60400001000DF00007C
:1018D0000003B50400001000DE00000003BE040099
:1018E000001000DD00000003B70400001000DC0061
:1018F000000004B60F000000000901000004B50F4D
:10190000000000000801000004B40F000000000700
:1019100001000000000000000000F20000000000D4
:101920000000000000AB000000000000000000000C
:1019300070000000000000000000006F00000003C5
:10194000E803000000002D010000038813000000E0
:10195000002C01000004F203000000002A01000036
:1019600001000000000000CB00461E6C18611856F4
:10197000184B18401835182A18AB1F1F18141809CF
:1019800018461E98188D1882187718461EE518DA22
:1019900018CF18C418B918AE18A318461E0619FB9C
:1019A00018F018321927191C1911195E1953194802
:1019B000193D190000042F04000000009B000000E6
:1019C00004220440000000950000000426042000CA
:1019D00000009A0000000425042000000099000087
:1019E00000042404200000009800000004230420C8
:1019F0000000009700000004220420000000940072
:101A00000000042D040000000093000200000C0000
:101A100069190200000500811902000008008B19F5
:101A200002000004009B1903F0030400A3198200C4
:101A3000000400AB19461E001AF519EA19DF19D483
:101A400019C919BE19B3190000020B1A00001000C1
:101A50000D00000002121A000010000E010000022A
:101A6000D320000000001000000002191A0000102E
:101A700000D9000000029420000010000F000000B8
:101A8000028D20000010000E00000004570410001A
:101A90000000CA00000003B40410000000D20000DF
:101AA00000045204100000007E00000004480410EE
:101AB000000000B1000000022E1A10000000CB0050
:101AC0000000041F0410000000B0000000046104C6
:101AD0001000000024000000046204100000002533
:101AE00000000003C404140000004A000000034B7F
:101AF00004100004004900000003C50410000400A5
:101B0000C9000000029B20000010000B0000000034
:101B1000000000000000E0000000000000000000E5
:101B200000DA00000000000000000000DF000000FC
:101B300000000000000000DA0000000000000000CB
:101B40000000E100000000000000000000DA0000DA
:101B50000000000000000000DE00000000000000A7
:101B6000000000DA00000000000000000000DD00BE
:101B7000000000000000000000DA0000000000008B
:101B800000000000DC00000000000000000000DA9F
:101B900000000003E803000000002D01000003D74F
:101BA00004000000002C01000004D8040000000024
:101BB0002B010000010000000000002901000000CE
:101BC000000000000000CF00000000000000000046
:101BD00000CE00000000000000000000CD0000006A
:101BE00000000000000000CC00000002201A0000ED
:101BF00000000601000004B30400000000D1000052
:101C00000002B720000000002100000002BE2000FA
:101C10000000001F00000002C520000000001D00A1
:101C20000000034404000000002E00000002271AF8
:101C30000000000023000000033A04000000002818
:101C400000000004620400000000250000000461A0
:101C5000040000000024000000033604000000001F
:101C6000C6000000034304000010001C0000000335
:101C70003104000010001B000000033804000000C5
:101C8000001A0000000347040000000018000000D4
:101C90000337040000000017000000022E1A0000A5
:101CA0000000CB000000045204000000007E000091
:101CB0000004480400000000B1000000041F0400FC
:101CC000000000B000000004570400000000CA003B
:101CD000000003FD030000100013000000000000DE
:101CE000000000006E000000000000000000006D19
:101CF000000000000000000000006C000000000078
:101D000000000000006B0000000000000000000068
:101D10006A000000000000000000006900000000F0
:101D2000000000000000680000000000000000004B
:101D300000670000000000000000000066000000D6
:101D4000000000000000006500000000000000002E
:101D500000006400000000000000000000630000BC
:101D60000000000000000000620000000000000011
:101D700000000061000000000000000000006000A2
:101D80000000000000000000005F000000000000F4
:101D9000000000005E000000000000000000005D88
:101DA000000000000000000000005C0000000000D7
:101DB00000000000005B00000000000000000000C8
:101DC0005A00000000000000000000590000000060
:101DD00000000000000058000000000000000000AB
:101DE000005700000003C62410000000030000009C
:101DF00003E80300000000040000000100000000F0
:101E00000000F400000001000000000000C9000014
:101E10000003F403010002004D00000002CC200288
:101E2000000000C900000003F703060000004A009C
:101E3000000003F603020004004900000003F5035C
:101E4000010002004800000003E803000000000A4F
:101E500000000000000000000000A80000000000DA
:101E60000000000000A700000000000000000000CB
:101E7000A600000000000000000000A50000000017
:101E8000000000000000130100000000000000003E
:101E900000F400000000000000000000200100002D
:101EA00000000000000000F4000200000900351AE4
:101EB000461E021BF71AEC1AE11AD61ACB1AC01AE0
:101EC000B51AAA1A9F1A941A891A3B1E7E1A731AF7
:101ED000681A5D1A521A471A181B0D1B2E1B231B5A
:101EE000441B391B5A1B4F1B701B651B861B7B1B1E
:101EF000B21BA71B9C1B911BDE1BD31BC81BBD1B4E
:101F0000461ED01C151C0A1CFF1B2B1CF41BE91BB6
:101F1000461E4C1C411C361C2B1C201C461ED01C73
:101F2000C51CBA1CAF1CA41C991C8E1C831C781CDD
:101F30006D1C621C571CFC1CF11CE61CDB1C281DC4
:101F40001D1D121D071D541D491D3E1D331D801DE5
:101F5000751D6A1D5F1DAC1DA11D961D8B1DD81D15
:101F6000CD1DC21DB71D041EF91DEE1DE31D461E2D
:101F70003B1E301E251E1A1E0F1E461E5C1E511EC5
:101F8000721E671E9E1E931E881E7D1E52657175F1
:101F900065737450617573653A0052657175657348
:101FA00074436F6E74696E75653A00000002A91E75
:101FB00000000000A2002F2F20616374696F6E3A49
:101FC000726573756D650044656C6574696F6E202C
:101FD0006661696C65640046696C652064656C6562
:101FE000746564000200001400B01E031027020094
:101FF000D81E0310270200DC1E0310270200E01E7B
:102000000310270200E41E0310270200E81E03103D
:10201000270200EC1E8200000400F01E45455052CD
:102020004F4D2075706461746564005072696E7400
:102030006572206865696768743A00058813040052
:10204000F81E2F2F20616374696F6E3A706175738B
:102050006500696D706F7274616E743A2046696CC8
:10206000616D656E74206368616E6765207265716D
:10207000756972656421004A616D20636F6E7472C8
:102080006F6C2064697361626C65643A00020000E1
:102090000800001F0200000600101F0200000D00D3
:1020A0001C1F03FC030400361F03FB0304003E1F38
:1020B00003FA030400461F03EF0304004E1F03EE60
:1020C000030400561F03ED0304005E1F020000041A
:1020D00000661F02000006006E1F01000001007A6A
:1020E0001F03102702007C1F0310270200801F051A
:1020F000CC040400841F0000000000000000001C4D
:1021000001000000000000000000F40000000000DA
:1021100000000000001A01000000000000000000A4
:1021200017010000000000000000001C010000007A
:10213000000000000000F4000000000000000000AB
:10214000001901000000000000000000170100005D
:10215000000000000000001C010000000000000062
:102160000000F40000000000000000000018010062
:102170000000000000000000170117210C210121C0
:10218000F620432138212D2122216F21642159215C
:102190004E21000000000000000000F700000000D9
:1021A000000000000000DA009D2192216D6F76652D
:1021B000546F202F20717565756544656C74614D91
:1021C0006F76652072657475726E73206572726FBA
:1021D000720005CB0404007A2105CB04040082219F
:1021E00005CB0404008A217A2D70726F6265206429
:1021F0006964206E6F7420756E74726967676572AA
:1022000020616674657220676F696E672062616322
:102210006B20746F20737461727420706F736974B3
:10222000696F6E2E0020593A0020583A005A2D70DE
:10223000726F62653A007A2D70726F626520646910
:1022400064206E6F7420756E7472696767657220A2
:102250006F6E2072657065746974697665206D654E
:1022600061737572656D656E74202D206D61796284
:102270006520796F75206E65656420746F20696EC6
:102280006372656173652064697374616E6365214F
:1022900000007A2D70726F626520646964206E6F31
:1022A0007420756E74726967676572206F6E207234
:1022B000657065746974697665206D6561737572A2
:1022C000656D656E74202D206D6179626520796F72
:1022D00075206E65656420746F20696E6372656138
:1022E00073652064697374616E636521005A2D7093
:1022F000726F6265206661696C6564007A2D707228
:102300006F626520747269676765726564206265D3
:10231000666F7265207374617274696E6720707283
:102320006F62696E672E00000310270200A8212F3C
:10233000006572726F722077726974696E672074BB
:102340006F2066696C6500504944204175746F7454
:10235000756E652066696E6973686564202120501A
:102360006C61636520746865204B702C204B69207C
:10237000616E64204B6420636F6E7374616E74735E
:1023800020696E2074686520436F6E666967757298
:102390006174696F6E2E68206F7220454550524FF0
:1023A0004D00424C4B2000802500004038000000CA
:1023B0004B00008070000000960000C0DA000000B2
:1023C000E10000002C010008B2010000C201000081
:1023D000F401000084030090D0030000E803000033
:1023E00008070020A1070000100E0040420F006007
:1023F000E3160000000000000000000000000000E4
:1024000000F100000000000000000000C400000017
:1024100000000000000000F00000000000000000CC
:102420000000C300000000000000000000F30000F6
:102430000000000000000000F400000000000000A8
:10244000000000AF00000000000000000000AC0031
:10245000000000000000000000F300000000000089
:10246000000000005F000000000000000000005BB2
:102470000000000000000000000057000000000005
:102480000000000000F30000000000000000000059
:10249000EE00000000000000000000ED0000000061
:1024A000000000000000EB0019240E240324F82390
:1024B00045243A242F242424712466245B245024A8
:1024C0009D24922487247C240000000400A824007A
:1024D00000000400B0240000000400B82400000044
:1024E0000400C024446F6E6520736176696E6720B6
:1024F00066696C652E00534420696E6974206661BC
:10250000696C000046696C652073656C6563746571
:1025100064002053697A653A0046696C65206F70E3
:10252000656E65643A0066696C652E6F70656E2035
:102530006661696C656400DD24D624CF24C824005C
:1025400000000000000000001C010000000000006E
:10255000000000F4000000000000000000001B016B
:102560000000000000000000001701602555254A0A
:10257000253F254D756C3A20256F6D25252520209A
:1025800020204C61733A256F702057004D756C3ACE
:1025900020256F6D252525202020205370693A25A0
:1025A0006F7052504D20005A773A257837202020FE
:1025B0005A3A2578320059773A2578362020205922
:1025C0003A2578310058773A257835202020583A36
:1025D000257830005374617274205A2D50726F62E6
:1025E00065004D6561737572696E67202E2E2E0031
:1025F0005A2D4F66667365743A25587A00436C6F9E
:10260000736500436F6E74696E7565005265616C29
:10261000205A20506F733A2557306D6D0054656D08
:10262000702E202565632F2545630243004D6561AB
:10263000732E2050726F6265204865696768740068
:10264000426564202020203A202570620243004524
:102650007874722E20363A20257035024300457872
:1026600074722E20353A2025703402430045787468
:10267000722E20343A20257033024300457874725C
:102680002E20333A20257032024300457874722E92
:1026900020323A20257031024300457874722E2092
:1026A000313A2025703002430050726568656174CC
:1026B0002054656D70657261747572657300486F42
:1026C0006D696E672E2E2E004175746F6C65766590
:1026D0006C206265640043616C6962726174696F49
:1026E0006E204572726F720043616C696272617430
:1026F000696E672062656400202020203E3E3E20F7
:102700004F6B203C3C3C004C6576656C696E6720E5
:102710006572726F720046696C616D656E742073CC
:102720006C697070696E67004865617465722064D9
:1027300065636F75706C65640054656D702E2073F1
:10274000656E736F7220646566656374004E6F74A6
:10275000696669636174696F6E3A006F627374725F
:10276000756374696F6E73006265642069732063BA
:102770006C656172206F6620616E79004D616B65DA
:10278000207375726520746865206865617465647E
:10279000002A2A2A20506C6561736520776169746C
:1027A000202A2A2A0043616E63656C0046616E2010
:1027B000322073706565643A25465325252500440B
:1027C0006973746F7274696F6E20636F72722E3AE0
:1027D000254465004D656173757265206469737485
:1027E0006F7274696F6E0053657475700025506E5A
:1027F00000255070252525004C61796572202550F3
:102800006C2F25504C00456E6453746F703A2564EC
:102810007000536574205A206F66667365743A259C
:1028200054326D6D005365742059206F6666736570
:10283000743A2554316D6D005365742058206F66CD
:10284000667365743A2554306D6D0053657420705D
:1028500072696E74206F666673657473005A2D70AA
:10286000726F6265206865696768743A257A6800E6
:10287000254433203320636F70696573002544322B
:10288000203220636F706965730025443120312048
:10289000636F707900254430204E6F20636F70693C
:1028A0006573002558352053656C65637420657821
:1028B00074722E2036002558342053656C6563747D
:1028C00020657874722E2035002558332053656CAE
:1028D00065637420657874722E2034005475726EAE
:1028E00020657874722E2036206F666600547572EB
:1028F0006E20657874722E2035206F6666005475E0
:10290000726E20657874722E2034206F66660054D3
:10291000656D702E2036203A2565352F2545350208
:10292000430054656D702E2035203A2565342F25DF
:10293000453402430054656D702E2034203A2565DD
:10294000332F254533024300202542436D6D00059A
:102950002565630200052565632F25456302000098
:10296000256F7300255566206D207072696E746541
:102970006400255566206D0025557400583A257869
:102980003020593A257831004D756C3A20256F6D0D
:10299000202020453A257834005A3A2578322020E4
:1029A000427566203A20256F4200422565422F2558
:1029B00045620200052565632F25456302422565B2
:1029C000422F2545620200256F73004275663A204A
:1029D000256F42004D756C3A20256F6D2525252009
:1029E000FD202020453A202578346D00466C6F7715
:1029F0003AFD20256F662525252020205A3A257886
:102A000032000E202565622F254562B020593A25F7
:102A10007831000A202565302F254530B020583AFE
:102A2000257830004C616E6775616765004375738A
:102A3000746F6D3A2542436D6D00437573746F6D0D
:102A400000476C756520737469636B004772656538
:102A50006E20504554207461706500426C7565208D
:102A600070617065722074617065004B6170746F85
:102A70006E004275696C6454616B004E6F20636F29
:102A80006174696E67000042656420636F617469F8
:102A90006E672073657420746F0042656420636FF5
:102AA0006174696E67005374616E64627900457881
:102AB000747275646572206A616D0074656D70650D
:102AC00072617475726573202E2E2E0057616974C1
:102AD00020666F7220746172676574006578747225
:102AE00075646572732E00436C69636B20746F208C
:102AF0007265686561740049676E6F7265204D315B
:102B0000303620636D642025466900536572766F08
:102B100020706F732E3A20256F53004175746F6CCF
:102B20006576656C3A20256C6C00436C69636B209C
:102B30007768656E20646F6E650066696C616D65AF
:102B40006E742075702F646F776E00526F746174AD
:102B50006520746F206D6F7665004368616E6765F0
:102B60002066696C616D656E74004368616E6765AF
:102B70002066696C616D656E74005A2062616279CD
:102B8000737465702E3A256F596D6D0053746F70B4
:102B9000205072696E7400536C6F7742616E6700EB
:102BA000446561642074696D650041545820706FFC
:102BB000776572206F6E2F6F6666007072696E7433
:102BC00065640046696C616D656E74207072696E33
:102BD000746564005072696E74696E672074696D03
:102BE0006500003A00206461797320005072696EBC
:102BF0007465722072656164792E005344206361AC
:102C0000726420696E736572746564005344206356
:102C10006172642072656D6F7665640057616974D6
:102C200020726574722E3A255855206D6D005761DB
:102C300069742074656D702E202558540243004C31
:102C40006576656C2064656C74610043616C6375C6
:102C50006C617465206C6576656C696E67005365A0
:102C60007420503300536574205032005365742033
:102C70005031005A2063616C69622E0053657420E4
:102C80005A3D30005265736574206D6561732E0086
:102C900053686F77206D6561732E00466C6F7720E7
:102CA0006D756C2E203A256F6625252500537065BD
:102CB0006564206D756C2E3A256F6D2525250020E5
:102CC000423A2565622F25456202437E256F6200E8
:102CD00045333A2565322F25453202437E256F3232
:102CE0000045323A2565312F25453102437E256F57
:102CF000310045313A2565302F25453002437E2588
:102D00006F300020453A2565632F25456302437ED9
:102D1000256F43004275666665723A256F4200551D
:102D2000706C6F6164696E672E2E2E006C6F61642B
:102D3000656420662E20454550524F4D00436F6E0E
:102D400066696775726174696F6E0073746F72651E
:102D50006420696E20454550524F4D00436F6E66AA
:102D6000696775726174696F6E0053746570706520
:102D7000722064697361626C6564004B696C6C6598
:102D8000640048656174696E672062656400486527
:102D90006174696E6720657874727564657200414C
:102DA0006374696F6E3A256C61005049440042615A
:102DB0006E6742616E6700592D4F66667365743A9F
:102DC00025587900582D4F66667365743A255878F2
:102DD00000504944204D61783A25584400447269B6
:102DE0007665204D61783A25584D004472697665C4
:102DF000204D696E3A25586D0050494420443A25CB
:102E000058640050494420493A25586900436F6E80
:102E100074726F6C2050574D3A25584D00446561CF
:102E20006474696D653A2558700050494420503AE1
:102E300025587000436F6E74726F6C3A25586800A5
:102E4000416476616E636520717561643A255861ED
:102E500000416476616E6365206C696E3A25586C3A
:102E600000537461622E54696D653A2558770041AC
:102E70006363656C3A255841004D61782046523AAB
:102E80002558460053746172742046523A2558669C
:102E90000053746570732F4D4D3A255365004261A0
:102EA0007564726174653A256F630047656E65727B
:102EB000616C005B6D696E5D20303D4F666600445D
:102EC00069732E2061667465723A20256970004D21
:102ED00061782E20696E616374697665005B6D6947
:102EE0006E5D20303D4F6666004469732E2061663A
:102EF0007465723A20256973005374657070657249
:102F000020696E616374697665005365742066613B
:102F10006E2066756C6C005365742066616E203798
:102F200035252525005365742066616E20353025D2
:102F30002525005365742066616E203235252525D0
:102F4000005475726E2066616E204F6666004661A1
:102F50006E2073706565643A254673252525004605
:102F6000616E207370656564004D696E3A25737AF1
:102F7000204D61783A25735A005A3A257832206DEF
:102F80006D004D696E3A257379204D61783A25734D
:102F90005900593A257831206D6D004D696E3A25FA
:102FA0007378204D61783A25735800583A25783067
:102FB000206D6D004D696E3A25737A204D61783A27
:102FC00025735A005A3A257832206D6D004D696E8E
:102FD0003A257379204D61783A25735900593A257D
:102FE0007831206D6D004D696E3A257378204D6102
:102FF000783A25735800583A257830206D6D0031A5
:1030000020636C69636B203D2031206D6D00453A73
:10301000257833206D6D00004D617820656E6473F6
:10302000746F703A25735A004D696E20656E647333
:10303000746F703A25737A005A3A257832206D6D94
:1030400000004D617820656E6473746F703A25736B
:1030500059004D696E20656E6473746F703A257304
:103060007900593A257831206D6D00004D61782046
:10307000656E6473746F703A257358004D696E20E5
:10308000656E6473746F703A25737800583A2578CA
:1030900030206D6D00004D617820656E6473746F33
:1030A000703A25735A004D696E20656E6473746FB3
:1030B000703A25737A005A3A257832206D6D2025B2
:1030C000647A25645A00004D617820656E647374DB
:1030D0006F703A257359004D696E20656E64737484
:1030E0006F703A25737900593A257831206D6D203B
:1030F00025647925645900004D617820656E6473FC
:10310000746F703A257358004D696E20656E647354
:10311000746F703A25737800583A257830206D6DB9
:103120002025647825645800486F6D653A25665AF5
:1031300000486F6D65205A3A25665A00486F6D65E4
:1031400020593A25665900486F6D6520583A256622
:1031500058004D61783A25667A004D6178205A3AD8
:1031600025667A004D617820593A256679004D61CF
:103170007820583A25667800466565647261746502
:103180000044656C6574652066696C65004D6F75FB
:103190006E74206361726400556E6D6F756E74207D
:1031A0006361726400436F6E74696E75652070723E
:1031B000696E74005061757365207072696E740079
:1031C0005072696E742066696C6500416E74692086
:1031D0006F6F7A65004D6F76652061667465723A2F
:1031E000254F61004D696E2E6469737420203A2565
:1031F0004F64004261636B736C2E2020203A254F90
:103200006200526574726163742020203A254F7207
:1032100000254F32204F5053206661737400254FB4
:1032200031204F505320636C617373696300254FE5
:1032300030204F5053206F666600447279207275BB
:103240006E3A256464004572726F7273203A256489
:103250006500496E666F2020203A25646900456349
:10326000686F2020203A25646F004C6F61642066EF
:103270002E20454550524F4D0053746F7265207497
:103280006F20454550524F4D00416363656C657238
:103290006174696F6E005A2D4A65726B203A256120
:1032A0004A004A65726B2020203A25616A004D6F02
:1032B00076653A25615A004D6F7665205A203A2589
:1032C000615A004D6F76652059203A256159004DAD
:1032D0006F76652058203A256158005072696E74E7
:1032E0003A25617A005072696E74205A3A25617AE3
:1032F000005072696E7420593A25617900507269E4
:103300006E7420583A25617800536574204F7269B5
:1033100067696E002558322053656C6563742065BB
:103320007874722E2033002558312053656C656304
:103330007420657874722E20320025583020536531
:103340006C65637420657874722E20310054757238
:103350006E20657874722E2033206F666600547577
:10336000726E20657874722E2032206F666600546B
:1033700075726E20657874722E2031206F6666003B
:1033800054656D702E2033203A2565322F25453245
:1033900002430054656D702E2032203A2565312F8E
:1033A00025453102430054656D702E2031203A25A9
:1033B00065302F2545300243004265642074656DF9
:1033C000703A2565622F2545620243004D6F766590
:1033D000204578747275646572004D6F7665205A69
:1033E0002066617374004D6F7665205A004D6F76CC
:1033F0006520592066617374004D6F766520590011
:103400004D6F766520582066617374004D6F766548
:1034100020580044697361626C6520737465707034
:1034200065720053657420746F206F726967696EEE
:1034300000436F6F6C646F776E004C6967687473DC
:103440003A256C6F005072656865617420416C6C40
:1034500020457874722E005072656865617420533F
:10346000696E676C6520457874722E00486F6D65D3
:10347000205A00486F6D65205900486F6D652058CF
:1034800000486F6D6520616C6C00486F6D6520644D
:10349000656C746100446562756767696E670053A7
:1034A00044206361726400457874727564657200CB
:1034B0004D6F76650053657474696E677300256F90
:1034C0006500436F6E74726F6C004261636B200124
:1034D000002A2A2A2A204552524F52202A2A2A2AD2
:1034E000004E6F20534420636172640049646C6530
:1034F000005072696E74696E67005072696E74690B
:103500006E672E2E2E004E6F00596573004E2F41B0
:10351000004F6666004F6E00153511350D350935C3
:103520000635FA34F134EC34E134D134CA34C234DF
:10353000BE34B534B034A7349F3495348A348134E2
:103540007A3473346C34573445343A343134233458
:1035500013340C340034F933ED33E633DA33CC333F
:10356000B933A633933380336F335E334D333A33FD
:10357000273314330933FD32F132E532DB32CF32F7
:10358000C332B732AE32A2329632893279326A32DF
:103590005E32523246323A322E321E32113202320C
:1035A000F331E431D531CB31C031B431A53198316B
:1035B0008D31813178316E3164315A315231473138
:1035C0003C313131283118310831F830F730E730EB
:1035D000D730C730C630B630A630963095308C30F4
:1035E0007C306C306B306230523042304130383099
:1035F0002830183017300E30FF2FF62FE62FDD2F32
:10360000CD2FC42FB42FAB2F9B2F922F822F792F2A
:10361000692F5F2F4E2F412F332F252F172F0A2F62
:10362000F92EE92EDD2ECF2EBF2EB32EAB2E9E2EE1
:10363000912E842E792E6F2E612E512E402E342EF7
:103640002A2E1D2E0D2E032EF92DEB2DDD2DD12D25
:10365000C42DB72DAE2DAA2D9F2D8E2D822D7B2D05
:103660006A2D5C2D4B2D3D2D2C2D1F2D142D032D42
:10367000F22CE12CD02CBF2CAD2C9B2C902C842C2C
:103680007C2C732C6C2C652C5E2C4B2C3F2C2E2C04
:103690001C2C0C2CFB2BEC2BE52BE32BE22BD42B43
:1036A000C32BBB2BAA2BA02B972B8C2B7A2B6A2BF3
:1036B0005A2B4B2B3A2B2A2B1B2B0B2BF72AE72AA7
:1036C000DC2ACC2ABB2AAE2AA62A9A2A872A862A4C
:1036D0007B2A722A6B2A5B2A4C2A412A3A2A2D2AF3
:1036E000242A132A022AEC29D429CB29C729B42950
:1036F000AA29992988297C2978297229642960298D
:103700005F2955294F294829352922290F29FE28C3
:10371000ED28DC28C928B628A32895288A287D28E2
:1037200070285D284B283828252812280628F827D5
:10373000F127ED27E727D427BF27AC27A527912717
:103740007C2768275B274D27392728271627072737
:10375000F826E826D626C826BE26A9269A268B262F
:103760007C266D265E264F2640262D261D260C26FD
:103770000326FD25F025E225D425C525B625A72558
:103780008C25732505CB0404006B2500FF1835003C
:103790000000000000000000000000000000000029
:1037A00000000000000200002100240027002A0081
:1037B0002D003000330001010000040107010A015F
:1037C00000002200250028002B002E0031003400CC
:1037D00002010000050108010B0100002000230088
:1037E000260029002C002F003200000100000301F8
:1037F0000601090105050505070508080808020274
:1038000002020A0A0808040404040101010101017A
:1038100001010303030303030303040707070C0C5D
:103820000C0C0C0C0C0C0202020206060606060624
:1038300006060B0B0B0B0B0B0B0B010210202008C9
:1038400008102040102040800201020108040201FB
:10385000010204081020408080402010080402016A
:1038600080040201804020100804020108040201C3
:10387000010204081020408001020408102040804A
:1038800000000A0B02090C0D0E08070304010000DA
:103890000000000000000000000000000000000028
:1038A00000000000000000000000000012111000E5
:1038B0000000000000000000000000000000000008
:1038C000000000000000496E76616C69642061723E
:1038D0006300582028412920746F77657220666C38
:1038E0006F6F722073657420746F3A20005920281E
:1038F000422920746F77657220666C6F6F72207337
:10390000657420746F3A20005A2028432920746F70
:1039100077657220666C6F6F722073657420746FA8
:103920003A2000506F7346726F6D53746570733A2E
:10393000002C00436F6D7044656C74613A00546FE5
:1039400077657220333A00546F77657220323A00FF
:10395000546F77657220313A0043616C696272611D
:1039600074696F6E206D6F76656D656E7420697316
:10397000206C696D6974656420746F2031306D6DE1
:103980002E004669727374206D6F766520746F2007
:10399000746F75636820617420782C793D302C3009
:1039A00020746F206175746F2D736574207261646B
:1039B0006975732E0043616C6962726174696F6E20
:1039C000206D6F76656D656E74206973206C696D0E
:1039D0006974656420746F2031306D6D2E00436111
:1039E0006E6E6F74207365742072616469757320E4
:1039F000616E6420666C6F6F722061742073616DFC
:103A0000652074696D652E0043616C696272617432
:103A1000696F6E20636F6465206973206C696D69DE
:103A200074656420746F20626F74746F6D20313020
:103A300025206F66205A20686569676874005265A2
:103A40006C617469766520706F736974696F6E69F3
:103A50006E67004162736F6C75746520706F736977
:103A600074696F6E696E67004733302070726F62E1
:103A7000696E67206661696C656421004732392090
:103A80006C6576656C696E67206661696C6564213A
:103A9000005265736574205A206865696768740010
:103AA0005A2D70726F62652061766572616765205C
:103AB0006865696768743A00657865637574654719
:103AC000436F6465202F20717565756544656C745E
:103AD000614D6F76652072657475726E73206572C4
:103AE000726F7200556E6B6E6F776E20636F6D6DC7
:103AF000616E643A0044656275674C6576656C3A40
:103B0000005072696E7465724D6F64653A434E433E
:103B1000005072696E7465724D6F64653A4C6173E2
:103B20006572005072696E7465724D6F64653A46D5
:103B30004646005859206A65726B2077617320747D
:103B40006F6F206C6F772C2073657474696E6720BB
:103B5000746F20006D6F7665546F5265616C202F15
:103B600020717565756544656C74614D6F7665206F
:103B700072657475726E73206572726F7200534451
:103B8000206361726420696E7365727465640053AA
:103B90004420636172642072656D6F7665640046CF
:103BA0006F726D6174206572726F720057726F6E02
:103BB0006720636865636B73756D00204F00204C50
:103BC00000204B00204200204100204800204300FC
:103BD000204400205200204A0020490020500020AC
:103BE0005300204600204500205A0020590020584C
:103BF00000432068697420666C6F6F720043706FB9
:103C000073207820737175617265200043706F7343
:103C10002078207374657073200043706F7320796F
:103C200020737175617265200043706F7320792075
:103C300073746570732000422068697420666C6F2D
:103C40006F720042706F73207820737175617265B6
:103C5000200042706F7320782073746570732000A9
:103C600042706F7320792073717561726520004214
:103C7000706F732079207374657073200041206821
:103C8000697420666C6F6F720041706F73207820CA
:103C9000737175617265200041706F7320782073B5
:103CA00074657073200041706F7320792073717593
:103CB000617265200041706F7320792073746570A4
:103CC0007320002500F00F2C00A00F3300500F3A96
:103CD00000000F4300B00E4D00600E5800100E6340
:103CE00000C00D7000700D7E00200D9000D00CA360
:103CF00000800CB900300CD200E00BF000900B11EA
:103D000001400B3701F00A6301A00A9801500AD65E
:103D100001000A1E02B0096F026009D002100940BA
:103D200003C008C103700854042008FC04D007B77E
:103D30000580078C0630076807E006550890064E98
:103D40000940064B0AF005320BA005140C5005D8AB
:103D50000C00058C0DB004180E60048F0E1004F0DA
:103D60000EC0033A0F7003730F2003BD0F8002DCF7
:103D70000F0802E90FB801F20F6801F80F1801FCF3
:103D80000FC800FF0F00004800901A4800A00F580D
:103D900000000F6C00600E8400C00DA400200DD048
:103DA00000800C1001E00B5801400BC001A00A4C30
:103DB00002000A08036009F803C00828052008B0BB
:103DC0000680075408E006180A4006C80BA0053014
:103DD0000D0005400E6004FC0EC003740F2003BCF0
:103DE0000F8002E00FE001F40FF000FB0FC800FCB1
:103DF0000FA0000400501D7C00D009A4001009CCC5
:103E0000008008F40010081C01B807440168076C22
:103E10000128079401E806BC01B806E40188060CF5
:103E2000026006340238065C0218068402F005AC13
:103E300002D805D402B805FC029805240380057455
:103E4000035005C4032805140400056404D804B411
:103E500004B0042C058004A40558041C062804940E
:103E60000600040C07D803AC07A8034C087803EC41
:103E70000848038C092003A40AD0021C0BA802AC3A
:103E80000C2802FC0C0802C40DB801140E9801B4F1
:103E90000E38012C0FE000540FB8007C0F8800A4EE
:103EA0000F4800F40F28FFFC0FC0F9000000008C41
:103EB000030800AE035000D603A000F703F000187B
:103EC000044001380490015904E0017A0430029A58
:103ED000048002BB04D002FC0470032605C00386E4
:103EE0000630079709A00F750D201C520E401F1FAA
:103EF0000F6022FF0F803E0400081D900058091C2F
:103F000001B007A801C80634023006C002C0054C43
:103F1000036805D80318056404D004F00498047CF1
:103F200005600408063004940600042007D003ACA2
:103F300007A80338088003C408580350093003DC7D
:103F4000090803680AD802F40AB002800B88020C40
:103F50000C6002980C3002240DF801B00DC0013C39
:103F60000E8001C80E3001540FB800B40F2800E0D5
:103F70000F00000400401D900060091C01B007A85C
:103F800001D00634023806C002C8054C036805D8C3
:103F90000318056404D804F00498047C0560040840
:103FA000063004940600042007D003AC07A80338A9
:103FB000088003C408580350093003DC090803686B
:103FC0000AE002F40AB802800B88020C0C60029826
:103FD0000C3002240DF801B00DC0013C0E8001C868
:103FE0000E3001540FB800B40F2800E00F00000499
:103FF000000016D800C006AC0178058002C0045449
:104000000348042804E803FC049803D0055003A4E3
:104010000618037807D8024C08A80220097002F499
:10402000093802C80A08029C0BD001700C900144A8
:104030000D5001180EF800EC0E8800C00F000004AF
:1040400000681D4C00500B94005809DC00500824F7
:1040500001A8076C012807B401C006FC01700644E2
:104060000228068C02F005D402B8051C03880564FA
:10407000035805AC033005F40310053C04E8048440
:1040800004C804CC04A804140590045C057004A4BE
:10409000055804EC053804340620047C060804C4E2
:1040A00006F0030C07D8035407C8039C07B003E4C9
:1040B0000798032C08800374087003BC0858030495
:1040C0000948034C09300394091803DC0908032448
:1040D0000AF0026C0AE002B40AC802FC0AB0024408
:1040E0000BA0028C0B8802D40B70021C0C580264CB
:1040F0000C4002AC0C2802F40C10023C0DF00184C0
:104100000DD801CC0DB801140E98015C0E7001A4FD
:104110000E4801EC0E1801340FD8007C0F8800C443
:104120000F0800FC0F00000000000000000000006D
:10413000000000000000000000000000000000007F
:1041400000000000000000000000000000401F45CB
:104150000060094F0010095C00C0086B0070087D0A
:104160000020089200D007AC008007CC003007DEAA
:1041700000E006230190065E014006A601F005FF5F
:1041800001A0056D025005F30200059603B0045A24
:10419000046004400510044806C0036E077003A8BD
:1041A000082003EB09D002230B8002410C300239B6
:1041B0000DE001040E9001A20E4001170FF00069FE
:1041C0000FA000A20F5000C60F0000DD0FB0FFEBE4
:1041D0000F60FF0400700DD8004804AC0158038044
:1041E00002D8025403800228043802FC040002D0E2
:1041F00005C801A4069801780770014C0848012001
:10420000091801F409F000C80AC8009C0BA000704E
:104210000C7000440D3800180E0000EC0EA8FFC012
:104220000FE8FE0400001B540060096400100974CC
:1042300000C008840070089C002008B800D007D88F
:10424000008007000130072C01E00668019006ACF1
:104250000140060002F0056802A005E00250057466
:104260000300052404B004F0046004DC051004E439
:1042700006C0030408700330092003780B80026035
:104280000DE001A80E4001680FA000C00F0000E87B
:104290000F60FF0400801AD8009808AC0120078046
:1042A0000250065403C80528045805FC040005D034
:1042B00005B004A4066804780728044C08E8032025
:1042C00009B003F4097003C80A38039C0BF80270A4
:1042D0000CB002440D6802180E0802EC0E8801C0F2
:1042E0000F8800F00F00000000A00F5C006009695B
:1042F0000010097900C0088C007008A2002008BDD9
:1043000000D007DE008007050130073401E0066DAC
:10431000019006B20140060702F0056D02A005E813
:104320000250057B0300052B04B004F8046004EB85
:1043300006C003350920037F0B8002650DE001B044
:104340000E40011D0FF000480FC8006C0FA000EDDB
:104350000F60FFFE0F48FE457874722E00455052E4
:104360003A3320004550523A3220004550523A31FB
:1043700020004550523A30200053656C6563744507
:10438000787472756465723A003A005461726765B8
:104390007445787472005461726765744265643A5A
:1043A00000E74293422342D3410000000000004B4B
:1043B000413F40EF3F733FF73EAB3EF33D873DC388
:1043C0003C1C151C140000002243141F1F132E1B3D
:1043D000315072696E7465722073657420696E74F1
:1043E0006F206472792072756E206D6F6465207520
:1043F0006E74696C20726573746172742100206D33
:1044000061726B6564206465636F75706C656400D0
:10441000206D61726B656420646566656374003A43
:1044200020776F726B696E67003A2074656D70203B
:1044300073656E736F72206465666563740065787A
:1044400074727564657220006865617465642062C9
:10445000656400627573793A70726F63657373692E
:104460006E6700446F6F72206F70656E00627573C7
:10447000793A646F6F72206F70656E006275737940
:104480003A68656174696E6700627573793A706144
:104490007573656420666F72207573657220696E2E
:1044A000746572616374696F6E00526573656E64E2
:1044B0003A006F6B200020676F7420004572726FA6
:1044C000723A6578706563746564206C696E652006
:1044D00000736B697020006F6B00486561746572D2
:1044E0002F73656E736F72206661696C75726500FB
:1044F00044697361626C696E6720616C6C206865E9
:1045000061746572732064756520746F20646574CE
:1045100065637465642073656E736F72206465668D
:104520006563742E00206465672E204300206D654E
:1045300061737572656420004572726F723A436FE1
:10454000756C64206E6F7420686F6C642074656D88
:1045500070657261747572652000206D7300206152
:104560006674657220004572726F723A54656D70A0
:104570002E2072616973656420746F20736C6F778D
:104580002E2052697365203D20004F6E65206865BE
:1045900061746572207365656D73206465636F7502
:1045A000706C65642066726F6D20746865726D69E9
:1045B00073746F72202D2064697361626C696E6719
:1045C00020616C6C20666F7220736166657479215E
:1045D00000486561746572206465636F75706C6511
:1045E0006400486561746564206265642065786371
:1045F0006565646564206D61782074656D706572B1
:104600006174757265210020453A00205A3A0058BD
:104610003A002044303A0020403A002042403A001C
:1046200020524157002044423A0020423A00202FB5
:1046300000543A0053706565644D756C7469706C14
:10464000793A00466C6F774D756C7469706C793A85
:104650000046616E73706565643A00206D696E0096
:1046600020686F7572732000206461797320005098
:1046700072696E74696E672074696D653A006D20A9
:10468000005072696E7465642066696C616D656E58
:10469000743A0050726F746F636F6C20766572733A
:1046A000696F6E206368616E6765642C2075706742
:1046B000726164696E670044657465637465642043
:1046C000454550524F4D2076657273696F6E3A00C2
:1046D00000002110422063308440A550C660E7707E
:1046E000088129914AA16BB18CC1ADD1CEE1EFF126
:1046F0003112100273325222B5529442F772D662CE
:10470000399318837BB35AA3BDD39CC3FFF3DEE375
:104710006224433420040114E664C774A44485541D
:104720006AA54BB528850995EEE5CFF5ACC58DD5C5
:104730005336722611163006D776F6669556B4466D
:104740005BB77AA719973887DFF7FEE79DD7BCC715
:10475000C448E5588668A7784008611802282338BD
:10476000CCC9EDD98EE9AFF9488969990AA92BB965
:10477000F55AD44AB77A966A711A500A333A122A0D
:10478000FDDBDCCBBFFB9EEB799B588B3BBB1AABB5
:10479000A66C877CE44CC55C222C033C600C411C5D
:1047A000AEED8FFDECCDCDDD2AAD0BBD688D499D05
:1047B000977EB66ED55EF44E133E322E511E700EAD
:1047C0009FFFBEEFDDDFFCCF1BBF3AAF599F788F55
:1047D0008891A981CAB1EBA10CD12DC14EF16FE135
:1047E0008010A100C230E32004502540467067606D
:1047F000B9839893FBA3DAB33DC31CD37FE35EF385
:10480000B1029012F322D2323542145277625672BC
:10481000EAB5CBA5A89589856EF54FE52CD50DC5D4
:10482000E234C324A014810466744764245405440C
:10483000DBA7FAB79987B8975FE77EF71DC73CD724
:10484000D326F2369106B01657667676154634565C
:104850004CD96DC90EF92FE9C899E9898AB9ABA974
:104860004458654806782768C018E1088238A328AC
:104870007DCB5CDB3FEB1EFBF98BD89BBBAB9ABBC4
:10488000754A545A376A167AF10AD01AB32A923AFC
:104890002EFD0FED6CDD4DCDAABD8BADE89DC98D14
:1048A000267C076C645C454CA23C832CE01CC10C4C
:1048B0001FEF3EFF5DCF7CDF9BAFBABFD98FF89F64
:1048C000176E367E554E745E932EB23ED10EF01E9C
:1048D0000040145452657175657374506175736549
:1048E0003A486F6D696E67206661696C6564210086
:1048F0005265717565737453746F703A007C3C3EF9
:104900005E2B3D3F2F5B5D3B2C2A225C0043617098
:104910003A00436F6E6669673A00496E666F3A0007
:104920004572726F723A00494E46004E414E005732
:1049300061726E696E673A00207A3A0020793A0017
:1049400020783A00496E76616C69642064656C7405
:104950006120636F6F7264696E617465202D206DD4
:104960006F76652069676E6F726564004E6F206DAB
:104970006F766520696E2064656C7461207365676D
:104980006D656E742077697468203E2031207365F0
:10499000676D656E742E20546869732073686F7537
:1049A0006C64206E657665722068617070656E203B
:1049B000616E64206D61792063617573652061208B
:1049C00070726F626C656D2100696E20717565751E
:1049D0006544656C74614D6F766520746F2063610A
:1049E0006C63756C61746544656C74615375625376
:1049F00065676D656E74732072657475726E732071
:104A00006572726F722E005A2D70726F626520731C
:104A1000746174653A007A5F6D61783A004C2000E9
:104A2000482000795F6D61783A00785F6D61783A6F
:104A300000656E6473746F7073206869743A200047
:104A4000205072696E7465722073746F7070656443
:104A500020616E6420686561746572732064697397
:104A600061626C65642064756520746F2074686988
:104A700073206572726F722E20466978206572729B
:104A80006F7220616E642072657374617274207736
:104A9000697468204D3939392E00666174616C3A49
:104AA000005344206572726F7220646964206E6FD7
:104AB00074207265636F76657221005344206572BD
:104AC000726F722066697865640053442052656194
:104AD00064204572726F72005344207265616420D5
:104AE0006572726F7200446F6E65207072696E74C9
:104AF000696E672066696C65004563686F3A0000FF
:104B000000420FA1071605D0030D038B022E02E809
:104B100001B2018601630145012C0117010401F472
:104B20000000000000000000000000000000000085
:104B30000024F403D950C38EB1C2A23D96828B35B6
:104B400082127AE372816CCB66A861015DC758EB73
:104B5000546151204E1E4B5648C14559431A4101DC
:104B60003F093D2F3B7139CD374036C93465331489
:104B700032D430A32F802E6B2D632C672B752A8E99
:104B800029B028DC2710274B268F25D9242B2482F7
:104B900023E0224322AC211A218D200420801F0013
:104BA0001F841E0C1E971D261DB81C4E1CE61B8262
:104BB0001B201BC11A641A0A1AB2195D190A19B905
:104BC000186A181C18D11788174017FA16B51673EB
:104BD000163116F115B31576153A150015C7148F51
:104BE0001458142214EE13BA13881356132513F60F
:104BF00012C71299126C1240121512EB11C11198C2
:104C000011701148112111FB10D610B1108D1069CF
:104C100010461024100210E10FC00FA00F800F618A
:104C20000F420F230F060FE80ECB0EAF0E930E7739
:104C30000E5C0E410E270E0D0EF30DDA0DC10DA800
:104C40000D900D780D600D490D320D1B0D050DEF0A
:104C50000CD90CC30CAE0C990C850C700C5C0C4878
:104C60000C350C210C0E0CFB0BE80BD60BC40BB255
:104C70000BA00B8E0B7D0B6B0B5A0B4A0B390B29C0
:104C80000B180B080BF80AE90AD90ACA0ABB0AACC6
:104C90000A9D0A8E0A800A710A630A550A470A3970
:104CA0000A2C0A1E0A110A040AF709EA09DD09D0CA
:104CB00009C409B709AB099F09920987097B096FE4
:104CC00009630958094C09410936092B09200915BE
:104CD000090A090009F508EB08E008D608CC08C263
:104CE00008B808AE08A4089A08900887087D0874D8
:104CF000086B08610858084F0846083D0834082C1E
:104D00000823081A08120809080108F807F007E83C
:104D100007E007D807D007C807C007B807B007A83B
:104D200007A10700000000000000000000000100D3
:104D300000FF000D0E6D6F766552656C61746976CB
:104D40006544697374616E6365496E53746570730D
:104D5000202F20717565756544656C74614D6F76A3
:104D6000652072657475726E73206572726F720061
:104D7000473238005344207072696E742073746F28
:104D80007070656420627920757365722E00000072
:104D9000003FCDCC4C3D0AD7A33B6F12033A4E41A6
:104DA0004E494E495459494E46CDCCCC3D0AD723A5
:104DB0003C17B7D13877CC2B329595E6241FB14FED
:104DC0000A000020410000C84200401C4620BCBE32
:104DD0004CCA1B0E5AAEC59D7400FD02D9021124A7
:104DE0001FBECFEFD1E2DEBFCDBF00E00CBF14E0AD
:104DF000A0E0B2E0E2EDFEE602E00BBF02C00790E9
:104E00000D92A032B107D9F72DE1A0E2B4E001C0C4
:104E10001D92A43BB207E1F716E2CEEED6E200E027
:104E200006C021970109802FFE010F94312ECD3E3F
:104E3000D10780E00807A9F70F949E220D945737F9
:104E40000C9400002F923F924F925F926F927F924C
:104E50008F929F92AF92BF92CF92DF92EF92FF928A
:104E60000F931F93CF93DF93CDB7DEB7C759D10907
:104E70000FB6F894DEBF0FBECDBF8C01DC011696D5
:104E80008D919C911797893C910511F40C942B34CA
:104E900008F45AC28836B1E09B0711F40C94582FDD
:104EA00008F0BCC2823E910511F40C94893708F0D9
:104EB00082C38E3C910511F40C94D23808F037C4AB
:104EC0008B3C910509F495C510F40C9409368C3C83
:104ED000910511F40C94CC358D3C910511F00C9496
:104EE000733410926A0363E97DE084E094E00E94E9
:104EF00035E16AE87DE08BE490E00E947DE143E0EB
:104F000065E77DE081E890E00E949DE162E67DE05A
:104F10008DE790E00E947DE164E47DE08FE490E025
:104F20000E947DE16BE17DE083E590E00E947DE100
:104F300044E06EE07DE08BE090E00E949DE143E084
:104F400069EF7CE087E190E00E949DE143E062EE42
:104F50007CE083E290E00E949DE143E061ED7CE033
:104F600087E290E00E949DE143E062EC7CE085E80E
:104F700090E00E949DE143E063EB7CE089E890E0F3
:104F80000E949DE143E064EA7CE08DE890E00E94AD
:104F90009DE143E062E97CE081E990E00E949DE1CF
:104FA00043E060E87CE085E990E00E949DE143E019
:104FB0006EE67CE089E990E00E949DE168E57CE096
:104FC0008BE793E00E9459E160E47CE089E793E09D
:104FD0000E9459E143E06AE27CE08BE390E00E94AA
:104FE0009DE143E06DE07CE087E490E00E949DE17C
:104FF00043E064EF7BE081E793E00E949DE143E0C2
:1050000062ED7BE085E793E00E949DE143E068EB81
:105010007BE08DE993E00E949DE169E97BE08DE70B
:1050200093E00E9459E16AE77BE08FE793E00E94FA
:1050300059E16BE57BE081E893E00E9459E143E0B0
:105040006DE47BE085E893E00E949DE143E06FE33F
:105050007BE089E893E00E949DE143E062E37BE02E
:105060008DE893E00E949DE143E06FE17BE081E900
:1050700093E00E949DE143E06CE07BE085E993E0F2
:105080000E949DE143E069EF7AE089E993E00E94A4
:105090009DE143E063EE7AE085EA93E00E949DE1C2
:1050A00043E06DEC7AE089EA93E00E949DE143E001
:1050B00067EB7AE08DEA93E00E949DE143E060EACD
:1050C0007AE080E094E00E949DE143E06CE87AE0C1
:1050D00088E293E00E949DE143E06EE67AE081EA97
:1050E00093E00E949DE143E069E57AE08CE293E081
:1050F0000E949DE143E060E47AE088E493E00E944E
:105100009DE143E06AE27AE080E293E00E949DE163
:1051100043E064E17AE084E293E00E949DE143E0B1
:1051200064E07AE080E393E00E949DE143E064EF75
:1051300079E084E393E00E949DE143E064EE79E04E
:1051400088E393E00E949DE143E064ED79E08CE325
:1051500093E00E949DE143E064EC79E080E493E019
:105160000E949DE143E064EB79E084E493E00E94D7
:105170009DE143E062E979E08CE094E00E949DE1EA
:1051800043E060E779E080E194E00E949DE143E044
:105190006EE479E084E194E00E949DE167E379E0C8
:1051A00088E194E00E9459E160E279E08AE690E0CB
:1051B0000E9435E16EE079E08BE690E00E9435E1F7
:1051C0006CEF78E08CE790E00E9435E143E06DEE13
:1051D00078E08CE690E00E949DE143E06EED78E09F
:1051E00080E790E00E949DE143E06FEC78E084E787
:1051F00090E00E949DE165EB78E088E790E00E94F6
:1052000035E162E978E08CEF93E00E9435E143E01C
:105210006BE778E080EE93E00E949DE143E063E677
:1052200078E088EE93E00E949DE143E06CE478E052
:105230008CEE93E00E949DE143E067E278E080EF2E
:1052400093E00E949DE143E061E178E088EF93E024
:105250000E949DE143E064E078E088EC90E00E94E9
:105260009DE143E06FEE77E08CEC90E00E949DE1E1
:1052700043E069ED77E080ED90E00E949DE143E03E
:1052800063EC77E084ED90E00E949DE160EB77E0D5
:1052900086E291E00E9459E16DE977E088ED90E0C7
:1052A0000E9435E16FE877E089ED90E00E9435E1FA
:1052B00061E877E085EF90E00E9435E144E06CE63C
:1052C00077E08AED90E00E949DE144E061E677E0BE
:1052D0008EED90E00E949DE144E066E577E082EE8D
:1052E00090E00E949DE160E477E086EE90E00E940D
:1052F00035E16FE277E087EE90E00E947DE16EE1BC
:1053000077E08BEE90E00E947DE16DE077E082E255
:1053100091E00E947DE164EF76E08FEE90E00E94E4
:1053200059E16EEC76E08AEF90E00E9459E168EA7C
:1053300076E08CEF90E00E9459E16AE876E08EEF2B
:1053400090E00E9435E18DC28435910509F45EC577
:1053500008F48AC08237910509F470C508F4A6C024
:105360008837910509F440C508F460C28A3A91056E
:1053700011F40C942E3708F48EC28E3B910511F473
:105380000C948839883C910511F00C947334E091A9
:105390003405F09135058081982FD8012D913C91ED
:1053A00031FF1FC5F801EC5AFF4F2081211119C5AB
:1053B000A12CB12C90E0F801228122FD02C00C94B6
:1053C000763AC6A4D7A4E0A8F1A823FF07C0D80165
:1053D000D296CD90DD90ED90FC90D59725E82A9D52
:1053E000F0012B9DF00D1124E35FFC4FC082D182B0
:1053F000E282F382891711F40C94B53F20E030E08B
:10540000A901C701B6010F94B035B50181110C9403
:10541000413F87E392E10F94DA0723C2863F41E0E0
:10542000940711F40C942D3208F008C1833CA1E0DC
:105430009A0711F40C942F3808F0D6C18139E1E0B5
:105440009E0709F4EFC210F40C942738823931E03A
:10545000930711F40C94F337823C914011F00C94B3
:1054600073340E946FBDFDC18B31910511F40C9412
:10547000213408F42AC18A32910509F4A2C308F440
:1054800054C38135910509F4F5C210F40C94CB3660
:105490008235910511F40C94C7368335910511F0CE
:1054A0000C94733481E080933605DBC18936910515
:1054B00011F40C94DC3408F05AC18C35910509F4D0
:1054C00013C210F40C94B4388336910511F40C9483
:1054D00035398836910511F00C9473340E9448D800
:1054E000F82E8111BEC10E94CF4A6093E5057093EA
:1054F000E6058093E7059093E8058091120383FD0C
:10550000B0C1D8018D919C91119793FD0FC092FD70
:1055100002C00C94E33F5E968D909D90AD90BC9040
:10552000919781149104A104B10471F40E943CEBA1
:10553000F8018081918192FD02C00C94E33FF80153
:10554000868C978CA0A0B1A091FD02C00C946046FF
:10555000F801EC5AFF4F208121110C94604690FF16
:1055600011C0FF24F39420E030E0A901D8015A963D
:105570006D917D918D919C915D970F947730181668
:105580000CF0F12CC501B4010F94B635F80122815D
:10559000338132FD02C00C94FC45E25BFF4F208159
:1055A0003181428153810F945D2E00E02F2D40E028
:1055B0000E94EBDA56C18E32F1E09F0709F450C326
:1055C00008F070C2893131E0930709F436C210F453
:1055D0000C948335823251E0950711F40C941A35FE
:1055E0008C32914011F00C947334D8018D919C91C0
:1055F000119792FD02C00C945A3F5E96CD90DC90BC
:105600005F9793FD02C00C94523FF80182A093A0D3
:10561000A4A0B5A0AA24BB2480915503853211F41F
:105620000C9418438F3F11F40C946140C501B401F0
:105630000E94984A85E20E94809D13C18835F2E05D
:105640009F0709F429C308F049C2833132E0930768
:1056500009F41AC208F48EC38431A2E09A0711F447
:105660000C944B368B31924011F00C947334D8016A
:105670002D913C91119732FF11C05E968D919D91B5
:105680000D90BC91A02D892B8A2B8B2B11F40C949F
:1056900055428091E10480628093E10433FFE1C0D0
:1056A000F80182A193A1A4A1B5A1892B8A2B8B2BF0
:1056B00011F40C943B4380914F0690915006846006
:1056C0009093500680934F06CCC08631910511F41B
:1056D0000C94373808F46DC28831910509F4A5C1DE
:1056E00010F40C94323A8931910511F40C94AF38CE
:1056F0004A9711F00C947334F8018081918192FFE4
:10570000B0C0468D578D60A171A18091640B882334
:1057100009F4A7C040935B0B50935C0B60935D0B47
:1057200070935E0B8AE39BE00E94847A9AC0813D6D
:10573000910509F440C110F40C9491368C3D91050B
:1057400011F40C9486368D3D910511F00C94733450
:10575000D8018D919C91119792FD02C00C94183F35
:105760005E968D919C915F970E94EFE27AC08B3696
:10577000910509F402C110F40C94EC348D369105B6
:1057800009F490C28F36910511F00C947334F8012E
:105790008081918192FF02C00C94954493FF11C0C7
:1057A000F80182A193A1A4A1B5A1181619061A06A1
:1057B0001B0614F00C94334320911203822B0E9499
:1057C000B4BD8091120383FF4CC000E020E040E0B4
:1057D00060E070E0CB010E94EBDA40E060E070E056
:1057E000CB010E9472DA3DC0853C51E0950709F477
:1057F000DFC010F40C942E3A843FB1E09B0711F403
:105800000C941135853F914011F00C94733481E074
:105810000E94AFEBE0913405F091350580810E9444
:10582000D6DE88E391E10F9494081BC0843791057C
:1058300009F417C110F40C94AC348537910511F4B8
:105840000C9484348737910511F00C9473341092C2
:105850006A030E943CEB0F9483090F9483090F9411
:105860004009C956DF4F0FB6F894DEBF0FBECDBF5B
:10587000DF91CF911F910F91FF90EF90DF90CF902C
:10588000BF90AF909F908F907F906F905F904F9060
:105890003F902F9008958C38910511F40C94E436C4
:1058A0008B39910511F00C947334F801808191814A
:1058B00092FF0AC0868D978DA0A1B1A1892B8A2B5A
:1058C0008B2B11F40C94483A8091E1048061809311
:1058D000E1040E94CF4A60932104709322048093D4
:1058E000230490932404BDCFF801808183FF0CC072
:1058F0004285538564857585409304025093050263
:10590000609306027093070284FF0FC0D8011E96B1
:105910004D915D916D917C91519740930802509308
:10592000090260930A0270930B0285FF0DC0F80113
:1059300082899389A489B58980930C0290930D0282
:10594000A0930E02B0930F020E9402B8D8018C916E
:1059500086FF87CF209134053091350556968D917D
:105960009D910D90BC91A02DF90185879687A78701
:10597000B08B80810E94D6DE74CF80912C0583FD90
:1059800070CFD8018D919C91119793FF0BC0929687
:105990008D919D910D90BC91A02D0197A105B10510
:1059A00009F45FCF60E080E090E00E94A1E259CF6F
:1059B0000E946FBD56CFD8018D919C91119792FF97
:1059C00050CF61E05E968D919D910D90BC91A02D80
:1059D000892B8A2B8B2B11F40C948C3A80912C05FB
:1059E000826080932C0570E088EF91E10F94DA07D4
:1059F00038CFD8018D919C91119792FD02C00C94E3
:105A00004E3F81E05E964D915D916D917C919197B5
:105A10004F3F51056105710511F40C94D13F8093FE
:105A200020041FCF0F9493011CCF8091640B882317
:105A300009F417CF0E94AA9B14CFD8018C9183FF41
:105A400002C00C947B3A8BEA91E10F94940880E0B9
:105A50000E94E2B668EC70E080E090E00E94984A14
:105A6000FFCF86EB92E00E94F4E08CE392E00E948C
:105A7000F4E0F7CE0E943CEB269A8091F90A8F7BE6
:105A80008093F90A2E9AEDCEF801EE5AFF4F60810D
:105A9000718144E150E083E195E00F94E832109287
:105AA0002705DFCE8435B1E09B0711F40C94C7378E
:105AB00010F40C94923A8E3521E0920709F4D1CE7D
:105AC0008336914009F00FC7D8018D919C9192FDCA
:105AD000C8CE8CE39EE00F949408C3CE8F38E3E0E9
