:100000000C948F280C94C0280C94C0280C94C02801
:100010000C94C0280C94C0280C94C0280C94C028C0
:100020000C94C0280C94C0280C94C0280C94C028B0
:100030000C94C0280D9482840C94C0280C94C02881
:100040000C94C0280C94818D0C94C0280C94C0286A
:100050000C94C0280C94C0280D9422600C94606508
:100060000C94C0280D94F85F0D94C85F0C94C028C0
:100070000C94C0280C94C0280C94C0280C94C02860
:100080000C94E4950C94C0280C94C0280C94C028BF
:100090000C94C0280C94C0280C94C0280C94C02840
:1000A0000C94C0280C94C0280C94C0280C94C02830
:1000B0000C94C0280C94C0280C94C0280C94C02820
:1000C0000C94C0280C94C0280C94C0280C94C02810
:1000D0000C94C0280C94C0280C94C0280C94C02800
:1000E0000C94C028E983E983FA7FFA7F3684A579E6
:1000F000A579A579A579A579F27F2D84A579A5792A
:10010000A579A579A579A579A579A5792884B27F5E
:10011000A579A579A579A579A579A5797E7FE67DCB
:10012000AD7DBB7D9D7DDE7FA579A579A579A5797E
:10013000A579A579A579A579A579A579A579A579CF
:10014000A579A579A579A579A579A579A579A579BF
:10015000A579A579A579A579A579A579A579A579AF
:10016000A579A579A579A579A579A579A579A5799F
:10017000A579A579A579A579A579A579A579A5798F
:10018000A579A579A579A579A579A579A579A5797F
:10019000A579A579A579A579B57F6E7D9F7CA5798F
:1001A000A579A579A579A579A579A5793D7CA579C4
:1001B000A579A579A579A579A579A579A579A5794F
:1001C000A579A579A579A579A579A579A579A5793F
:1001D000A579A579A579A579A579A579A579A5792F
:1001E000A579A579A579A579A579F87B1D7B3D7AB7
:1001F000A579CC793E96549670961B967C961B9664
:100200005E961B963E9B4897489748974897489715
:1002100048974897489748974897489748974897E6
:1002200048974897489748974897489748974897D6
:1002300048970D9B9C9B719BDA9AB49A8A9A599A1B
:10024000269AFB99C89996996399D798A798759813
:10025000499848971E98F597CE974897489748979A
:10026000A4977E972097489748974897489748972C
:1002700048970D9B9C9B719BDA9AB49A8A9A599ADB
:10028000269AFB99C89996996399D798A7987598D3
:10029000499848971E98F597CE974897489748975A
:1002A000A4977E97209771A159A159A159A159A14D
:1002B00059A159A159A159A159A159A159A159A16E
:1002C00046A159A159A159A117A117A117A117A179
:1002D00017A117A117A117A117A117A117A117A15E
:1002E00017A117A117A117A117A117A117A117A14E
:1002F00017A117A117A117A117A117A117A117A13E
:1003000017A117A117A117A117A146A146A146A1A0
:1003100017A117A117A117A117A117A117A146A1EE
:1003200046A117A117A117A117A117A117A117A1DE
:1003300017A117A117A117A117A117A117A117A1FD
:1003400017A117A117A117A117A117A117A117A1ED
:1003500017A117A117A117A117A117A117A117A1DD
:1003600017A117A117A117A159A159A159A146A1D8
:1003700077A139A239A239A239A239A239A239A268
:1003800039A239A239A239A239A2E1A139A239A2EE
:1003900039A220A120A120A120A120A120A120A13B
:1003A00020A120A120A120A120A120A120A120A145
:1003B00020A120A120A120A120A120A120A120A135
:1003C00020A120A120A120A120A120A120A120A125
:1003D00020A120A1E1A1E1A1E1A120A120A120A1D2
:1003E00020A120A120A120A1D6A1B8A19AA120A13D
:1003F00020A120A120A120A120A120A120A120A1F5
:1004000020A120A120A120A120A120A120A120A1E4
:1004100020A120A120A120A120A120A120A120A1D4
:1004200020A120A120A120A120A120A120A120A1C4
:1004300020A120A120A120A182A17AA4ECA3ECA359
:10044000ECA3ECA3ECA3ECA3ECA3ECA3ECA3ECA334
:10045000ECA3ECA3ECA3ECA3ECA3ECA3ECA3ECA324
:10046000ECA3ECA3ECA3ECA3ECA3ECA3ECA38EA471
:10047000ECA3ECA3A4A4ECA3B6A4C0A4D7A4ECA3BF
:10048000ECA3ECA3ECA3ECA3ECA3ECA3ECA3ECA3F4
:1004900023A5ECA3ECA340A557A56EA5ECA3FDA551
:1004A00018A6ECA3ECA3ECA3ECA3ECA3ECA3ECA3A5
:1004B000ECA346A6ECA3ECA362A69FA6D4A6ECA34D
:1004C000ECA3EFA6ECA3ECA30CA7ECA3ECA31CA756
:1004D0006EA7ECA3ECA388A7ECA3ECA3ECA3A1A7C5
:1004E000F8A74BA408A50503D50209030B03D10205
:1004F000DF02FD022703EB0203030F03CB02DD0241
:10050000BF02DF02F90217030D031F03F102F70216
:100510002303D902E502C902BD0229030703FF0232
:10052000E7021303C502E502CD02E902C302084A4D
:10053000D73B3BCE016E84BCBFFDC12F3D6C7431F7
:100540009ABD56833DDA3D00C77F11BED9E4BB4C4E
:100550003E916BAAAABE000000803F05A84CCDB218
:10056000D44EB93836A9020C50B9918688083CA6F9
:10057000AAAA2ABE000000803F000D94F2BA0D9492
:100580003D840D94BD700D944FBB0D9431BB0D9403
:100590000A510D94EABA0D9431840D943BBB0D942D
:1005A000E9820D940D840D9423510D94FD830D94D7
:1005B00054700D94E0BA0D9461700D9437840D94CD
:1005C000F8830D94B2720D9462BB0D9459BB0D94D7
:1005D00018BB0D9445BB0D941F840D9463BB0D9403
:1005E000B8710D94C7BA0D94BA820D9438510D9418
:1005F000CCBA0D9443840D946D700D9413840D94B6
:100600000EBB0D9458700D9425840D94F9830D94B0
:1006100004BB0D9401840D9407840D94F3830D9411
:100620002B840D9460700D9427BB0D9456700D941F
:1006300049840D94FB500D94C1700D9496700D94E7
:10064000C2BA0D94BF700D94D6BA0D94C6500D94D5
:1006500019840D94FABA456E642066696C65206C45
:1006600069737400426567696E2066696C65206C09
:10067000697374005344207072696E74696E6720E8
:100680006279746520004E6F742053442070726943
:100690006E74696E67004361703A005049442041AE
:1006A00075746F74756E65206661696C6564212070
:1006B00074696D656F757400504944204175746F9D
:1006C00074756E65206661696C6564212054656D82
:1006D000706572617475726520746F6F20686967E8
:1006E0006800204B643A2000204B693A2000204BE0
:1006F000703A200020436C61737369632050494451
:10070000002054753A2000204B753A2000206D617E
:10071000783A2000206D696E3A200020643A20006B
:1007200020626961733A2000504944204175746F1A
:1007300074756E65207374617274004E6F2063610E
:100740007365206C6967687473004D617854656DDA
:10075000703A004469616D657465723A0041636383
:10076000656C65726174696F6E3A004D61785370A3
:100770006565643A004A65726B3A004D617842657E
:100780006454656D703A005072696E746572547984
:1007900070653A44656C7461005A54726176656C98
:1007A000416363656C3A005954726176656C4163CC
:1007B00063656C3A005854726176656C4163636599
:1007C0006C3A005A5072696E74416363656C3A000A
:1007D000595072696E74416363656C3A0058507287
:1007E000696E74416363656C3A005A53697A653A7D
:1007F000005953697A653A005853697A653A005A44
:100800004D61783A00594D61783A00584D61783A17
:10081000005A4D696E3A00594D696E3A00584D695B
:100820006E3A0052657472616374696F6E556E64DE
:100830006F53706565643A005265747261637469E0
:100840006F6E556E646F45787472614C6F6E674C55
:10085000656E6774683A0052657472616374696F9B
:100860006E556E646F45787472614C656E6774681E
:100870003A0052657472616374696F6E5A4C6966AE
:10088000743A0052657472616374696F6E53706577
:1008900065643A0052657472616374696F6E4C6F7F
:1008A0006E674C656E6774683A0052657472616376
:1008B00074696F6E4C656E6774683A004B6565705D
:1008C000416C697665496E74657276616C3A004A6E
:1008D00065726B58593A005072696E746C696E6536
:1008E00043616368653A00454550524F4D3A0041B7
:1008F00075746F6C6576656C3A005A50726F6265FC
:100900003A00436173654C69676874733A005375C4
:1009100070706F72744C6F63616C46696C616D6569
:100920006E746368616E67653A00537570706F72BC
:10093000744731304731313A005A486F6D65506F16
:10094000733A0059486F6D65506F733A0058486F9D
:100950006D65506F733A005A486F6D654469723A1D
:100960000059486F6D654469723A0058486F6D656B
:100970004469723A00536F667477617265506F779D
:1009800065725377697463683A004C43443A004691
:10099000616E323A300046616E3A005344436172F0
:1009A000643A004865617465644265643A004D6963
:1009B00078696E6745787472756465723A004E7531
:1009C0006D45787472756465723A00496E7075741D
:1009D0004275666665723A0042617564726174655B
:1009E0003A00696E666F3A436F6E74696E75652082
:1009F00066726F6D20666174616C207374617465DA
:100A0000000054657374696E6720666174616C20C0
:100A10006572726F720029203D20002C0042656EC5
:100A200064696E67206174202800436F6E66696791
:100A300075726174696F6E206C6F616465642066A5
:100A4000726F6D20454550524F4D2E00436F6E66BC
:100A5000696775726174696F6E2073746F72656413
:100A600020746F20454550524F4D2E00436F6C64EB
:100A700020657874727573696F6E20646973616C38
:100A80006C6F77656400436F6C6420657874727571
:100A900073696F6E20616C6C6F7765640054726966
:100AA00067676572696E67207761746368646F67F2
:100AB0002E204966206163746976617465642C2018
:100AC000746865207072696E7465722077696C6CE9
:100AD0002072657365742E005761746368646F6774
:100AE0002064697361626C6564004175746F72653E
:100AF00074726163743A004A65726B3A0020746FD5
:100B0000200053657420766F6C756D65747269632F
:100B100020657874727573696F6E20666F722065D8
:100B200078747275646572200044697361626C65E3
:100B30006420766F6C756D65747269632065787476
:100B4000727573696F6E20666F7220657874727546
:100B5000646572200020505245484541540050526F
:100B600045484541545F4245443A00205A533A00B3
:100B70002059533A0058533A005052454845415481
:100B80003A3100504155534553544F503A31005477
:100B90004F47474C455F4C49474854533A30005300
:100BA0004F4654574152455F504F5745523A3100D6
:100BB0005A5F50524F42453A31004155544F4C45CF
:100BC00056454C3A3100454550524F4D3A3100415F
:100BD00055544F5245504F52545F54454D503A3141
:100BE0000050524F47524553533A31004649524DF7
:100BF000574152455F4E414D453A526570657469A3
:100C000065725F312E302E30646576204649524D34
:100C1000574152455F55524C3A68747470733A2F7D
:100C20002F6769746875622E636F6D2F72657065CA
:100C3000746965722F52657065746965722D4669B5
:100C4000726D776172652F2050524F544F434F4C55
:100C50005F56455253494F4E3A312E30204D414355
:100C600048494E455F545950453A44656C7461207B
:100C700045585452554445525F434F554E543A31AE
:100C80002052455045544945525F50524F544F43AE
:100C90004F4C3A330050696E2063616E206E6F7462
:100CA00020626520736574206279204D34322C20D7
:100CB000697320696E2073656E7369746976652047
:100CC00070696E732120002069732000496C6C6587
:100CD00067616C20532076616C756520666F7220A9
:100CE0004D34320020746F2000536574206F75748A
:100CF0007075743A2000000136372603023C3D38F7
:100D00000E0F2E303E12130D0C0A081A1C180D0E71
:100D1000350000000000000000006200000000003C
:100D20000000000000610000000000000000000062
:100D300060000000000000000000005F00320D278E
:100D40000D1C0D110D03550404003D0D456E676C1F
:100D500069736800000003AC0F00000000B40000DD
:100D60000002450D000000002100000004260440A0
:100D700000000096000000044C0400000000BB00CE
:100D80000000044D0400000000BC000000042E041C
:100D90000000000090000000042A04000000008F02
:100DA000000000042B04000000008E000000042C52
:100DB00004000000008D0000000429040000000071
:100DC0008C00000004130400000000560000000422
:100DD00016040000000052000000040E0400000091
:100DE0000037000000040D04000000003600000081
:100DF000040A0400000000320000000000000000AF
:100E000000008900000000000000000000880000D1
:100E1000000000000000000086000000000000004C
:100E200000000085004C0D03A42600000000000017
:100E3000000004D004000000002201000004CF04E0
:100E40000000000028010000010000000000002157
:100E5000010000038204000000000A010000038179
:100E600004000000003F00000003800400000000B8
:100E70003E000000037F04000000003D000000036E
:100E80007E04000000003C001616A0145F0D540DF7
:100E90009A0F1616B70DAC0DA10D960D8B0D800D8A
:100EA000750D4C11411136112B11201115110A111C
:100EB0006A0DFF101616CD0DC20D1616EE0DE30DC0
:100EC000D80D040EF90D1A0E0F0E1616250E460E2D
:100ED00016163B0E300E16167D0E720E670E5C0E49
:100EE000510E0200000500880E0200001100920E53
:100EF0000200000300B40E0200000400BA0E035802
:100F0000040200C20E0320040200C60E020000020A
:100F100000CA0E0200000400CE0E0200000600D639
:100F20000E000002E20E00000000B5000000030702
:100F300004000000003B0000000306040000000065
:100F40003A00000002E90E000000000F000000025D
:100F5000F00E000000004E00000002F70E0000003E
:100F6000003900000002FE0E0000000087000000B3
:100F700002050F00000000840000000410040000BF
:100F800000008B000000020C0F00000000E40000D5
:100F90000003B40400000000D200000003D60400E7
:100FA0000000002901000003CA0400000000100135
:100FB000000003C904000000000F01000003B20498
:100FC00000000000D000000003C804000000001F63
:100FD00001000002130F0000000021010000021AAE
:100FE0000F000000001100000004BD04000010000C
:100FF000E300000003B90400001000E1000000035A
:10100000B80400001000E000000003B60400001067
:1010100000DF00000003B50400001000DE00000047
:1010200003BE0400001000DD00000003B704000050
:101030001000DC00000004B60F00000000090100F1
:101040000004B50F000000000801000004B40F0008
:101050000000000701000000000000000000F20096
:10106000000000000000000000AB000000000000D5
:101070000000000070000000000000000000006F91
:1010800000000003E803000000002D0100000388B9
:1010900013000000002C01000004F2030000000017
:1010A0002A01000001000000000000CB0016168499
:1010B0000F790F6E0F630F580F4D0F420FD0173778
:1010C0000F2C0F210F1616DC0FD10FC60FBB0FB060
:1010D0000FA50F9A0F8F0F161629101E1013100848
:1010E00010FD0FF20FE70F16164A103F103410765E
:1010F000106B1060105510A21097108C108110000A
:1011000000042F04000000009B00000004220440A3
:1011100000000095000000042604200000009A0052
:1011200000000425042000000099000000042404AD
:101130002000000098000000042304200000009715
:101140000000000422042000000094000000042D90
:10115000040000000093000200000C00AD1002002B
:10116000000900C5100200000800D71002000004AA
:1011700000E71003F0030400EF108200000400F702
:101180001016164C11411136112B11201115110A90
:1011900011FF10000000000000000000130100001B
:1011A00000000000000000F400000000000000004B
:1011B00000001D01000000000000000000F400001D
:1011C00000025711000010000D000000025E110027
:1011D0000010000E01000002F018000000001000D6
:1011E000000002651100001000D900000002B118D3
:1011F000000010000F00000002AA18000010000EEE
:1012000000000004570410000000CA00000003B4EE
:101210000410000000D2000000045204100000007E
:101220007E00000004480410000000B1000000022D
:101230007A1110000000CB000000041F0410000011
:1012400000B0000000046104100000002400000051
:10125000046204100000002500000003C404140010
:1012600000004A000000034B041000040049000085
:101270000003C50410000400C900000002B81800F3
:101280000010000B000000000000000000001C0126
:101290000000000000000000001601000000000037
:1012A0000000000015010000000000000000001414
:1012B000010000000000000000001C010000000010
:1012C0000000000000160100000000000000000007
:1012D00015010000000000000000001401000000E3
:1012E000000000000000E00000000000000000001E
:1012F00000DA00000000000000000000DF00000035
:1013000000000000000000DA000000000000000003
:101310000000E100000000000000000000DA000012
:101320000000000000000000DE00000000000000DF
:10133000000000DA00000000000000000000DD00F6
:10134000000000000000000000DA000000000000C3
:1013500000000000DC00000000000000000000DAD7
:1013600000000003E803000000002D01000003D787
:1013700004000000002C01000004D804000000005C
:101380002B01000001000000000000290100000006
:10139000000000000000CF0000000000000000007E
:1013A00000CE00000000000000000000CD000000A2
:1013B00000000000000000CC000000026C110000E2
:1013C00000000601000004B30400000000D100008A
:1013D0000002D418000000002100000002DB180009
:1013E0000000001F00000002E218000000001D00C5
:1013F0000000034404000000002E000000027311EE
:101400000000000023000000033A04000000002850
:1014100000000004620400000000250000000461D8
:101420000400000000240000000336040000000057
:10143000C6000000034304000010001C000000036D
:101440003104000010001B000000033804000000FD
:10145000001A00000003470400000000180000000C
:101460000337040000000017000000027A1100009A
:101470000000CB000000045204000000007E0000C9
:101480000004480400000000B1000000041F040034
:10149000000000B000000004570400000000CA0073
:1014A000000003FD03000010001300000000000016
:1014B000000000006E000000000000000000006D51
:1014C000000000000000000000006C0000000000B0
:1014D00000000000006B00000000000000000000A1
:1014E0006A00000000000000000000690000000029
:1014F0000000000000006800000000000000000084
:10150000006700000000000000000000660000000E
:101510000000000000000065000000000000000066
:1015200000006400000000000000000000630000F4
:101530000000000000000000620000000000000049
:1015400000000061000000000000000000006000DA
:101550000000000000000000005F0000000000002C
:10156000000000005E000000000000000000005DC0
:10157000000000000000000000005C00000000000F
:1015800000000000005B0000000000000000000000
:101590005A00000000000000000000590000000098
:1015A00000000000000058000000000000000000E3
:1015B000005700000003C6241000000003000000D4
:1015C00003E8030000000004000000010000000028
:1015D0000000F400000001000000000000C900004D
:1015E0000003F403010002004D00000002E91802AC
:1015F000000000C900000003F703060000004A00D5
:10160000000003F603020004004900000003F50394
:10161000010002004800000003E803000000000A87
:1016200000000000000000000000A8000000000012
:101630000000000000A70000000000000000000003
:10164000A600000000000000000000A5000000004F
:101650000000000000001301000000000000000076
:1016600000F4000000000000000000002001000065
:1016700000000000000000F40002000009008111D9
:10168000B411A9119E11931116167A126F126412D9
:1016900059124E12431238122D12221217120C1226
:1016A00001120B16F611EB11E011D511CA11BF1181
:1016B000A6129B1290128512D212C712BC12B1123E
:1016C000E812DD12FE12F312141309132A131F136A
:1016D0004013351356134B13821377136C13611396
:1016E000AE13A31398138D131616A014E513DA1373
:1016F000CF13FB13C413B91316161C1411140614BC
:10170000FB13F0131616A01495148A147F14741486
:1017100069145E14531448143D1432142714CC1465
:10172000C114B614AB14F814ED14E214D714241534
:1017300019150E150315501545153A152F157C155D
:10174000711566155B15A8159D1592158715D4158D
:10175000C915BE15B31516160B160016F515EA15A4
:10176000DF1516162C162116421637166E1663163E
:1017700058164D165A20636F7272656374696F6EE6
:1017800020656E61626C6564005265717565737485
:1017900050617573653A0052657175657374436F76
:1017A0006E74696E75653A00005344207072696EFC
:1017B000742073746F70706564206279207573652E
:1017C000722E000044656275674C6576656C3A0060
:1017D000000002791600000000A20005CC040400FD
:1017E00080162F2F20616374696F6E3A726573756E
:1017F0006D65000200001400881605CE040400B0D8
:101800001605CD040400B8160310270200C0160305
:1018100010270200C4160310270200C81603102761
:101820000200CC160310270200D016031027020076
:10183000D4168200000400D816454550524F4D2062
:1018400075706461746564005072696E74657220AD
:101850006865696768743A000588130400E0162F0C
:101860002F20616374696F6E3A70617573650069EA
:101870006D706F7274616E743A2046696C616D654B
:101880006E74206368616E67652072657175697238
:10189000656421004A616D20636F6E74726F6C2005
:1018A00064697361626C65643A000200000800E8D4
:1018B000160200000600F8160200000D00041703CF
:1018C000FC0304001E1703FB030400261703FA039E
:1018D00004002E1703EF030400361703EE03040081
:1018E0003E1703ED030400461702000004004E17E4
:1018F00002000006005617010000010062170310E5
:1019000027020064170310270200681705CC04049F
:10191000006C17250E536F667477617265205265EF
:10192000736574005761746368646F6720526573F0
:1019300065740042726F776E206F75742052657304
:1019400065740045787465726E616C2052657365CC
:101950007400506F776572557000110A0411040A03
:101960001111001C1F11111F0000040A0A0A0E1F8A
:101970001F0E001F1111111F0000001F1F1F1F1F2E
:101980000000040A040000000000040E1504040412
:101990001C0042696C6C20426169277320416E799A
:1019A000437562696300416E794375626963204BD8
:1019B0006F7373656C20506C75730052657065743D
:1019C00069657220312E302E30646576007A446964
:1019D00073746F7274696F6E436F7272656374694A
:1019E0006F6E3A00467265652052414D3A008200A2
:1019F00000010013194E65656473206C616E677594
:101A00006167652073656C656374696F6E007374DC
:101A10006172740077616974002061745A3A0043FE
:101A2000757272656E745A3A0050726F62696E67B1
:101A3000206861642072657475726E6564206572D9
:101A4000726F7273202D206175746F6C6576656C92
:101A5000696E672063616E63656C65642E00417515
:101A6000746F6C6576656C206D6174726978207234
:101A7000657365740050726F746F636F6C20766568
:101A80007273696F6E206368616E6765642C207580
:101A90007067726164696E67005472616E73666F1D
:101AA000726D6174696F6E206D61747269783A004D
:101AB000446574656374656420454550524F4D20FC
:101AC00076657273696F6E3A0065787472756465D5
:101AD0007220636F6F6C6572207370656564205B44
:101AE000302D3235355D0064697374616E63652035
:101AF000746F2072657472616374207768656E20FC
:101B000068656174696E67205B6D6D5D0074656DFD
:101B1000702E20666F722072657472616374696FD3
:101B20006E207768656E2068656174696E67205BFA
:101B3000435D0074656D702E2073746162696C6919
:101B40007A652074696D65205B735D005A2D6F6640
:101B500066736574205B73746570735D00592D6FD7
:101B60006666736574205B73746570735D00582DD1
:101B70006F6666736574205B73746570735D005087
:101B80004944206D61782076616C7565205B302D4D
:101B90003235355D0050494420442D6761696E003F
:101BA00050494420492D6761696E005049442050D6
:101BB0002D6761696E2F646561642D74696D6500C0
:101BC000504944206472697665206D696E00504901
:101BD00044206472697665206D617800686561747F
:101BE000206D616E61676572205B302D335D005042
:101BF0007265686561742074656D702E205BB043FA
:101C00005D00616363656C65726174696F6E205B12
:101C10006D6D2F735E325D00737461727420666542
:101C2000656472617465205B6D6D2F735D006D611D
:101C3000782E206665656472617465205B6D6D2F1A
:101C4000735D00737465707320706572206D6D0034
:101C500052657472616374696F6E20756E646F2073
:101C6000737065656400457874726120657874727C
:101C70007573696F6E206F6E20756E646F2072656C
:101C80007472616374205B6D6D5D00526574726186
:101C90006374696F6E207A2D6C696674205B6D6D5C
:101CA0005D0052657472616374696F6E2073706554
:101CB0006564205B6D6D2F735D00526574726163A6
:101CC00074696F6E206C656E677468205B6D6D5D06
:101CD00000456E61626C652072657472616374693F
:101CE0006F6E20636F6E76657273696F6E205B3006
:101CF0002F315D0042656420504944206D61782099
:101D000076616C7565205B302D3235355D0042653E
:101D1000642050494420442D6761696E0042656427
:101D20002050494420492D6761696E004265642056
:101D300050494420502D6761696E0042656420500F
:101D40004944206472697665206D696E004265645D
:101D500020504944206472697665206D61780042A4
:101D600065642048656174204D616E61676572200D
:101D70005B302D335D00426564205072656865619B
:101D8000742074656D702E205BB0435D00417574E6
:101D90006F6C6576656C20616374697665202831A7
:101DA0002F3029005A2D70726F62652062656E6453
:101DB000696E6720636F7272656374696F6E20432A
:101DC000205B6D6D5D005A2D70726F6265206265DB
:101DD0006E64696E6720636F7272656374696F6E9B
:101DE0002042205B6D6D5D005A2D70726F62652020
:101DF00062656E64696E6720636F72726563746991
:101E00006F6E2041205B6D6D5D005A2D70726F62A8
:101E100065205933205B6D6D5D005A2D70726F62C5
:101E200065205833205B6D6D5D005A2D70726F62B6
:101E300065205932205B6D6D5D005A2D70726F62A6
:101E400065205832205B6D6D5D005A2D70726F6297
:101E500065205931205B6D6D5D005A2D70726F6287
:101E600065205831205B6D6D5D005A2D70726F6278
:101E700065206F66667365742079205B6D6D5D000B
:101E80005A2D70726F6265206F6666736574207874
:101E9000205B6D6D5D005A2D70726F626520782D2C
:101EA000792D7370656564205B6D6D2F735D005ACD
:101EB0002D70726F6265207370656564205B6D6D57
:101EC0002F735D004D61782E207A2D70726F6265E0
:101ED000202D2062656420646973742E205B6D6D13
:101EE0005D005A2D70726F6265206865696768745D
:101EF000205B6D6D5D00436F6174696E672074686F
:101F000069636B6E657373205B6D6D5D00436F720B
:101F1000722E20646961676F6E616C2043205B6D77
:101F20006D5D00436F72722E20646961676F6E6130
:101F30006C2042205B6D6D5D00436F72722E2064D9
:101F40006961676F6E616C2041205B6D6D5D00445F
:101F5000656C74612052616469757320432830296F
:101F60003A0044656C746120526164697573204263
:101F70002830293A0044656C7461205261646975A7
:101F80007320412830293A00416C70686120432851
:101F90003930293A00416C7068612042283333306F
:101FA000293A00416C706861204128323130293A69
:101FB00000546F776572205A20656E6473746F7079
:101FC000206F6666736574205B73746570735D0063
:101FD000546F776572205920656E6473746F70203A
:101FE0006F6666736574205B73746570735D00540F
:101FF0006F776572205820656E6473746F70206F00
:102000006666736574205B73746570735D004D6103
:1020100078207072696E7461626C652072616469A7
:102020007573205B6D6D5D00486F72697A6F6E74B9
:10203000616C20726F6420726164697573206174D1
:1020400020302C30205B6D6D5D00446961676F6EE0
:10205000616C20726F64206C656E677468205B6DC4
:102060006D5D0054726176656C20616363656C65BB
:10207000726174696F6E205B6D6D2F735E325D00EF
:10208000416363656C65726174696F6E205B6D6D31
:102090002F735E325D005365676D656E74732F73C9
:1020A00020666F72207072696E74696E6700536586
:1020B000676D656E74732F7320666F722074726122
:1020C00076656C005A206D6178206C656E67746867
:1020D000205B6D6D5D0059206D6178206C656E67C9
:1020E0007468205B6D6D5D0058206D6178206C65B3
:1020F0006E677468205B6D6D5D005A206D696E209F
:10210000706F73205B6D6D5D0059206D696E20707E
:102110006F73205B6D6D5D0058206D696E20706F70
:1021200073205B6D6D5D004D61782E206A65726B6A
:10213000205B6D6D2F735D00486F6D696E67206663
:1021400065656472617465205B6D6D2F735D004D14
:1021500061782E206665656472617465205B6D6DC3
:102160002F735D00537465707320706572206D6D00
:102170000053746F702073746570706572206166AF
:1021800074657220696E6163746976697479205B25
:102190006D732C303D6F66665D004D61782E206951
:1021A0006E6163746976652074696D65205B6D731B
:1021B0002C303D6F66665D005072696E74657220EA
:1021C000616374697665205B735D0046696C616D5F
:1021D000656E74207072696E746564205B6D5D005D
:1021E0004261756472617465004C616E6775616708
:1021F00065004550523A3220004550523A31200095
:10220000496E76616C696420617263005265736522
:102210007474696E67205A20636F727265637469A3
:102220006F6E00582028412920746F7765722066F0
:102230006C6F6F722073657420746F3A20005920A0
:1022400028422920746F77657220666C6F6F722048
:1022500073657420746F3A20005A20284329207433
:102260006F77657220666C6F6F722073657420746F
:102270006F3A2000506F7346726F6D5374657073C0
:102280003A002C00436F6D7044656C74613A0054E1
:102290006F77657220333A00546F77657220323A57
:1022A00000546F77657220313A0043616C69627245
:1022B0006174696F6E206D6F76656D656E742069EF
:1022C00073206C696D6974656420746F2031306DA2
:1022D0006D2E004669727374206D6F766520746F81
:1022E00020746F75636820617420782C793D302CE0
:1022F0003020746F206175746F2D73657420726166
:10230000646975732E0043616C6962726174696FF0
:102310006E206D6F76656D656E74206973206C69D3
:102320006D6974656420746F2031306D6D2E0043CB
:10233000616E6E6F74207365742072616469757369
:1023400020616E6420666C6F6F722061742073610F
:102350006D652074696D652E0043616C6962726100
:1023600074696F6E20636F6465206973206C696D9A
:102370006974656420746F20626F74746F6D2031AE
:102380003025206F66205A2068656967687400529E
:10239000656C617469766520706F736974696F6EBE
:1023A000696E67004162736F6C75746520706F733E
:1023B0006974696F6E696E6700596F75206E656527
:1023C0006420746F20646566696E6520582C2059FE
:1023D00020616E64205A20746F2073657420612020
:1023E000706F696E742100473332206C6576656CBE
:1023F000696E67206661696C65642100473330202F
:1024000070726F62696E67206661696C6564210035
:10241000473239206C6576656C696E672066616944
:102420006C656421005265736574205A2068656983
:10243000676874005A2D70726F62652061766572EC
:10244000616765206865696768743A0065786563E7
:1024500075746547436F6465202F207175657565D8
:1024600044656C74614D6F76652072657475726E2B
:1024700073206572726F7200556E6B6E6F776E208F
:10248000636F6D6D616E643A00446F6E65207072AB
:10249000696E74696E672066696C65000000420FA2
:1024A000A1071605D0030D038B022E02E801B2012D
:1024B0008601630145012C0117010401F4000000AD
:1024C000000000000000000000000000000024F4F4
:1024D00003D950C38EB1C2A23D96828B3582127A47
:1024E000E372816CCB66A861015DC758EB54615102
:1024F000204E1E4B5648C14559431A41013F093DE4
:102500002F3B7139CD374036C93465331432D4305E
:10251000A32F802E6B2D632C672B752A8E29B02854
:10252000DC2710274B268F25D9242B248223E02259
:102530004322AC211A218D200420801F001F841EFD
:102540000C1E971D261DB81C4E1CE61B821B201B53
:10255000C11A641A0A1AB2195D190A19B9186A1847
:102560001C18D11788174017FA16B51673163116AE
:10257000F115B31576153A150015C7148F145814B4
:102580002214EE13BA13881356132513F612C7122A
:1025900099126C1240121512EB11C11198117011A1
:1025A00048112111FB10D610B1108D106910461082
:1025B00024100210E10FC00FA00F800F610F420F17
:1025C000230F060FE80ECB0EAF0E930E770E5C0EA8
:1025D000410E270E0D0EF30DDA0DC10DA80D900D55
:1025E000780D600D490D320D1B0D050DEF0CD90C4A
:1025F000C30CAE0C990C850C700C5C0C480C350CA3
:10260000210C0E0CFB0BE80BD60BC40BB20BA00B72
:102610008E0B7D0B6B0B5A0B4A0B390B290B180BCE
:10262000080BF80AE90AD90ACA0ABB0AAC0A9D0AC9
:102630008E0A800A710A630A550A470A390A2C0A67
:102640001E0A110A040AF709EA09DD09D009C409BA
:10265000B709AB099F09920987097B096F096309CB
:1026600058094C09410936092B09200915090A099D
:102670000009F508EB08E008D608CC08C208B8083D
:10268000AE08A4089A08900887087D0874086B08AB
:10269000610858084F0846083D0834082C082308EC
:1026A0001A08120809080108F807F007E807E00708
:1026B000D807D007C807C007B807B007A807A10701
:1026C000424C4B20002500F00F2C00A00F3300508F
:1026D0000F3A00000F4300B00E4D00600E5800107E
:1026E0000E6300C00D7000700D7E00200D9000D0B4
:1026F0000CA300800CB900300CD200E00BF000906D
:102700000B1101400B3701F00A6301A00A98015038
:102710000AD601000A1E02B0096F026009D0021039
:10272000094003C008C103700854042008FC04D009
:1027300007B70580078C0630076807E00655089044
:10274000064E0940064B0AF005320BA005140C504A
:1027500005D80C00058C0DB004180E60048F0E1007
:1027600004F00EC0033A0F7003730F2003BD0F80F7
:1027700002DC0F0802E90FB801F20F6801F80F1828
:1027800001FC0FC800FF0F00004800901A4800A08D
:102790000F5800000F6C00600E8400C00DA40020D4
:1027A0000DD000800C1001E00B5801400BC001A0BF
:1027B0000A4C02000A08036009F803C00828052033
:1027C00008B00680075408E006180A4006C80BA0A7
:1027D00005300D0005400E6004FC0EC003740F2090
:1027E00003BC0F8002E00FE001F40FF000FB0FC804
:1027F00000FC0FA0000400501D7C00D009A40010B4
:1028000009CC008008F40010081C01B807440168D6
:10281000076C0128079401E806BC01B806E40188AA
:10282000060C026006340238065C0218068402F0C8
:1028300005AC02D805D402B805FC02980524038033
:102840000574035005C4032805140400056404D866
:1028500004B404B0042C058004A40558041C062804
:1028600004940600040C07D803AC07A8034C0878AE
:1028700003EC0848038C092003A40AD0021C0BA80F
:1028800002AC0C2802FC0C0802C40DB801140E980E
:1028900001B40E38012C0FE000540FB8007C0F88F3
:1028A00000A40F4800F40F28FFFC0FC0F90000003F
:1028B000008C030800AE035000D603A000F703F01D
:1028C0000018044001380490015904E0017A0430F2
:1028D000029A048002BB04D002FC0470032605C0E7
:1028E00003860630079709A00F750D201C520E4075
:1028F0001F1F0F6022FF0F803E0400081D9000582C
:10290000091C01B007A801C80634023006C002C085
:10291000054C036805D80318056404D004F0049836
:10292000047C05600408063004940600042007D0E7
:1029300003AC07A80338088003C4085803500930C3
:1029400003DC090803680AD802F40AB002800B8885
:10295000020C0C6002980C3002240DF801B00DC07E
:10296000013C0E8001C80E3001540FB800B40F288E
:1029700000E00F00000400401D900060091C01B041
:1029800007A801D00634023806C002C8054C036807
:1029900005D80318056404D804F00498047C056085
:1029A0000408063004940600042007D003AC07A8EE
:1029B0000338088003C408580350093003DC0908B1
:1029C00003680AE002F40AB802800B88020C0C606B
:1029D00002980C3002240DF801B00DC0013C0E80AD
:1029E00001C80E3001540FB800B40F2800E00F00EA
:1029F0000004000016D800C006AC0178058002C0B3
:102A000004540348042804E803FC049803D0055048
:102A100003A40618037807D8024C08A802200970FE
:102A200002F4093802C80A08029C0BD001700C900D
:102A300001440D5001180EF800EC0E8800C00F0084
:102A4000000400681D4C00500B94005809DC005035
:102A5000082401A8076C012807B401C006FC017016
:102A600006440228068C02F005D402B8051C03882F
:102A70000564035805AC033005F40310053C04E875
:102A8000048404C804CC04A804140590045C0570F4
:102A900004A4055804EC053804340620047C060818
:102AA00004C406F0030C07D8035407C8039C07B0FE
:102AB00003E40798032C08800374087003BC0858CB
:102AC00003040948034C09300394091803DC09087E
:102AD00003240AF0026C0AE002B40AC802FC0AB03D
:102AE00002440BA0028C0B8802D40B70021C0C5801
:102AF00002640C4002AC0C2802F40C10023C0DF0F5
:102B000001840DD801CC0DB801140E98015C0E7033
:102B100001A40E4801EC0E1801340FD8007C0F8878
:102B200000C40F0800FC0F000000000000000000BF
:102B30000000000000000000000000000000000095
:102B40000000000000000000000000000000004045
:102B50001F450060094F0010095C00C0086B007041
:102B6000087D0020089200D007AC008007CC003020
:102B700007DE00E006230190065E014006A601F094
:102B800005FF01A0056D025005F30200059603B094
:102B9000045A046004400510044806C0036E077020
:102BA00003A8082003EB09D002230B8002410C305C
:102BB00002390DE001040E9001A20E4001170FF042
:102BC00000690FA000A20F5000C60F0000DD0FB07B
:102BD000FFEB0F60FF0400700DD8004804AC0158F3
:102BE000038002D8025403800228043802FC040047
:102BF00002D005C801A4069801780770014C084866
:102C00000120091801F409F000C80AC8009C0BA0B3
:102C100000700C7000440D3800180E0000EC0EA877
:102C2000FFC00FE8FE0400001B54006009640010A0
:102C3000097400C008840070089C002008B800D007
:102C400007D8008007000130072C01E006680190DA
:102C500006AC0140060002F0056802A005E0025043
:102C600005740300052404B004F0046004DC0510BE
:102C700004E406C0030408700330092003780B80C5
:102C800002600DE001A80E4001680FA000C00F0017
:102C900000E80F60FF0400801AD8009808AC0120FB
:102CA00007800250065403C80528045805FC040098
:102CB00005D005B004A4066804780728044C08E889
:102CC000032009B003F4097003C80A38039C0BF809
:102CD00002700CB002440D6802180E0802EC0E8857
:102CE00001C00F8800F00F00000000A00F5C006022
:102CF00009690010097900C0088C007008A2002042
:102D000008BD00D007DE008007050130073401E070
:102D1000066D019006B20140060702F0056D02A0A3
:102D200005E80250057B0300052B04B004F804609D
:102D300004EB06C003350920037F0B8002650DE01C
:102D400001B00E40011D0FF000480FC8006C0FA02D
:102D500000ED0F60FFFE0F48FEE92C952C252CD5C9
:102D60002B0000000000004D2B412AF1297529F9A4
:102D700028AD28F5278927C5261C151C140000003E
:102D80002243141F1F132E1B315072696E7465721B
:102D90002073657420696E746F2064727920727577
:102DA0006E206D6F646520756E74696C207265733A
:102DB000746172742100206D61726B6564206465BA
:102DC000636F75706C656400206D61726B65642063
:102DD000646566656374003A20776F726B696E672D
:102DE000003A2074656D702073656E736F72206495
:102DF0006566656374006578747275646572200039
:102E00006865617465642062656400526573656E0F
:102E1000643A00627573793A70726F6365737369AF
:102E20006E6700446F6F72206F70656E006275731D
:102E3000793A646F6F72206F70656E006275737996
:102E40003A68656174696E6700627573793A70619A
:102E50007573656420666F72207573657220696E84
:102E6000746572616374696F6E006F6B2000206718
:102E70006F7420004572726F723A65787065637482
:102E80006564206C696E652000736B697020006F4B
:102E90006B00466F726D6174206572726F720057BD
:102EA000726F6E6720636865636B73756D000000F9
:102EB0002020203F2E3F3F0020486F6D696E670045
:102EC0002064656320002064656620000300040020
:102ED00020005859206A65726B2077617320746FE7
:102EE0006F206C6F772C2073657474696E67207423
:102EF0006F20005344206361726420696E736572B1
:102F000074656400534420636172642072656D6F60
:102F100076656400432068697420666C6F6F720088
:102F200043706F7320782073717561726520004360
:102F3000706F732078207374657073200043706F16
:102F400073207920737175617265200043706F730F
:102F500020792073746570732000422068697420A2
:102F6000666C6F6F720042706F732078207371759A
:102F7000617265200042706F7320782073746570F1
:102F800073200042706F73207920737175617265D0
:102F9000200042706F732079207374657073200075
:102FA000412068697420666C6F6F720041706F73A6
:102FB000207820737175617265200041706F7320F5
:102FC00078207374657073200041706F73207920CE
:102FD000737175617265200041706F732079207381
:102FE0007465707320005A2D70726F62652073745F
:102FF0006174653A007A5F6D61783A004C20004850
:103000002000795F6D61783A00785F6D61783A00F1
:10301000656E6473746F7073206869743A20005031
:1030200072696E7465724D6F64653A434E43005029
:1030300072696E7465724D6F64653A4C6173657246
:10304000005072696E7465724D6F64653A4646460B
:1030500000002C2000446973746F7274696F6E20D5
:10306000636F7272656374696F6E206D61747269EB
:10307000783A0053746F7070696E67206469737476
:103080006F7274696F6E206D6561737572656D65C1
:103090006E742064756520746F206572726F727330
:1030A0002E005265666572656E6365205A20666FF4
:1030B00072206D6561737572656D656E743A004757
:1030C0003333206661696C656421005265717565F2
:1030D000737453746F703A007C3C3E5E2B3D3F2FFF
:1030E0005B5D3B2C2A225C008025000040380000FC
:1030F000004B00008070000000960000C0DA000065
:1031000000E10000002C010008B2010000C2010033
:1031100000F401000084030090D0030000E80300E5
:103120000008070020A1070000100E0040420F0019
:1031300060E31600000000006D6F766552656C61FB
:103140007469766544697374616E6365496E53741E
:10315000657073202F20717565756544656C7461A9
:103160004D6F76652072657475726E73206572722C
:103170006F7200446F6E6520736176696E672066BA
:10318000696C652E004563686F3A0000494E460041
:103190004E414E005A20636F7272656374696F6EA0
:1031A0002064697361626C65640046696C652073B4
:1031B000656C6563746564002053697A653A0046FE
:1031C000696C65206F70656E65643A0066696C6550
:1031D0002E6F70656E206661696C6564000000008A
:1031E000000000000000F1000000000000000000EE
:1031F00000C400000000000000000000F00000001B
:1032000000000000000000C30000000000000000FB
:103210000000F300000000000000000000F40000C7
:103220000000000000000000AF00000000000000EF
:10323000000000AC00000000000000000000F300EF
:103240000000000000000000005F0000000000001F
:10325000000000005B0000000000000000000057BC
:1032600000000000000000000000F300000000006B
:103270000000000000EE0000000000000000000060
:10328000ED00000000000000000000EB00FE31F344
:1032900031E831DD312A321F321432093256324BD5
:1032A0003240323532823277326C32613200000085
:1032B00004008D320000000400953200000004007C
:1032C0009D320000000400A53200002100240027E8
:1032D000002A002D00300033000101000004010726
:1032E000010A01C232BB32B432AD32436F756C6435
:1032F000206E6F74206163746976617465207A2D25
:1033000070726F6265206F666673657420647565A0
:1033100020746F20636F6F7264696E6174652063DF
:103320006F6E73747261696E7473202D2072657391
:10333000756C7420697320696E6163637572617462
:103340006521002C200041637469766174696E67A1
:10335000207A2D70726F626520776F756C64206CB7
:1033600065616420746F20666F7262696464656E63
:1033700020787920706F736974696F6E3A20004D00
:103380003334302050302053373030004D33343018
:10339000205030205331353030005A2D50726F623A
:1033A00065206865696768742073657420746F3A76
:1033B00020002063203D20002062203D2000706C12
:1033C000616E653A2061203D200020453A00205A78
:1033D0003A00583A0053706565644D756C746970B5
:1033E0006C793A0046616E73706565643A00206DD1
:1033F000696E0020686F75727320002064617973B4
:1034000020005072696E74696E672074696D653A48
:10341000006D20005072696E7465642066696C618D
:103420006D656E743A0057726974696E6720746FC7
:103430002066696C653A20006F70656E2066616970
:103440006C65642C2046696C653A200044656C65A7
:1034500074696F6E206661696C65640046696C65AD
:103460002064656C65746564004372656174696F9E
:103470006E206661696C6564004469726563746F8F
:103480007279206372656174656400457874722E88
:10349000004550523A332000436F6E6669673A0028
:1034A0002044303A0020403A002042403A003A009E
:1034B00020524157002044423A0020423A00202F37
:1034C00000543A000000000000000000001C010051
:1034D0000000000000000000F400000000000000F8
:1034E0000000001B010000000000000000001701A8
:1034F0000000000000000000001C010000000000AF
:1035000000000000F4000000000000000000001AAD
:103510000100000000000000000017010000000092
:1035200000000000001C010000000000000000007E
:10353000F40000000000000000000019010000007D
:103540000000000000001701000000000000000063
:10355000001C01000000000000000000F40000005A
:103560000000000000000018010000000000000042
:1035700000001701E534DA34CF34C4341135063590
:10358000FB34F0343D35323527351C3569355E3531
:1035900053354835000000000000000000F700002F
:1035A0000000000000000000DA009F3594355761EC
:1035B000726E696E673A006D6F7665546F202F20CA
:1035C000717565756544656C74614D6F76652072C3
:1035D000657475726E73206572726F720005CB042C
:1035E0000400743505CB0404007C3505CB040400CD
:1035F000843505CB0404008C357A2D70726F6265BA
:1036000020646964206E6F7420756E7472696767D8
:10361000657220616674657220676F696E672062EB
:1036200061636B20746F20737461727420706F73A8
:103630006974696F6E2E00207A436F72723A0020AF
:10364000593A0020583A005A2D70726F62653A005C
:103650007A2D70726F626520646964206E6F7420C9
:10366000756E74726967676572206F6E207265701F
:1036700065746974697665206D6561737572656DD1
:10368000656E74202D206D6179626520796F7520DB
:103690006E65656420746F20696E63726561736521
:1036A0002064697374616E636521007A2D70726F96
:1036B000626520646964206E6F7420756E7472692F
:1036C00067676572206F6E207265706574697469D2
:1036D0007665206D6561737572656D656E74202DFC
:1036E000206D6179626520796F75206E6565642053
:1036F000746F20696E6372656173652064697374A9
:10370000616E636521005A2D70726F62652066617B
:10371000696C6564007A2D70726F626520747269DD
:10372000676765726564206265666F726520737491
:10373000617274696E672070726F62696E672E00C5
:103740000310270200AA35004550523A30200048A5
:1037500065617465722F73656E736F72206661693F
:103760006C7572650044697361626C696E67206193
:103770006C6C206865617465727320647565207473
:103780006F2064657465637465642073656E736F20
:1037900072206465666563742E00206465672E2060
:1037A0004300206D65617375726564200045727217
:1037B0006F723A436F756C64206E6F7420686F6C23
:1037C000642074656D706572617475726520002087
:1037D0006D730020616674657220004572726F72AD
:1037E0003A54656D702E2072616973656420746F40
:1037F00020736C6F772E2052697365203D20004F37
:103800006E6520686561746572207365656D7320EF
:103810006465636F75706C65642066726F6D20748B
:103820006865726D6973746F72202D2064697361AD
:10383000626C696E6720616C6C20666F72207361C8
:1038400066657479210048656174657220646563FA
:103850006F75706C656400486561746564206265AD
:1038600064206578636565646564206D61782074A3
:10387000656D7065726174757265210000000000ED
:1038800000000000000000010000FF000D0E546168
:10389000726765744265643A005461726765744585
:1038A00078747200205A00205900473333205800A2
:1038B0002F00534420696E6974206661696C0000B2
:1038C0006572726F722077726974696E6720746FA7
:1038D0002066696C6500504944204175746F7475A9
:1038E0006E652066696E6973686564202120506C7E
:1038F00061636520746865204B702C204B692061E2
:103900006E64204B6420636F6E7374616E747320F9
:10391000696E2074686520436F6E666967757261B1
:1039200074696F6E2E68206F7220454550524F4D5E
:1039300000204F00204C00204B002042002041007E
:10394000204800204300204400205200204A00204C
:103950004900205000205300204600204500205AF6
:1039600000205900205800205072696E7465722042
:1039700073746F7070656420616E64206865617433
:103980006572732064697361626C65642064756537
:1039900020746F2074686973206572726F722E20B4
:1039A000466978206572726F7220616E642072655C
:1039B00073746172742077697468204D3939392EB7
:1039C00000666174616C3A005344206572726F72D4
:1039D00020646964206E6F74207265636F7665720F
:1039E00021005344206572726F72206669786564A5
:1039F0000053442052656164204572726F72005317
:103A0000442072656164206572726F720045727243
:103A10006F723A00436F6E66696775726174696FA1
:103A20006E20726573657420746F206465666175BD
:103A30006C74732E0000FF0200002000230026009B
:103A400029002C002F0032000001000003010601B4
:103A5000090100002200250028002B002E00310063
:103A6000340002010000050108010B0105050505F0
:103A7000070508080808020202020A0A08080404E6
:103A80000404010101010101010103030303030314
:103A90000303040707070C0C0C0C0C0C0C0C0202A3
:103AA000020206060606060606060B0B0B0B0B0BA0
:103AB0000B0B01021020200808102040102040802D
:103AC00002010201080402010102040810204080E2
:103AD0008040201008040201800402018040201070
:103AE00008040201080402010102040810204080B9
:103AF000010204081020408000000A0B02090C0D8E
:103B00000E08070304010000000000000000000090
:103B100000000000000000000000000000000000A5
:103B20000000000012111000000000000000000062
:103B30000000000000000000000000000000000085
:103B40002110422063308440A550C660E770088190
:103B500029914AA16BB18CC1ADD1CEE1EFF1311207
:103B6000100273325222B5529442F772D6623993E0
:103B700018837BB35AA3BDD39CC3FFF3DEE3622457
:103B8000433420040114E664C774A44485546AA530
:103B90004BB528850995EEE5CFF5ACC58DD55336E7
:103BA000722611163006D776F6669556B4465BB780
:103BB0007AA719973887DFF7FEE79DD7BCC7C448B7
:103BC000E5588668A7784008611802282338CCC9D0
:103BD000EDD98EE9AFF9488969990AA92BB9F55A47
:103BE000D44AB77A966A711A500A333A122AFDDB20
:103BF000DCCBBFFB9EEB799B588B3BBB1AABA66C17
:103C0000877CE44CC55C222C033C600C411CAEED6F
:103C10008FFDECCDCDDD2AAD0BBD688D499D977E26
:103C2000B66ED55EF44E133E322E511E700E9FFFBF
:103C3000BEEFDDDFFCCF1BBF3AAF599F788F889175
:103C4000A981CAB1EBA10CD12DC14EF16FE1801059
:103C5000A100C230E3200450254046706760B9835C
:103C60009893FBA3DAB33DC31CD37FE35EF3B102A9
:103C70009012F322D2323542145277625672EAB56C
:103C8000CBA5A89589856EF54FE52CD50DC5E234F9
:103C9000C324A01481046674476424540544DBA73C
:103CA000FAB79987B8975FE77EF71DC73CD7D32649
:103CB000F2369106B01657667676154634564CD9CC
:103CC0006DC90EF92FE9C899E9898AB9ABA9445899
:103CD000654806782768C018E1088238A3287DCB9C
:103CE0005CDB3FEB1EFBF98BD89BBBAB9ABB754AE9
:103CF000545A376A167AF10AD01AB32A923A2EFD2C
:103D00000FED6CDD4DCDAABD8BADE89DC98D267C38
:103D1000076C645C454CA23C832CE01CC10C1FEF7B
:103D20003EFF5DCF7CDF9BAFBABFD98FF89F176E88
:103D3000367E554E745E932EB23ED10EF01E00407C
:103D400014546D6F7665546F5265616C202F20712D
:103D50007565756544656C74614D6F766520726537
:103D60007475726E73206572726F7200207A3A00F9
:103D700020793A0020783A00496E76616C696420B7
:103D800064656C746120636F6F7264696E617465E1
:103D9000202D206D6F76652069676E6F72656400F7
:103DA0004E6F206D6F766520696E2064656C74615E
:103DB000207365676D656E742077697468203E2096
:103DC00031207365676D656E742E205468697320A9
:103DD00073686F756C64206E6576657220686170BB
:103DE00070656E20616E64206D617920636175730A
:103DF0006520612070726F626C656D2100696E20B4
:103E0000717565756544656C74614D6F7665207478
:103E10006F2063616C63756C61746544656C74617B
:103E20005375625365676D656E7473207265747542
:103E3000726E73206572726F722E005265717565B5
:103E4000737450617573653A486F6D696E6720666B
:103E500061696C65642100496E666F3A0041757452
:103E60006F6C6576656C696E672064697361626CFE
:103E70006564004175746F6C6576656C696E67206A
:103E8000656E61626C656400466C6F774D756C742D
:103E900069706C793A0053656C6563744578747227
:103EA000756465723A004D756C3A20256F6D252555
:103EB00025202020204C61733A256F702057004D3B
:103EC000756C3A20256F6D25252520202020537004
:103ED000693A256F7052504D20005A773A2578374D
:103EE0002020205A3A2578320059773A2578362012
:103EF0002020593A2578310058773A257835202006
:103F000020583A257830005374617274205A2D502D
:103F1000726F6265004D6561737572696E67202E00
:103F20002E2E005A2D4F66667365743A25587A0016
:103F3000436C6F736500436F6E74696E75650052F4
:103F400065616C205A20506F733A2557306D6D00B3
:103F500054656D702E202565632F2545630243004F
:103F60004D6561732E2050726F62652048656967E8
:103F7000687400426564202020203A202570620287
:103F80004300457874722E20363A2025703502435E
:103F900000457874722E20353A2025703402430093
:103FA000457874722E20343A202570330243004540
:103FB0007874722E20333A202570320243004578FF
:103FC00074722E20323A20257031024300457874F5
:103FD000722E20313A2025703002430050726568FD
:103FE0006561742054656D70657261747572657376
:103FF00000486F6D696E672E2E2E004175746F6CD0
:104000006576656C206265640043616C696272610B
:1040100074696F6E204572726F720043616C6962E1
:10402000726174696E672062656400202020203E02
:104030003E3E204F6B203C3C3C004C6576656C69F5
:104040006E67206572726F720046696C616D656E95
:104050007420736C697070696E670048656174657F
:1040600072206465636F75706C65640054656D7073
:104070002E2073656E736F722064656665637400CD
:104080004E6F74696669636174696F6E3A006F623E
:10409000737472756374696F6E730062656420690E
:1040A0007320636C656172206F6620616E79004DCC
:1040B000616B652073757265207468652068656141
:1040C000746564002A2A2A20506C65617365207724
:1040D000616974202A2A2A0043616E63656C004678
:1040E000616E20322073706565643A25465325253C
:1040F0002500446973746F7274696F6E20636F7208
:10410000722E3A254465004D6561737572652064B1
:104110006973746F7274696F6E00536574757000A3
:1041200025506E00255070252525004C617965725B
:104130002025506C2F25504C00456E6453746F70D1
:104140003A25647000536574205A206F6666736563
:10415000743A2554326D6D005365742059206F6692
:10416000667365743A2554316D6D0053657420583B
:10417000206F66667365743A2554306D6D00536523
:1041800074207072696E74206F6666736574730054
:104190005A2D70726F6265206865696768743A2588
:1041A0007A6800254433203320636F70696573009B
:1041B000254432203220636F7069657300254431D5
:1041C000203120636F707900254430204E6F2063CA
:1041D0006F70696573002558352053656C6563748D
:1041E00020657874722E2036002558342053656C73
:1041F00065637420657874722E203500255833204D
:1042000053656C65637420657874722E2034005495
:1042100075726E20657874722E2036206F66660087
:104220005475726E20657874722E2035206F666624
:10423000005475726E20657874722E2034206F667B
:10424000660054656D702E2036203A2565352F2581
:10425000453502430054656D702E2035203A2565A2
:10426000342F25453402430054656D702E203420D0
:104270003A2565332F254533024300202542436DFF
:104280006D00052565630200052565632F254563DF
:10429000020000256F7300255566206D207072693D
:1042A0006E74656400255566206D002555740058B0
:1042B0003A25783020593A257831004D756C3A20EE
:1042C000256F6D202020453A257834005A3A25780C
:1042D000322020427566203A20256F420042256533
:1042E000422F2545620200052565632F254563029F
:1042F000422565422F2545620200256F73004275F5
:10430000663A20256F42004D756C3A20256F6D2569
:10431000252520FD202020453A202578346D0046B3
:104320006C6F773AFD20256F662525252020205AC1
:104330003A257832000E202565622F254562B0208F
:10434000593A257831000A202565302F254530B0AF
:1043500020583A257830004C616E677561676500BA
:10436000437573746F6D3A2542436D6D00437573E9
:10437000746F6D00476C756520737469636B0047DB
:104380007265656E20504554207461706500426C02
:1043900075652070617065722074617065004B6195
:1043A00070746F6E004275696C6454616B004E6F7F
:1043B00020636F6174696E67000042656420636FFB
:1043C0006174696E672073657420746F0042656460
:1043D00020636F6174696E67005374616E64627903
:1043E000004578747275646572206A616D00746549
:1043F0006D706572617475726573202E2E2E005774
:1044000061697420666F72207461726765740065FB
:1044100078747275646572732E00436C69636B20E7
:10442000746F207265686561740049676E6F7265AC
:10443000204D31303620636D642025466900536578
:1044400072766F20706F732E3A20256F530041757E
:10445000746F6C6576656C3A20256C6C00436C69F2
:10446000636B207768656E20646F6E650066696CAB
:10447000616D656E742075702F646F776E00526F7A
:104480007461746520746F206D6F76650043686198
:104490006E67652066696C616D656E740043686166
:1044A0006E67652066696C616D656E74005A206286
:1044B000616279737465702E3A256F596D6D005382
:1044C000746F70205072696E7400536C6F77426124
:1044D0006E6700446561642074696D6500415458DD
:1044E00020706F776572206F6E2F6F666600707236
:1044F000696E7465640046696C616D656E742070E8
:1045000072696E746564005072696E74696E6720BA
:1045100074696D6500003A00206461797320005071
:1045200072696E7465722072656164792E005344FD
:10453000206361726420696E7365727465640053F0
:104540004420636172642072656D6F766564005704
:1045500061697420726574722E3A255855206D6D0C
:1045600000576169742074656D702E2025585402BF
:1045700043004C6576656C2064656C746100436132
:104580006C63756C617465206C6576656C696E67CB
:10459000005365742050330053657420503200532B
:1045A0006574205031005A2063616C69622E00539B
:1045B0006574205A3D30005265736574206D6561E5
:1045C000732E0053686F77206D6561732E00466C03
:1045D0006F77206D756C2E203A256F662525250096
:1045E0005370656564206D756C2E3A256F6D2525B9
:1045F000250020423A2565622F25456202437E252B
:104600006F620045333A2565322F25453202437EDD
:10461000256F320045323A2565312F254531024359
:104620007E256F310045313A2565302F2545300212
:10463000437E256F300020453A2565632F2545636D
:1046400002437E256F43004275666665723A256FA8
:10465000420055706C6F6164696E672E2E2E006C7F
:104660006F6164656420662E20454550524F4D00B1
:10467000436F6E66696775726174696F6E007374FB
:104680006F72656420696E20454550524F4D00435E
:104690006F6E66696775726174696F6E00537465D9
:1046A000707065722064697361626C6564004B6947
:1046B0006C6C65640048656174696E67206265644E
:1046C0000048656174696E67206578747275646509
:1046D0007200416374696F6E3A256C610050494401
:1046E0000042616E6742616E6700592D4F666673C6
:1046F00065743A25587900582D4F66667365743A8B
:1047000025587800504944204D61783A2558440096
:104710004472697665204D61783A25584D0044729F
:10472000697665204D696E3A25586D0050494420E0
:10473000443A2558640050494420493A25586900B4
:10474000436F6E74726F6C2050574D3A25584D0070
:104750004465616474696D653A2558700050494438
:1047600020503A25587000436F6E74726F6C3A2572
:10477000586800416476616E636520717561643AC2
:1047800025586100416476616E6365206C696E3AFC
:1047900025586C00537461622E54696D653A255832
:1047A0007700416363656C3A255841004D6178207C
:1047B00046523A2558460053746172742046523A64
:1047C0002558660053746570732F4D4D3A25536517
:1047D0000042617564726174653A256F63004765D4
:1047E0006E6572616C005B6D696E5D20303D4F6679
:1047F00066004469732E2061667465723A202569EB
:1048000070004D61782E20696E6163746976650071
:104810005B6D696E5D20303D4F6666004469732EA6
:104820002061667465723A2025697300537465705F
:1048300070657220696E6163746976650053657492
:104840002066616E2066756C6C005365742066612D
:104850006E203735252525005365742066616E204E
:104860003530252525005365742066616E2032356C
:10487000252525005475726E2066616E204F666690
:104880000046616E2073706565643A254673252580
:10489000250046616E207370656564004D696E3A4F
:1048A00025737A204D61783A25735A005A3A257853
:1048B00032206D6D004D696E3A257379204D617817
:1048C0003A25735900593A257831206D6D004D69AC
:1048D0006E3A257378204D61783A25735800583A1E
:1048E000257830206D6D004D696E3A25737A204D24
:1048F00061783A25735A005A3A257832206D6D0056
:104900004D696E3A257379204D61783A25735900C7
:10491000593A257831206D6D004D696E3A257378CE
:10492000204D61783A25735800583A257830206D2B
:104930006D003120636C69636B203D2031206D6D0B
:1049400000453A257833206D6D00004D6178206573
:104950006E6473746F703A25735A004D696E2065EA
:104960006E6473746F703A25737A005A3A25783200
:10497000206D6D00004D617820656E6473746F70FA
:104980003A257359004D696E20656E6473746F70BB
:104990003A25737900593A257831206D6D00004D24
:1049A000617820656E6473746F703A257358004D9A
:1049B000696E20656E6473746F703A257378005861
:1049C0003A257830206D6D00004D617820656E6469
:1049D00073746F703A25735A004D696E20656E646A
:1049E00073746F703A25737A005A3A257832206DC5
:1049F0006D2025647A25645A00004D617820656E2B
:104A00006473746F703A257359004D696E20656E3A
:104A10006473746F703A25737900593A25783120A0
:104A20006D6D2025647925645900004D61782065FD
:104A30006E6473746F703A257358004D696E20650B
:104A40006E6473746F703A25737800583A25783025
:104A5000206D6D2025647825645800486F6D653A97
:104A600025665A00486F6D65205A3A25665A0048F7
:104A70006F6D6520593A25665900486F6D6520585D
:104A80003A256658004D61783A25667A004D61787E
:104A9000205A3A25667A004D617820593A25667980
:104AA000004D617820583A25667800466565647245
:104AB0006174650044656C6574652066696C6500A9
:104AC0004D6F756E74206361726400556E6D6F7505
:104AD0006E74206361726400436F6E74696E7565F5
:104AE000207072696E740050617573652070726910
:104AF0006E74005072696E742066696C6500416E58
:104B00007469206F6F7A65004D6F766520616674F9
:104B100065723A254F61004D696E2E646973742089
:104B2000203A254F64004261636B736C2E20202075
:104B30003A254F6200526574726163742020203AF6
:104B4000254F7200254F32204F50532066617374F9
:104B500000254F31204F505320636C61737369639C
:104B600000254F30204F5053206F66660044727905
:104B70002072756E3A256464004572726F727320FC
:104B80003A25646500496E666F2020203A256469E5
:104B9000004563686F2020203A25646F004C6F61E8
:104BA0006420662E20454550524F4D0053746F725D
:104BB0006520746F20454550524F4D004163636539
:104BC0006C65726174696F6E005A2D4A65726B2054
:104BD0003A25614A004A65726B2020203A25616AB5
:104BE000004D6F76653A25615A004D6F7665205A03
:104BF000203A25615A004D6F76652059203A25618B
:104C000059004D6F76652058203A25615800507242
:104C1000696E743A25617A005072696E74205A3A4E
:104C200025617A005072696E7420593A25617900C5
:104C30005072696E7420583A25617800536574206B
:104C40004F726967696E002558322053656C656341
:104C50007420657874722E203300255831205365F6
:104C60006C65637420657874722E2032002558308C
:104C70002053656C65637420657874722E20310052
:104C80005475726E20657874722E2033206F6666BC
:104C9000005475726E20657874722E2032206F6613
:104CA00066005475726E20657874722E2031206F04
:104CB00066660054656D702E2033203A2565322FCC
:104CC00025453202430054656D702E2032203A256E
:104CD00065312F25453102430054656D702E20311A
:104CE000203A2565302F2545300243004265642077
:104CF00074656D703A2565622F2545620243004D4B
:104D00006F7665204578747275646572004D6F76B4
:104D100065205A2066617374004D6F7665205A00D5
:104D20004D6F766520592066617374004D6F76650E
:104D30002059004D6F766520582066617374004DD0
:104D40006F766520580044697361626C65207374E6
:104D500065707065720053657420746F206F72699E
:104D600067696E00436F6F6C646F776E004C6967A4
:104D70006874733A256C6F005072656865617420C1
:104D8000416C6C20457874722E00507265686561C4
:104D9000742053696E676C6520457874722E0048E4
:104DA0006F6D65205A00486F6D65205900486F6D22
:104DB00065205800486F6D6520616C6C00486F6D10
:104DC000652064656C746100446562756767696E2F
:104DD000670053442063617264004578747275649F
:104DE0006572004D6F76650053657474696E677304
:104DF00000256F6500436F6E74726F6C00426163D3
:104E00006B2001002A2A2A2A204552524F52202A7A
:104E10002A2A2A004E6F205344206361726400499D
:104E2000646C65005072696E74696E6700507269D7
:104E30006E74696E672E2E2E004E6F0059657300DA
:104E40004E2F41004F6666004F6E00484E444E4064
:104E50004E3C4E394E2D4E244E1F4E144E044EFDE8
:104E60004DF54DF14DE84DE34DDA4DD24DC84DBDF8
:104E70004DB44DAD4DA64D9F4D8A4D784D6D4D6451
:104E80004D564D464D3F4D334D2C4D204D194D0D3A
:104E90004DFF4CEC4CD94CC64CB34CA24C914C80C1
:104EA0004C6D4C5A4C474C3C4C304C244C184C0EDE
:104EB0004C024CF64BEA4BE14BD54BC94BBC4BACCF
:104EC0004B9D4B914B854B794B6D4B614B514B44FB
:104ED0004B354B264B174B084BFE4AF34AE74AD853
:104EE0004ACB4AC04AB44AAB4AA14A974A8D4A853E
:104EF0004A7A4A6F4A644A5B4A4B4A3B4A2B4A2ADF
:104F00004A1A4A0A4AFA49F949E949D949C949C8EC
:104F100049BF49AF499F499E49954985497549749B
:104F2000496B495B494B494A494149324929491929
:104F30004910490049F748E748DE48CE48C548B51A
:104F400048AC489C48924881487448664858484A4A
:104F5000483D482C481C4810480248F247E647DEC6
:104F600047D147C447B747AC47A2479447844773E4
:104F70004767475D475047404736472C471E471015
:104F8000470447F746EA46E146DD46D246C146B504
:104F900046AE469D468F467E4670465F4652464721
:104FA000463646254614460346F245E045CE45C3FF
:104FB00045B745AF45A6459F45984591457E457205
:104FC0004561454F453F452E451F4518451645153A
:104FD000450745F644EE44DD44D344CA44BF44ADDE
:104FE000449D448D447E446D445D444E443E442A79
:104FF000441A440F44FF43EE43E143D943CD43BA3F
:1050000043B943AE43A5439E438E437F4374436DF0
:105010004360435743464335431F430743FE42FA29
:1050200042E742DD42CC42BB42AF42AB42A542978F
:105030004293429242884282427B426842554242B7
:1050400042314220420F42FC41E941D641C841BDB4
:1050500041B041A34190417E416B415841454139A6
:10506000412B41244120411A410741F240DF40D801
:1050700040C440AF409B408E4080406C405B404904
:10508000403A402B401B400940FB3FF13FDC3FCD05
:105090003FBE3FAF3FA03F913F823F733F603F50D5
:1050A0003F3F3F363F303F233F153F073FF83EE944
:1050B0003EDA3EBF3EA63E4B4E0000000000000020
:1050C00000000000000000000000000000000000E0
:1050D00000003FCDCC4C3D0AD7A33B6F12033A4EA4
:1050E000414E494E495459494E46CDCCCC3D0AD744
:1050F000233C17B7D13877CC2B329595E6241FB1D6
:105100004F0A000020410000C84200401C4620BC5D
:10511000BE4CCA1B0E5AAEC59D74ED02E3021124AB
:105120001FBECFEFD1E2DEBFCDBF00E00CBF14E069
:10513000A0E0B2E0E6E6F2E903E00BBF02C00790B0
:105140000D92A432B107D9F72DE1A4E2B4E001C079
:105150001D92A33FB207E1F718E2CEE8D8E200E0E3
:1051600006C021970109802FFE010F94F4BFCD38AE
:10517000D10780E00807A9F70F9489A70D9421C9EA
:105180000C9400002F923F924F925F926F927F9209
:105190008F929F92AF92BF92CF92DF92EF92FF9247
:1051A0000F931F93CF93DF93CDB7DEB7C857D109C5
:1051B0000FB6F894DEBF0FBECDBFDC0116962D9161
:1051C0003C9117972B3C310511F40C94723B8C01E8
:1051D0002C3C310508F489C02836B1E03B0709F4BE
:1051E00063C608F024C12232F1E03F0711F40C94A9
:1051F0008A3B08F0ECC1213D310511F40C94503F7D
:1052000008F42FC4223E310511F40C94BF3E08F07F
:1052100055C52C3D310511F40C94F13B2D3D310564
:1052200011F00C949735DC018D919C91119792FDB2
:1052300002C00C94AA405E968D919D910D90BC91F8
:10524000A02D8C018931910514F00C94D049812C4A
:10525000912C30E8A32E3EE3B32E49E1E42EF12C4D
:1052600009E110E0F0924005E0923F05E091690508
:10527000F0916A05E058FF4FC080D180E280F38052
:1052800020E030E0A901C701B6010F947AC71816D3
:1052900014F00C94C64920E030E040E850E4C50129
:1052A000B4010F94DFC74B015C01A7019601C70150
:1052B000B6010F94DFC72BED3FE049E450E40F94B3
:1052C000DFC79B01AC01C501B4010F94F0C060932E
:1052D0003F03709340038093410390934203B801CE
:1052E00088E89EE30F940E7EFEC32535310511F448
:1052F0000C94E63D08F4C1C02437310511F40C9438
:10530000003E08F4E4C02B39310511F40C947035DB
:1053100008F44EC2283C310511F40C94273508F0EE
:1053200037C52A3A310511F40C94643E2E3B310501
:1053300011F00C94973580911A0383FDD4C382EA4F
:1053400090E00F94488560E00F941F860F947818C2
:105350000F942D27F8018081918192FD02C00C9459
:10536000E74890FD02C00C942549FF24F39420E007
:1053700030E0A901628D738D848D958D0F943AC2B2
:10538000181614F00C942549D8015E966D917D9104
:105390008D919C9191970F9480C7F8012281338160
:1053A00032FD02C00C942049E25BFF4F2081318125
:1053B000428153810F9420C04F2D0E9438A3209129
:1053C0004E0230914F024091500250915102609133
:1053D0004A0270914B0280914C0290914D020F94C1
:1053E0001FC06B017C0120E030E0A9010F943AC29C
:1053F000181614F00C947F4820E030E040E450E4AC
:10540000C701B6010F947AC787FD6DC384E492E0AB
:105410000F9407A51092E0090E9454656093090655
:1054200070930A0680930B0690930C065CC322319E
:10543000F2E03F0711F40C94B53D08F018C1233C8D
:1054400051E0350711F40C946A3B08F408C2243F7C
:1054500041E0340711F40C94613B08F06BC4243C28
:1054600081E0380711F40C945C3E253C314011F08A
:105470000C9497350E9452D236C32B31310511F46A
:105480000C94AB3D08F415C12A32310511F40C948B
:10549000663610F40C942C342235310511F40C943A
:1054A000603E08F054C42035310511F40C94E936FF
:1054B0002135310511F00C9497350F942D27269A3C
:1054C0008091560B8F7B8093560B2E9A0CC32A36F5
:1054D000310511F40C945A4008F4D7C12F36310528
:1054E00011F40C941B4008F018C32B36310511F44D
:1054F0000C94D83F2D36310511F00C9497350E944D
:10550000F2A0D82E8111EFC20E9454656093090663
:1055100070930A0680930B0690930C0680911A03F1
:1055200083FDE1C20F942D27E0906905F0906A0594
:10553000D8014D915C9151FF0AC0F801EC5AFF4F20
:105540008081811104C065E9E62E62E0F62E52FDED
:1055500002C00C94B14850FF0FC0DD24D39420E06A
:1055600030E0A901F801628D738D848D958D0F94C3
:105570003AC218160CF0D12CD701FC90F801668DB8
:10558000778D80A191A10F9480C7D80112962D919B
:105590003C91139732FD02C00C949844F801E25BF1
:1055A000FF4F20813181428153810F9420C001E05F
:1055B0002D2D4F2D0F9422BC0E9454656093090637
:1055C00070930A0680930B0690930C068CC22134CC
:1055D00081E0380711F40C940A3E08F09FC02E3287
:1055E000A1E03A0711F40C94583310F40C94C13A2A
:1055F0002F32F1E03F0711F40C94FE362034314095
:1056000011F00C9497358091680585FD1BC0806270
:1056100080936805E7E5FEE38491882369F038E527
:10562000E32E3EE3F32E0F94C370F7018491FFEF56
:10563000EF1AFF0A8111F7CF83E79EE30F947B7F78
:105640000F94F30ED8018D919C91119792FF4BC24C
:105650005E968D919D910D90BC91A02D892B8A2BEA
:105660008B2B09F440C280E00F9473773CC229353C
:10567000E2E03E0711F40C94853610F00C944E34A1
:10568000243142E0340709F47FC710F40C949F3CA6
:105690002B3182E0380711F40C946E3C28353240EF
:1056A00011F00C94973561E088E893E10E94DC4AA0
:1056B0001AC22631310511F40C949B3410F40C9469
:1056C00093342831310511F40C94743310F40C9494
:1056D000583C2931310511F40C943A3C2A313105FA
:1056E00011F00C949735FC018081918192FFFBC1F0
:1056F000468D578D60A171A18091C10B882309F45B
:10570000F2C14093B80B5093B90B6093BA0B7093EE
:10571000BB0B87E99BE00E9406C9E5C1243551E037
:10572000350709F482C310F00C94F834223491E068
:10573000390711F40C947E402334314011F00C945D
:105740009735D8018D919C91119792FD02C00C94D0
:10575000B5495E964D915D916D917C91919714162E
:1057600015061606170614F00C94844493FF0CC01B
:1057700092968D919D910D90BC91A02D0197A105C0
:10578000B10511F40C949E4381E080937C05E4E71D
:10579000F7E18491882309F45DC105E717E10F94CF
:1057A000C370F80184910F5F1F4F8111F8CF52C170
:1057B0002737310509F4A3C710F40C943A3628377B
:1057C000310511F40C9429362C38310511F00C9464
:1057D00097350E94F2A0F82E811185C10E94546570
:1057E0006093090670930A0680930B0690930C064B
:1057F00080911A0383FD77C1F8018081918192FD28
:1058000002C00C94684390FF0EC0FF24F39420E084
:1058100030E0A901628D738D848D958D0F943AC20D
:1058200018160CF0F12CD8015E966D917D918D913A
:105830009C9191970F9480C7F8012281338132FDAA
:1058400002C00C942C49E25BFF4F208131814281E0
:1058500053810F9420C04F2D0E9438A344C1213999
:1058600091E0390709F443C710F40C94A23D2239A2
:10587000E1E03E0711F40C946E3D223C314011F002
:105880000C9497350E9452D22EC12336310509F46B
:10589000B3C610F40C941E3D2836310511F40C9457
:1058A000AE3C2936310511F00C94973510924B031C
:1058B000FC0180819181969587959695879596951F
:1058C0008795182F1170E0916905F0916A0587A4FA
:1058D00090A8A1A8B2A8E1ECF4E38491882369F030
:1058E000A2ECEA2EA4E3FA2E0F94C370F701849180
:1058F000FFEFEF1AFF0A8111F7CFC501B4010F9432
:105900000116E0916905F0916A0583A894A8A5A8FD
:10591000B6A8BEEBEB2EB4E3FB2EF70184918823EF
:1059200069F0FFEBCF2EF4E3DF2E0F94C370F60186
:105930008491FFEFCF1ADF0A8111F7CFC501B401BF
:105940000F94511580904A0290904B02A0904C0207
:10595000B0904D02EAEBF4E38491882369F0EBEB1D
:10596000CE2EE4E3DE2E0F94C370F6018491FFEF98
:10597000CF1ADF0A8111F7CFC501B4010F940116C8
:1059800080904E0290904F02A0905002B090510231
:10599000F7018491882369F07FEBE72E74E3F72EFB
:1059A0000F94C370F7018491FFEFEF1AFF0A811182
:1059B000F7CFC501B4010F9451158091820283FF86
:1059C00002C00C94584184FF06C062E070E085EB91
:1059D00094E30F94F67E11110C943C49E09144023B
:1059E000F0E0EE59FA4F608170E089EA94E30F9499
:1059F000F67EE0914A03EF3F11F40C943149F0E058
:105A0000EE59FA4F608170E085EA94E30F94F67ED8
:105A10008091FC0283FF02C00C94494184FF06C0C0
:105A200062E070E080EA94E30F94F67E112391F037
:105A300060E070E080EB94E30F94F67E8091C20208
:105A40009091C3026CEF7FE0681B790B8EEA94E3C0
:105A50000F94F67E8DE00F94C3708AE00F94C370AC
:105A600042C02D3C310509F445C610F40C94AE3506
:105A70002E3C310511F40C94A8352F3C310511F062
:105A80000C949735DC018C9183FF0EC01A964D91D2
:105A90005D916D917C911D9740937E0550937F059C
:105AA000609380057093810586FF11C02091690580
:105AB00030916A05F80186899789A08DB18DF90129
:105AC000838F948FA58FB68F80810F94FBA1409117
:105AD0007E0550917F05609180057091810587EF6B
