:100000000C948B240C94BC240C94BC240C94BC2421
:100010000C94BC240C94BC240C94BC240C94BC24E0
:100020000C94BC240C94BC240C94BC240C94BC24D0
:100030000C94BC240C948BA20C94BC240C94BC2473
:100040000C94BC240C9475A70C94BC240C94BC2474
:100050000C94BC240C94BC240D9427100C949C4448
:100060000C94BC240D94FD0F0D94CD0F0C94BC2466
:100070000C94BC240C94BC240C94BC240C94BC2480
:100080000C9494AF0C94BC240C94BC240C94BC240D
:100090000C94BC240C94BC240C94BC240C94BC2460
:1000A0000C94BC240C94BC240C94BC240C94BC2450
:1000B0000C94BC240C94BC240C94BC240C94BC2440
:1000C0000C94BC240C94BC240C94BC240C94BC2430
:1000D0000C94BC240C94BC240C94BC240C94BC2420
:1000E0000C94BC2420431B430F430343F742254396
:1000F000EF42E742DB42CF42C342B242A6429A42BB
:1001000025438E4282426742B0450F450F450F4559
:100110000F450F450F450F450F450F450F450F453F
:100120000F450F450F450F450F450F450F450F452F
:100130000F450F450F450F450F450F45C4450F456A
:100140000F45DB450F450F45044619460F450F4542
:100150000F450F450F450F450F450F450F4572469B
:100160000F450F458F46A646BD460F45F846124738
:100170000F450F450F450F450F450F450F450F45DF
:1001800040470F450F455C47974787480F450F4548
:100190005B480F450F4578480F450F45C647144843
:1001A0000F450F452E480F450F450F4546487045F2
:1001B0004846ED45F1A0F5A0F9A0FFA005A1F0A0EB
:1001C0000BA111A117A11DA123A129A12FA135A127
:1001D000F0A03BA141A1EBA0EEAF04B020B0CBAFAB
:1001E0002CB0CBAF0EB0CBAFACB394B394B394B34D
:1001F00094B394B394B394B394B394B394B394B3C7
:1002000094B381B394B394B394B352B352B352B38F
:1002100052B352B352B352B352B352B352B352B3B6
:1002200052B352B352B352B352B352B352B352B3A6
:1002300052B352B352B352B352B352B352B352B396
:1002400052B352B352B352B352B352B381B381B328
:1002500081B352B352B352B352B352B352B352B347
:1002600081B381B352B352B352B352B352B352B308
:1002700052B352B352B352B352B352B352B352B356
:1002800052B352B352B352B352B352B352B352B346
:1002900052B352B352B352B352B352B352B352B336
:1002A00052B352B352B352B352B394B394B394B360
:1002B00081B3B2B374B474B474B474B474B474B4B5
:1002C00074B474B474B474B474B474B41CB474B446
:1002D00074B474B45BB35BB35BB35BB35BB35BB37A
:1002E0005BB35BB35BB35BB35BB35BB35BB35BB39E
:1002F0005BB35BB35BB35BB35BB35BB35BB35BB38E
:100300005BB35BB35BB35BB35BB35BB35BB35BB37D
:100310005BB35BB35BB31CB41CB41CB45BB35BB327
:100320005BB35BB35BB35BB35BB311B4F3B3D5B394
:100330005BB35BB35BB35BB35BB35BB35BB35BB34D
:100340005BB35BB35BB35BB35BB35BB35BB35BB33D
:100350005BB35BB35BB35BB35BB35BB35BB35BB32D
:100360005BB35BB35BB35BB35BB35BB35BB35BB31D
:100370005BB35BB35BB35BB35BB3BDB33CCE3CCEB3
:100380006ECA6ECA35CA56C656C656C656C656C672
:100390002DCA5CCE56C656C656C656C656C656C694
:1003A00056C656C657CE2ACA56C656C656C656C68C
:1003B00056C656C6F6C956C656C656C656C656C6BA
:1003C00056C656C656C656C656C656C656C656C64D
:1003D00056C656C656C656C656C656C656C656C63D
:1003E00056C656C656C656C656C656C656C656C62D
:1003F00056C656C656C656C656C656C656C656C61D
:1004000056C656C656C656C656C656C656C656C60C
:1004100056C656C656C656C656C656C656C656C6FC
:1004200056C656C656C656C656C656C656C656C6EC
:10043000E8C9D9C914C956C656C656C656C656C600
:1004400056C656C699C856C656C656C656C656C687
:1004500056C656C656C656C656C656C656C656C6BC
:1004600056C656C656C656C656C656C656C656C6AC
:1004700056C656C656C656C656C656C656C656C69C
:1004800056C640C881C7A9C656C67CC651F25EEEA4
:100490005EEE5EEE5EEE5EEE5EEE5EEE5EEE5EEEFC
:1004A0005EEE5EEE5EEE5EEE5EEE5EEE5EEE5EEEEC
:1004B0005EEE5EEE5EEE5EEE5EEE20F2AFF284F297
:1004C000EDF1C7F19DF16CF139F10EF1DBF0A9F01E
:1004D00076F0EDEFBDEF8BEF5FEF5EEE34EF0BEFFD
:1004E000E4EE5EEE5EEE5EEEBAEE94EE36EE5EEEBC
:1004F0005EEE5EEE5EEE5EEE5EEE20F2AFF284F257
:10050000EDF1C7F19DF16CF139F10EF1DBF0A9F0DD
:1005100076F0EDEFBDEF8BEF5FEF5EEE34EF0BEFBC
:10052000E4EE5EEE5EEE5EEEBAEE94EE36EE084A75
:10053000D73B3BCE016E84BCBFFDC12F3D6C7431F7
:100540009ABD56833DDA3D00C77F11BED9E4BB4C4E
:100550003E916BAAAABE000000803F05A84CCDB218
:10056000D44EB93836A9020C50B9918688083CA6F9
:10057000AAAA2ABE000000803F000D94A70F0D9488
:100580007F0F0D94DC1D0D94BC0F0D948E0F0D94F8
:10059000DB1D456E642066696C65206C69737400B0
:1005A000426567696E2066696C65206C69737400CA
:1005B0005344207072696E74696E67206279746545
:1005C00020004E6F74205344207072696E74696EFF
:1005D000670057726974696E6720746F2066696C72
:1005E000653A20006F70656E206661696C65642CE9
:1005F0002046696C653A20004372656174696F6ECC
:10060000206661696C6564004469726563746F7229
:1006100079206372656174656400657874727564CD
:10062000657220636F6F6C657220737065656420FE
:100630005B302D3235355D0064697374616E6365BE
:1006400020746F2072657472616374207768656EC0
:100650002068656174696E67205B6D6D5D0074650F
:100660006D702E20666F722072657472616374699A
:100670006F6E207768656E2068656174696E6720AB
:100680005B435D0074656D702E2073746162696CEC
:10069000697A652074696D65205B735D005A2D6F02
:1006A0006666736574205B73746570735D00592DA5
:1006B0006F6666736574205B73746570735D005854
:1006C0002D6F6666736574205B73746570735D006F
:1006D000504944206D61782076616C7565205B30EF
:1006E0002D3235355D0050494420442D6761696ED7
:1006F0000050494420492D6761696E0050494420EB
:10070000502D6761696E2F646561642D74696D6534
:1007100000504944206472697665206D696E00500E
:100720004944206472697665206D6178006865616E
:1007300074206D616E61676572205B302D335D00E2
:10074000507265686561742074656D702E205BB0B1
:10075000435D00616363656C65726174696F6E20EF
:100760005B6D6D2F735E325D007374617274206611
:1007700065656472617465205B6D6D2F735D006DDE
:1007800061782E206665656472617465205B6D6DAD
:100790002F735D00737465707320706572206D6DCA
:1007A0000052657472616374696F6E20756E646F58
:1007B0002073706565640045787472612065787493
:1007C000727573696F6E206F6E20756E646F207224
:1007D000657472616374205B6D6D5D005265747247
:1007E000616374696F6E207A2D6C696674205B6D2D
:1007F0006D5D0052657472616374696F6E20737011
:10080000656564205B6D6D2F735D00526574726168
:100810006374696F6E206C656E677468205B6D6DC4
:100820005D00456E61626C6520726574726163740F
:10083000696F6E20636F6E76657273696F6E205B91
:10084000302F315D0042656420504944206D61784D
:100850002076616C7565205B302D3235355D004248
:1008600065642050494420442D6761696E004265EB
:10087000642050494420492D6761696E00426564D7
:100880002050494420502D6761696E004265642004
:10089000504944206472697665206D696E00426536
:1008A0006420504944206472697665206D61780047
:1008B0004265642048656174204D616E61676572B0
:1008C000205B302D335D00426564205072656865A1
:1008D00061742074656D702E205BB0435D00436FC2
:1008E0006174696E6720746869636B6E65737320E9
:1008F0005B6D6D5D00436F72722E20646961676F7E
:100900006E616C2043205B6D6D5D00436F72722ED3
:1009100020646961676F6E616C2042205B6D6D5D64
:1009200000436F72722E20646961676F6E616C2084
:1009300041205B6D6D5D0044656C746120526164A3
:1009400069757320432830293A0044656C7461202E
:1009500052616469757320422830293A0044656CFD
:1009600074612052616469757320412830293A000E
:10097000416C7068612043283930293A00416C701D
:100980006861204228333330293A00416C70686135
:10099000204128323130293A00546F776572205A4D
:1009A00020656E6473746F70206F66667365742063
:1009B0005B73746570735D00546F776572205920A6
:1009C000656E6473746F70206F6666736574205B08
:1009D00073746570735D00546F776572205820657D
:1009E0006E6473746F70206F6666736574205B73DA
:1009F000746570735D004D6178207072696E74610A
:100A0000626C6520726164697573205B6D6D5D0059
:100A1000486F72697A6F6E74616C20726F642072B5
:100A2000616469757320617420302C30205B6D6DBA
:100A30005D00446961676F6E616C20726F64206C49
:100A4000656E677468205B6D6D5D005472617665DC
:100A50006C20616363656C65726174696F6E205BA5
:100A60006D6D2F735E325D00416363656C6572610D
:100A700074696F6E205B6D6D2F735E325D00536520
:100A8000676D656E74732F7320666F722070726964
:100A90006E74696E67005365676D656E74732F734E
:100AA00020666F722074726176656C005A206D61E9
:100AB00078206C656E677468205B6D6D5D005920F1
:100AC0006D6178206C656E677468205B6D6D5D008C
:100AD00058206D6178206C656E677468205B6D6D61
:100AE0005D005A206D696E20706F73205B6D6D5DC7
:100AF0000059206D696E20706F73205B6D6D5D0015
:100B000058206D696E20706F73205B6D6D5D004DB8
:100B100061782E206A65726B205B6D6D2F735D00AE
:100B2000486F6D696E6720666565647261746520E3
:100B30005B6D6D2F735D004D61782E206665656479
:100B400072617465205B6D6D2F735D005374657009
:100B50007320706572206D6D0053746F7020737414
:100B6000657070657220616674657220696E61637C
:100B7000746976697479205B6D732C303D6F66669D
:100B80005D004D61782E20696E6163746976652021
:100B900074696D65205B6D732C303D6F66665D001A
:100BA0005072696E74657220616374697665205B4A
:100BB000735D0046696C616D656E74207072696E5C
:100BC000746564205B6D5D0042617564726174657B
:100BD000004C616E6775616765005049442041753E
:100BE000746F74756E65206661696C65642120742C
:100BF000696D656F757400504944204175746F7458
:100C0000756E65206661696C6564212054656D7040
:100C10006572617475726520746F6F2068696768AA
:100C200000204B643A2000204B693A2000204B7092
:100C30003A200020436C617373696320504944007B
:100C40002054753A2000204B753A2000206D6178C1
:100C50003A2000206D696E3A200020643A2000207E
:100C6000626961733A2000504944204175746F7481
:100C7000756E65207374617274004D617854656D92
:100C8000703A004469616D657465723A004163634E
:100C9000656C65726174696F6E3A004D617853706E
:100CA0006565643A004A65726B3A004D6178426549
:100CB0006454656D703A005072696E74657254794F
:100CC00070653A44656C7461005A54726176656C63
:100CD000416363656C3A005954726176656C416397
:100CE00063656C3A005854726176656C4163636564
:100CF0006C3A005A5072696E74416363656C3A00D5
:100D0000595072696E74416363656C3A0058507251
:100D1000696E74416363656C3A005A53697A653A47
:100D2000005953697A653A005853697A653A005A0E
:100D30004D61783A00594D61783A00584D61783AE2
:100D4000005A4D696E3A00594D696E3A00584D6926
:100D50006E3A0052657472616374696F6E556E64A9
:100D60006F53706565643A005265747261637469AB
:100D70006F6E556E646F45787472614C6F6E674C20
:100D8000656E6774683A0052657472616374696F66
:100D90006E556E646F45787472614C656E677468E9
:100DA0003A0052657472616374696F6E5A4C696679
:100DB000743A0052657472616374696F6E53706542
:100DC00065643A0052657472616374696F6E4C6F4A
:100DD0006E674C656E6774683A0052657472616341
:100DE00074696F6E4C656E6774683A004B65657028
:100DF000416C697665496E74657276616C3A004A39
:100E000065726B58593A005072696E746C696E6500
:100E100043616368653A00454550524F4D3A004181
:100E200075746F6C6576656C3A005A50726F6265C6
:100E30003A00436173654C69676874733A0053758F
:100E400070706F72744C6F63616C46696C616D6534
:100E50006E746368616E67653A00537570706F7287
:100E6000744731304731313A005A486F6D65506FE1
:100E7000733A0059486F6D65506F733A0058486F68
:100E80006D65506F733A005A486F6D654469723AE8
:100E90000059486F6D654469723A0058486F6D6536
:100EA0004469723A00536F667477617265506F7768
:100EB00065725377697463683A004C43443A00465C
:100EC000616E323A300046616E3A005344436172BB
:100ED000643A004865617465644265643A004D692E
:100EE00078696E6745787472756465723A004E75FC
:100EF0006D45787472756465723A00496E707574E8
:100F00004275666665723A00426175647261746525
:100F10003A00436F6E66696775726174696F6E201F
:100F2000726573657420746F2064656661756C7496
:100F3000732E00696E666F3A436F6E74696E7565E5
:100F40002066726F6D20666174616C2073746174C9
:100F500065000054657374696E6720666174616C26
:100F6000206572726F7200436F6E66696775726199
:100F700074696F6E206C6F616465642066726F6D5A
:100F800020454550524F4D2E00436F6E6669677580
:100F9000726174696F6E2073746F72656420746F10
:100FA00020454550524F4D2E00436F6C64206578AC
:100FB00074727573696F6E20646973616C6C6F779E
:100FC000656400436F6C6420657874727573696F33
:100FD0006E20616C6C6F7765640054726967676539
:100FE00072696E67207761746368646F672E204949
:100FF00066206163746976617465642C2074686529
:10100000207072696E7465722077696C6C207265ED
:101010007365742E005761746368646F6720646938
:101020007361626C6564004175746F72657472619E
:1010300063743A004A65726B3A0020746F20005363
:10104000657420766F6C756D657472696320657860
:1010500074727573696F6E20666F72206578747232
:1010600075646572200044697361626C6564207602
:101070006F6C756D657472696320657874727573D1
:10108000696F6E20666F7220657874727564657220
:101090002000205052454845415400505245484593
:1010A00041545F4245443A00205A533A0020595374
:1010B0003A0058533A00505245484541543A31009D
:1010C000504155534553544F503A3100544F4747C0
:1010D0004C455F4C49474854533A3100534F4654AE
:1010E000574152455F504F5745523A31005A5F5071
:1010F000524F42453A30004155544F4C4556454CAD
:101100003A3000454550524F4D3A31004155544F09
:101110005245504F52545F54454D503A3100505251
:101120004F47524553533A31004649524D57415269
:10113000455F4E414D453A52657065746965725F11
:10114000312E302E30646576204649524D5741523B
:10115000455F55524C3A68747470733A2F2F676923
:10116000746875622E636F6D2F7265706574696542
:10117000722F52657065746965722D4669726D775C
:101180006172652F2050524F544F434F4C5F56456C
:101190005253494F4E3A312E30204D414348494E2B
:1011A000455F545950453A44656C74612045585424
:1011B00052554445525F434F554E543A31205245A3
:1011C0005045544945525F50524F544F434F4C3A4B
:1011D000330050696E2063616E206E6F742062650B
:1011E00020736574206279204D34322C206973207D
:1011F000696E2073656E7369746976652070696EB7
:10120000732120002069732000496C6C6567616C54
:1012100020532076616C756520666F72204D3432E4
:101220000020746F2000536574206F75747075749E
:101230003A2000000136372603023C3D380E0F2EBF
:10124000303E12130D0C0A081A1C180D0E357514B9
:10125000536F6674776172652052657365740057C9
:1012600061746368646F67205265736574004272CD
:101270006F776E206F7574205265736574004578C2
:101280007465726E616C20526573657400506F777F
:101290006572557000110A0411040A1111001C1F17
:1012A00011111F0000040A0A0A0E1F1F0E001F1151
:1012B00011111F0000001F1F1F1F1F0000040A0440
:1012C0000000000000040E150404041C0042696CB8
:1012D0006C20426169277320416E794375626963AE
:1012E00000416E794375626963204B6F7373656C5F
:1012F00020506C7573005265706574696572203199
:101300002E302E3064657600467265652052414D60
:101310003A0082000001004E124E65656473206C35
:10132000616E67756167652073656C656374696F6D
:101330006E0073746172740077616974000000203C
:1013400020203F2E3F3F0020486F6D696E670020D0
:1013500064656320002064656620000300040020AB
:10136000000000000000000000006200000000001B
:10137000000000000061000000000000000000000C
:1013800060000000000000000000005F0082137792
:10139000136C13611303550404008D13456E676CC1
:1013A00069736800000003AC0F00000000B4000087
:1013B00000029513000000002100000004260440F4
:1013C00000000096000000044C0400000000BB0078
:1013D0000000044D0400000000BC000000042E04C6
:1013E0000000000090000000042A04000000008FAC
:1013F000000000042B04000000008E000000042CFC
:1014000004000000008D000000042904000000001A
:101410008C000000041304000000005600000004CB
:1014200016040000000052000000040E040000003A
:101430000037000000040D0400000000360000002A
:10144000040A040000000032000000000000000058
:10145000000089000000000000000000008800007B
:1014600000000000000000008600000000000000F6
:1014700000000085009C1303A4260000000000006B
:10148000000004D004000000002201000004CF048A
:101490000000000028010000010000000000002101
:1014A000010000038204000000000A010000038123
:1014B00004000000003F0000000380040000000062
:1014C0003E000000037F04000000003D0000000318
:1014D0007E04000000003C007E1B081AAF13A4131A
:1014E0007E1B0714FC13F113E613DB13D013C51393
:1014F00059174E17431738172D1722171717BA13F6
:101500000C177E1B1D1412147E1B3E14331428145A
:10151000541449146A145F147E1B751496147E1BB0
:101520008B1480147E1BCD14C214B714AC14A114F8
:101530000200000400D8140200001100E0140200B0
:1015400000030002150200000400081503580402FD
:1015500000101503200402001415020000020018F8
:101560001502000004001C150200000600241500EE
:101570000002301500000000B50000000307040061
:101580000000003B000000030604000000003A00D9
:101590000000023715000000000F000000023E1599
:1015A000000000004E000000024515000000003958
:1015B000000000024C1500000000870000000253EC
:1015C000150000000084000000041004000000006A
:1015D0008B000000025A1500000000E40000000328
:1015E000B40400000000D2000000026115000000F9
:1015F0000021010000026815000000001100000039
:1016000004BD0400001000E300000003B904000062
:101610001000E100000003B80400001000E000002A
:101620000003B60400001000DF00000003B5040052
:10163000001000DE00000003BE0400001000DD000A
:10164000000003B70400001000DC00000004B60F27
:10165000000000000901000004B50F0000000008B0
:1016600001000004B40F00000000070100000000AA
:101670000000000000F20000000000000000000078
:10168000AB0000000000000000000070000000003F
:101690000000000000006F00000003E803000000ED
:1016A000002D010000038813000000002C01000041
:1016B00004F203000000002A010000010000000005
:1016C0000000CB007E1BD215C715BC15B115A615A1
:1016D0009B159015DD1C85157A156F157E1BF3156E
:1016E000E815DD157E1B401635162A161F16141632
:1016F0000916FE157E1B611656164B168D168216A0
:1017000077166C16B916AE16A31698160000042F9D
:1017100004000000009B00000004220440000000C0
:1017200095000000042604200000009A0000000438
:10173000250420000000990000000424042000007B
:10174000009800000004230420000000970000001F
:101750000422042000000094000000042D04000076
:10176000000093000200000C00C4160200000400F8
:10177000DC160200000800E4160200000400F41663
:1017800003F0030400FC16820000040004177E1B13
:1017900059174E17431738172D17221717170C17FD
:1017A0000000026417000010000D000000026B171B
:1017B000000010000E01000002FE1D0000000010DD
:1017C00000000002721700001000D900000002BFE4
:1017D0001D000010000F00000002B81D00001000E6
:1017E0000E00000004570410000000CA00000003AF
:1017F000B40410000000D2000000045204100000E5
:10180000007E00000004480410000000B100000049
:1018100002871710000000CB000000041F04100016
:101820000000B0000000046104100000002400006B
:1018300000046204100000002500000003C404142A
:101840000000004A000000034B041000040049009F
:10185000000003C50410000400C900000002C61DFA
:10186000000010000B00000000000000000000E07D
:1018700000000000000000000000DA00000000008E
:101880000000000000DF0000000000000000000079
:10189000DA00000000000000000000E1000000008D
:1018A000000000000000DA0000000000000000005E
:1018B00000DE00000000000000000000DA00000070
:1018C00000000000000000DD00000000000000003B
:1018D0000000DA00000000000000000000DC000052
:1018E0000000000000000000DA000000000000001E
:1018F000000000CF00000000000000000000CE004B
:10190000000000000000000000CD0000000000000A
:1019100000000000CC000000027917000000000663
:1019200001000004B30400000000D100000002E246
:101930001D000000002100000002E91D0000000061
:101940001F00000002F01D000000001D0000000349
:101950004404000000002E00000002801700000078
:101960000023000000033A040000000028000000EB
:10197000046204000000002500000004610400006F
:1019800000002400000003360400000000C6000030
:1019900000034304000010001C0000000331040099
:1019A0000010001B000000033804000000001A00B3
:1019B0000000034704000000001800000003370483
:1019C000000000001700000002871700000000CB95
:1019D000000000045204000000007E0000000353D9
:1019E000040000000019000000044804000000008A
:1019F000B1000000041F0400000000B0000000045B
:101A0000570400000000CA00000003FD030000109E
:101A10000013000000000000000000006E00000045
:101A2000000000000000006D000000000000000049
:101A300000006C000000000000000000006B0000CF
:101A400000000000000000006A000000000000002C
:101A500000000069000000000000000000006800B5
:101A6000000000000000000000670000000000000F
:101A7000000000006600000000000000000000659B
:101A800000000000000000000000640000000000F2
:101A900000000000006300000000000000000000E3
:101AA0006200000000000000000000610000000073
:101AB00000000000000060000000000000000000C6
:101AC000005F000000000000000000005E00000059
:101AD000000000000000005D0000000000000000A9
:101AE00000005C000000000000000000005B00003F
:101AF00000000000000000005A000000000000008C
:101B00000000005900000000000000000000580024
:101B10000000000000000000005700000003C62481
:101B2000100000000300000003E8030000000004B0
:101B300000000001000000000000F40000000100AF
:101B40000000000000C900000003F40301000200CF
:101B50004D00000002F71D02000000C90000000354
:101B6000F703060000004A00000003F60302000429
:101B7000004900000003F5030100020048000000D6
:101B800003E803000000000A00000000000000005D
:101B90000000A800000000000000000000A70000F6
:101BA0000000000000000000A6000000000000008F
:101BB000000000A50000000000000000000013016C
:101BC000000000000000000000F400000000000021
:101BD000000000002001000000000000000000F4F0
:101BE0000002000009008E177E1B5B185018451874
:101BF0003A182F18241819180E180318F817ED178B
:101C0000E217731BD717CC17C117B617AB17A0175E
:101C10007118661887187C189D189218B318A818A0
:101C2000C918BE18DF18D4180B190019F518EA18CE
:101C30007E1B081A421937192C195819211916191F
:101C40007E1B79196E19631958194D197E1B081AD4
:101C5000FD19F219E719DC19D119C619BB19B01908
:101C6000A5199A198F198419341A291A1E1A131AC8
:101C7000601A551A4A1A3F1A8C1A811A761A6B1A68
:101C8000B81AAD1AA21A971AE41AD91ACE1AC31A98
:101C9000101B051BFA1AEF1A3C1B311B261B1B1BC2
:101CA0007E1B731B681B5D1B521B471B7E1B941BFB
:101CB000891BAA1B9F1BD61BCB1BC01BB51B5265C8
:101CC000717565737450617573653A00526571750D
:101CD000657374436F6E74696E75653A0000000237
:101CE000E11B00000000A2002F2F20616374696FC8
:101CF0006E3A726573756D650044656C6574696FE5
:101D00006E206661696C65640046696C6520646577
:101D10006C65746564000200001400E81B03102762
:101D20000200101C0310270200141C0310270200DD
:101D3000181C03102702001C1C0310270200201C83
:101D40000310270200241C454550524F4D2075704A
:101D50006461746564005072696E746572206865B0
:101D6000696768743A000588130400281C2F2F2027
:101D7000616374696F6E3A706175736500696D7047
:101D80006F7274616E743A2046696C616D656E7431
:101D9000206368616E67652072657175697265643C
:101DA00021004A616D20636F6E74726F6C206469EC
:101DB0007361626C65643A000200000800301C0226
:101DC00000000600401C0200000E004C1C03FC0337
:101DD0000400681C03FB030400701C03FA030400E6
:101DE000781C03EF030400801C03EE030400881C2E
:101DF00003ED030400901C0200000400981C020084
:101E0000000600A01C0100000100AC1C031027020A
:101E100000AE1C0310270200B21C05CC040400B65F
:101E20001C6D6F766552656C617469766544697383
:101E300074616E6365496E5374657073202F2071F1
:101E40007565756544656C74614D6F766520726566
:101E50007475726E73206572726F7200473238004B
:101E60005344207072696E742073746F707065646F
:101E700020627920757365722E008025000040383D
:101E80000000004B00008070000000960000C0DAE7
:101E9000000000E10000002C010008B2010000C2B7
:101EA000010000F401000084030090D0030000E86A
:101EB00003000008070020A1070000100E004042A8
:101EC0000F0060E3160000000000000000000000AA
:101ED000000000F100000000000000000000C4004D
:101EE000000000000000000000F000000000000002
:101EF00000000000C300000000000000000000F32C
:101F000000000000000000000000F40000000000DD
:101F10000000000000AF0000000000000000000012
:101F2000AC00000000000000000000F30000000012
:101F30000000000000005F00000000000000000042
:101F4000005B0000000000000000000057000000DF
:101F500000000000000000F300000000000000008E
:101F60000000EE00000000000000000000ED000096
:101F70000000000000000000EB00EB1EE01ED51E7C
:101F8000CA1E171F0C1F011FF61E431F381F2D1FCF
:101F9000221F6F1F641F591F4E1F00000004007A8C
:101FA0001F0000000400821F00000004008A1F00C0
:101FB00000000400921F446F6E6520736176696EA5
:101FC000672066696C652E00534420696E69742031
:101FD0006661696C000046696C652073656C6563B9
:101FE000746564002053697A653A0046696C65201F
:101FF0006F70656E65643A0066696C652E6F70651A
:102000006E206661696C656400AF1FA81FA11F9AEE
:102010001F432068697420666C6F6F720043706F95
:1020200073207820737175617265200043706F733F
:102030002078207374657073200043706F7320796B
:1020400020737175617265200043706F7320792071
:1020500073746570732000422068697420666C6F29
:102060006F720042706F73207820737175617265B2
:10207000200042706F7320782073746570732000A5
:1020800042706F7320792073717561726520004210
:10209000706F73207920737465707320004120681D
:1020A000697420666C6F6F720041706F73207820C6
:1020B000737175617265200041706F7320782073B1
:1020C00074657073200041706F732079207371758F
:1020D000617265200041706F7320792073746570A0
:1020E0007320007A5F6D61783A004C200048200030
:1020F000795F6D61783A00785F6D61783A00656E5E
:102100006473746F7073206869743A200044656268
:1021100075674C6576656C3A005072696E746572CD
:102120004D6F64653A434E43005072696E74657238
:102130004D6F64653A4C61736572005072696E74DC
:1021400065724D6F64653A464646005859206A6587
:10215000726B2077617320746F6F206C6F772C2007
:1021600073657474696E6720746F20006D6F766597
:10217000546F5265616C202F2071756575654465DB
:102180006C74614D6F76652072657475726E732024
:102190006572726F72005344206361726420696ECD
:1021A00073657274656400534420636172642072C5
:1021B000656D6F766564004D756C3A20256F6D25F1
:1021C0002525202020204C61733A256F7020570070
:1021D0004D756C3A20256F6D252525202020205334
:1021E00070693A256F7052504D20005A773A257821
:1021F000372020205A3A2578320059773A25783608
:10220000202020593A2578310058773A2578352012
:102210002020583A257830005374617274205A2D6A
:1022200050726F6265004D6561737572696E6720EB
:102230002E2E2E005A2D4F66667365743A25587AF5
:1022400000436C6F736500436F6E74696E75650053
:102250005265616C205A20506F733A2557306D6D6E
:102260000054656D702E202565632F25456302435C
:10227000004D6561732E2050726F6265204865695C
:1022800067687400426564202020203A202570622F
:10229000024300457874722E20363A2025703502AC
:1022A0004300457874722E20353A2025703402435D
:1022B00000457874722E20343A2025703302430092
:1022C000457874722E20333A20257032024300453F
:1022D0007874722E20323A202570310243004578FE
:1022E00074722E20313A20257030024300507265FE
:1022F000686561742054656D70657261747572658E
:102300007300486F6D696E672E2E2E004175746FD5
:102310006C6576656C206265640043616C6962720D
:102320006174696F6E204572726F720043616C69EF
:1023300062726174696E67206265640020202020EB
:102340003E3E3E204F6B203C3C3C004C6576656C2D
:10235000696E67206572726F720046696C616D65A7
:102360006E7420736C697070696E67004865617483
:102370006572206465636F75706C65640054656D8B
:10238000702E2073656E736F72206465666563746A
:10239000004E6F74696669636174696F6E3A006FAD
:1023A00062737472756374696F6E73006265642022
:1023B000697320636C656172206F6620616E7900BD
:1023C0004D616B6520737572652074686520686562
:1023D00061746564002A2A2A20506C656173652047
:1023E00077616974202A2A2A0043616E63656C0054
:1023F00046616E20322073706565643A2546532528
:10240000252500446973746F7274696F6E20636F61
:1024100072722E3A254465004D65617375726520B0
:10242000646973746F7274696F6E0053657475704C
:102430000025506E00255070252525004C617965DA
:10244000722025506C2F25504C00456E6453746FDC
:10245000703A25647000536574205A206F66667365
:1024600065743A2554326D6D005365742059206FA0
:1024700066667365743A2554316D6D00536574203A
:1024800058206F66667365743A2554306D6D00533D
:102490006574207072696E74206F666673657473FC
:1024A000005A2D70726F6265206865696768743ABA
:1024B000257A6800254433203320636F7069657383
:1024C00000254432203220636F7069657300254413
:1024D00031203120636F707900254430204E6F2009
:1024E000636F70696573002558352053656C6563AB
:1024F0007420657874722E20360025583420536578
:102500006C65637420657874722E2035002558330D
:102510002053656C65637420657874722E203400D6
:102520005475726E20657874722E2036206F666640
:10253000005475726E20657874722E2035206F6697
:1025400066005475726E20657874722E2034206F88
:1025500066660054656D702E2036203A2565352F4D
:1025600025453502430054656D702E2035203A25EF
:1025700065342F25453402430054656D702E203498
:10258000203A2565332F2545330243002025424359
:102590006D6D00052565630200052565632F2545E2
:1025A00063020000256F7300255566206D20707250
:1025B000696E74656400255566206D0025557400AC
:1025C000583A25783020593A257831004D756C3AC3
:1025D00020256F6D202020453A257834005A3A2571
:1025E00078322020427566203A20256F420042252D
:1025F00065422F2545620200052565632F25456349
:1026000002422565422F2545620200256F73004274
:1026100075663A20256F42004D756C3A20256F6D26
:1026200025252520FD202020453A202578346D00E1
:10263000466C6F773AFD20256F66252525202020E2
:102640005A3A257832000E202565622F254562B062
:1026500020593A257831000A202565302F2545304C
:10266000B020583A257830004C616E677561676517
:1026700000437573746F6D3A2542436D6D00437569
:1026800073746F6D00476C756520737469636B00BC
:10269000477265656E205045542074617065004234
:1026A0006C75652070617065722074617065004B97
:1026B0006170746F6E004275696C6454616B004E9A
:1026C0006F20636F6174696E670000426564206308
:1026D0006F6174696E672073657420746F00426562
:1026E0006420636F6174696E67005374616E646225
:1026F00079004578747275646572206A616D007442
:10270000656D706572617475726573202E2E2E0072
:102710005761697420666F72207461726765740016
:102720006578747275646572732E00436C69636BAF
:1027300020746F207265686561740049676E6F72FE
:1027400065204D31303620636D6420254669005385
:102750006572766F20706F732E3A20256F5300419B
:1027600075746F6C6576656C3A20256C6C00436CF3
:1027700069636B207768656E20646F6E65006669BB
:102780006C616D656E742075702F646F776E00528A
:102790006F7461746520746F206D6F766500436897
:1027A000616E67652066696C616D656E7400436873
:1027B000616E67652066696C616D656E74005A2094
:1027C00062616279737465702E3A256F596D6D0080
:1027D00053746F70205072696E7400536C6F77423F
:1027E000616E6700446561642074696D65004154E1
:1027F0005820706F776572206F6E2F6F666600705D
:1028000072696E7465640046696C616D656E7420F2
:102810007072696E746564005072696E74696E6777
:102820002074696D6500003A0020646179732000AE
:102830005072696E7465722072656164792E0053FE
:1028400044206361726420696E736572746564000C
:10285000534420636172642072656D6F7665640015
:102860005761697420726574722E3A255855206D2F
:102870006D00576169742074656D702E2025585461
:102880000243004C6576656C2064656C746100439E
:10289000616C63756C617465206C6576656C696EDE
:1028A0006700536574205033005365742050320024
:1028B000536574205031005A2063616C69622E00A8
:1028C000536574205A3D30005265736574206D6500
:1028D00061732E0053686F77206D6561732E00461B
:1028E0006C6F77206D756C2E203A256F6625252537
:1028F000005370656564206D756C2E3A256F6D25EB
:1029000025250020423A2565622F25456202437E37
:10291000256F620045333A2565322F254532024343
:102920007E256F320045323A2565312F254531022B
:10293000437E256F310045313A2565302F254530DE
:1029400002437E256F300020453A2565632F2545DB
:102950006302437E256F43004275666665723A25C1
:102960006F420055706C6F6164696E672E2E2E0089
:102970006C6F6164656420662E20454550524F4D52
:1029800000436F6E66696775726174696F6E00737C
:10299000746F72656420696E20454550524F4D003A
:1029A000436F6E66696775726174696F6E00537408
:1029B00065707065722064697361626C6564004B58
:1029C000696C6C65640048656174696E6720626556
:1029D000640048656174696E672065787472756417
:1029E000657200416374696F6E3A256C61005049ED
:1029F000440042616E6742616E6700592D4F666602
:102A00007365743A25587900582D4F66667365745E
:102A10003A25587800504944204D61783A25584469
:102A2000004472697665204D61783A25584D00441E
:102A300072697665204D696E3A25586D005049449B
:102A400020443A2558640050494420493A255869A1
:102A500000436F6E74726F6C2050574D3A25584D7D
:102A6000004465616474696D653A25587000504989
:102A70004420503A25587000436F6E74726F6C3A60
:102A800025586800416476616E63652071756164E4
:102A90003A25586100416476616E6365206C696E09
:102AA0003A25586C00537461622E54696D653A255D
:102AB000587700416363656C3A255841004D617851
:102AC0002046523A2558460053746172742046528B
:102AD0003A2558660053746570732F4D4D3A25534F
:102AE000650042617564726174653A256F630047E1
:102AF000656E6572616C005B6D696E5D20303D4F87
:102B00006666004469732E2061667465723A2025FA
:102B10006970004D61782E20696E61637469766515
:102B2000005B6D696E5D20303D4F666600446973E1
:102B30002E2061667465723A2025697300537465AE
:102B40007070657220696E616374697665005365A3
:102B5000742066616E2066756C6C00536574206627
:102B6000616E203735252525005365742066616E1A
:102B7000203530252525005365742066616E20328E
:102B800035252525005475726E2066616E204F66CE
:102B9000660046616E2073706565643A254673254C
:102BA00025250046616E207370656564004D696E71
:102BB0003A25737A204D61783A25735A005A3A259E
:102BC0007832206D6D004D696E3A257379204D6124
:102BD000783A25735900593A257831206D6D004DAA
:102BE000696E3A257378204D61783A2573580058FC
:102BF0003A257830206D6D004D696E3A25737A2044
:102C00004D61783A25735A005A3A257832206D6D15
:102C1000004D696E3A257379204D61783A257359D4
:102C200000593A257831206D6D004D696E3A257353
:102C300078204D61783A25735800583A257830202D
:102C40006D6D003120636C69636B203D2031206D18
:102C50006D00453A257833206D6D00004D61782078
:102C6000656E6473746F703A25735A004D696E20F7
:102C7000656E6473746F703A25737A005A3A2578DA
:102C800032206D6D00004D617820656E6473746F45
:102C9000703A257359004D696E20656E6473746FC8
:102CA000703A25737900593A257831206D6D00000E
:102CB0004D617820656E6473746F703A25735800A7
:102CC0004D696E20656E6473746F703A2573780079
:102CD000583A257830206D6D00004D617820656E82
:102CE0006473746F703A25735A004D696E20656E77
:102CF0006473746F703A25737A005A3A25783220DB
:102D00006D6D2025647A25645A00004D6178206538
:102D10006E6473746F703A257359004D696E206547
:102D20006E6473746F703A25737900593A2578315F
:102D3000206D6D2025647925645900004D6178204F
:102D4000656E6473746F703A257358004D696E2018
:102D5000656E6473746F703A25737800583A2578FD
:102D600030206D6D2025647825645800486F6D65AE
:102D70003A25665A00486F6D65205A3A25665A0012
:102D8000486F6D6520593A25665900486F6D65207A
:102D9000583A256658004D61783A25667A004D61AB
:102DA00078205A3A25667A004D617820593A25668E
:102DB00079004D617820583A25667800466565644B
:102DC000726174650044656C6574652066696C6544
:102DD000004D6F756E74206361726400556E6D6F87
:102DE000756E74206361726400436F6E74696E75F2
:102DF00065207072696E7400506175736520707221
:102E0000696E74005072696E742066696C65004169
:102E10006E7469206F6F7A65004D6F76652061660C
:102E20007465723A254F61004D696E2E6469737442
:102E300020203A254F64004261636B736C2E202082
:102E4000203A254F6200526574726163742020201D
:102E50003A254F7200254F32204F50532066617340
:102E60007400254F31204F505320636C6173736998
:102E70006300254F30204F5053206F666600447228
:102E8000792072756E3A256464004572726F7273B0
:102E9000203A25646500496E666F2020203A25643B
:102EA00069004563686F2020203A25646F004C6FED
:102EB000616420662E20454550524F4D0053746F7B
:102EC000726520746F20454550524F4D0041636339
:102ED000656C65726174696F6E005A2D4A65726B1C
:102EE000203A25614A004A65726B2020203A25610C
:102EF0006A004D6F76653A25615A004D6F76652000
:102F00005A203A25615A004D6F76652059203A259E
:102F10006159004D6F76652058203A256158005060
:102F200072696E743A25617A005072696E74205A23
:102F30003A25617A005072696E7420593A25617998
:102F4000005072696E7420583A2561780053657498
:102F5000204F726967696E002558322053656C6591
:102F6000637420657874722E203300255831205305
:102F7000656C65637420657874722E203200255864
:102F8000302053656C65637420657874722E20312F
:102F9000005475726E20657874722E2033206F662F
:102FA00066005475726E20657874722E2032206F20
:102FB0006666005475726E20657874722E2031201A
:102FC0006F66660054656D702E2033203A25653299
:102FD0002F25453202430054656D702E2032203A71
:102FE0002565312F25453102430054656D702E2033
:102FF00031203A2565302F25453002430042656473
:103000002074656D703A2565622F25456202430084
:103010004D6F7665204578747275646572004D6FEA
:103020007665205A2066617374004D6F7665205A6C
:10303000004D6F766520592066617374004D6F7680
:10304000652059004D6F76652058206661737400C5
:103050004D6F766520580044697361626C6520731A
:103060007465707065720053657420746F206F72A0
:103070006967696E00436F6F6C646F776E004C69AF
:10308000676874733A256C6F005072656865617487
:1030900020416C6C20457874722E00507265686512
:1030A00061742053696E676C6520457874722E00D8
:1030B000486F6D65205A00486F6D65205900486F54
:1030C0006D65205800486F6D6520616C6C00486F1D
:1030D0006D652064656C746100446562756767693D
:1030E0006E670053442063617264004578747275A2
:1030F000646572004D6F76650053657474696E6720
:103100007300256F6500436F6E74726F6C004261CF
:10311000636B2001002A2A2A2A204552524F52204E
:103120002A2A2A2A004E6F205344206361726400C9
:1031300049646C65005072696E74696E6700507204
:10314000696E74696E672E2E2E004E6F005965737E
:10315000004E2F41004F6666004F6E0059315531C9
:1031600051314D314A313E31353130312531153112
:103170000E3106310231F930F430EB30E330D93022
:10318000CE30C530BE30B730B0309B3089307E3065
:10319000753067305730503044303D3031302A3050
:1031A0001E301030FD2FEA2FD72FC42FB32FA22FA0
:1031B000912F7E2F6B2F582F4D2F412F352F292FD9
:1031C0001F2F132F072FFB2EF22EE62EDA2ECD2ED9
:1031D000BD2EAE2EA22E962E8A2E7E2E722E622E00
:1031E000552E462E372E282E192E0F2E042EF82D52
:1031F000E92DDC2DD12DC52DBC2DB22DA82D9E2D58
:10320000962D8B2D802D752D6C2D5C2D4C2D3C2DF0
:103210003B2D2B2D1B2D0B2D0A2DFA2CEA2CDA2CF5
:10322000D92CD02CC02CB02CAF2CA62C962C862CB4
:10323000852C7C2C6C2C5C2C5B2C522C432C3A2C3B
:103240002A2C212C112C082CF82BEF2BDF2BD62B22
:10325000C62BBD2BAD2BA32B922B852B772B692B4C
:103260005B2B4E2B3D2B2D2B212B132B032BF72AC6
:10327000EF2AE22AD52AC82ABD2AB32AA52A952AE6
:10328000842A782A6E2A612A512A472A3D2A2F2A1F
:10329000212A152A082AFB29F229EE29E329D22915
:1032A000C629BF29AE29A0298F2981297029632920
:1032B000582947293629252914290329F128DF28E7
:1032C000D428C828C028B728B028A928A2288F2821
:1032D00083287228602850283F283028292827284A
:1032E000262818280728FF27EE27E427DB27D027E2
:1032F000BE27AE279E278F277E276E275F274F2763
:103300003B272B2720271027FF26F226EA26DE263A
:10331000CB26CA26BF26B626AF269F269026852610
:103320007E267126682657264626302618260F2622
:103330000B26F825EE25DD25CC25C025BC25B62598
:10334000A825A425A325992593258C2579256625CF
:1033500053254225312520250D25FA24E724D9249B
:10336000CE24C124B424A1248F247C24692456248F
:103370004A243C24352431242B2418240324F0230C
:10338000E923D523C023AC239F2391237D236C23E2
:103390005A234B233C232C231A230C230223ED22F4
:1033A000DE22CF22C022B122A222932284227122C5
:1033B0006122502247224122342226221822092249
:1033C000FA21EB21D021B72100FF5C310000000081
:1033D00000000000000000000000000000000000ED
:1033E00000000200002100240027002A002D0030E8
:1033F00000330001010000040107010A010000225E
:1034000000250028002B002E0031003400020100AE
:1034100000050108010B01000020002300260029FF
:10342000002C002F003200000100000301060109FA
:103430000105050505070508080808020202020A39
:103440000A08080404040401010101010101010347
:1034500003030303030303040707070C0C0C0C0C02
:103460000C0C0C0202020206060606060606060BF5
:103470000B0B0B0B0B0B0B0102102020080810206C
:1034800040102040800201020108040201010204F0
:1034900008102040808040201008040201800402AF
:1034A0000180402010080402010804020101020406
:1034B0000810204080010204081020408000000A0B
:1034C0000B02090C0D0E08070304010000000000A8
:1034D00000000000000000000000000000000000EC
:1034E00000000000000000000012111000000000A9
:1034F00000000000000000000000000000000000CC
:10350000000000424C4B20002500F00F2C00A00FC3
:103510003300500F3A00000F4300B00E4D00600E14
:103520005800100E6300C00D7000700D7E00200D5D
:103530009000D00CA300800CB900300CD200E00B3E
:10354000F000900B1101400B3701F00A6301A00A53
:103550009801500AD601000A1E02B0096F026009E4
:10356000D00210094003C008C103700854042008A9
:10357000FC04D007B70580078C0630076807E00613
:10358000550890064E0940064B0AF005320BA0057F
:10359000140C5005D80C00058C0DB004180E6004F6
:1035A0008F0E1004F00EC0033A0F7003730F200348
:1035B000BD0F8002DC0F0802E90FB801F20F6801AD
:1035C000F80F1801FC0FC800FF0F00004800901A08
:1035D0004800A00F5800000F6C00600E8400C00D62
:1035E000A400200DD000800C1001E00B5801400B0E
:1035F000C001A00A4C02000A08036009F803C008D1
:1036000028052008B00680075408E006180A40067E
:10361000C80BA005300D0005400E6004FC0EC00371
:10362000740F2003BC0F8002E00FE001F40FF000E4
:10363000FB0FC800FC0FA0000400501D7C00D00947
:10364000A4001009CC008008F40010081C01B80781
:10365000440168076C0128079401E806BC01B8061C
:10366000E40188060C026006340238065C02180683
:103670008402F005AC02D805D402B805FC02980516
:103680002403800574035005C403280514040005B1
:103690006404D804B404B0042C058004A4055804C0
:1036A0001C062804940600040C07D803AC07A803E2
:1036B0004C087803EC0848038C092003A40AD002C4
:1036C0001C0BA802AC0C2802FC0C0802C40DB801AB
:1036D000140E9801B40E38012C0FE000540FB800FE
:1036E0007C0F8800A40F4800F40F28FFFC0FC0F9DE
:1036F000000000008C030800AE035000D603A000B9
:10370000F703F00018044001380490015904E00167
:103710007A0430029A048002BB04D002FC047003D5
:103720002605C003860630079709A00F750D201CDB
:10373000520E401F1F0F6022FF0F803E0400081D25
:10374000900058091C01B007A801C80634023006D1
:10375000C002C0054C036805D80318056404D004F2
:10376000F00498047C056004080630049406000404
:103770002007D003AC07A80338088003C408580307
:1037800050093003DC090803680AD802F40AB002C1
:10379000800B88020C0C6002980C3002240DF8019A
:1037A000B00DC0013C0E8001C80E3001540FB800AE
:1037B000B40F2800E00F00000400401D90006009D5
:1037C0001C01B007A801D00634023806C002C805A3
:1037D0004C036805D80318056404D804F004980461
:1037E0007C05600408063004940600042007D0031A
:1037F000AC07A80338088003C408580350093003F5
:10380000DC090803680AE002F40AB802800B8802A7
:103810000C0C6002980C3002240DF801B00DC001B0
:103820003C0E8001C80E3001540FB800B40F2800C0
:10383000E00F000004000016D800C006AC017805B7
:103840008002C004540348042804E803FC049803DD
:10385000D0055003A40618037807D8024C08A80224
:1038600020097002F4093802C80A08029C0BD00132
:10387000700C9001440D5001180EF800EC0E8800F9
:10388000C00F00000400681D4C00500B9400580944
:10389000DC0050082401A8076C012807B401C00609
:1038A000FC017006440228068C02F005D402B8051B
:1038B0001C03880564035805AC033005F4031005A8
:1038C0003C04E8048404C804CC04A804140590044F
:1038D0005C057004A4055804EC0538043406200483
:1038E0007C060804C406F0030C07D8035407C80379
:1038F0009C07B003E40798032C0880037408700346
:10390000BC085803040948034C0930039409180300
:10391000DC090803240AF0026C0AE002B40AC802B7
:10392000FC0AB002440BA0028C0B8802D40B70027C
:103930001C0C5802640C4002AC0C2802F40C10025F
:103940003C0DF001840DD801CC0DB801140E980186
:103950005C0E7001A40E4801EC0E1801340FD80063
:103960007C0F8800C40F0800FC0F0000000000005E
:103970000000000000000000000000000000000047
:103980000000000000000000000000000000000037
:103990000000401F450060094F0010095C00C0088E
:1039A0006B0070087D0020089200D007AC008007F3
:1039B000CC003007DE00E006230190065E014006E1
:1039C000A601F005FF01A0056D025005F3020005F8
:1039D0009603B0045A046004400510044806C0036E
:1039E0006E077003A8082003EB09D002230B8002A6
:1039F000410C3002390DE001040E9001A20E40018D
:103A0000170FF000690FA000A20F5000C60F0000B2
:103A1000DD0FB0FFEB0F60FF0400700DD80048040D
:103A2000AC0158038002D8025403800228043802F3
:103A3000FC040002D005C801A406980178077001B3
:103A40004C08480120091801F409F000C80AC80010
:103A50009C0BA000700C7000440D3800180E000084
:103A6000EC0EA8FFC00FE8FE0400001B5400600924
:103A7000640010097400C008840070089C002008CD
:103A8000B800D007D8008007000130072C01E006FD
:103A900068019006AC0140060002F0056802A0052E
:103AA000E0025005740300052404B004F00460042F
:103AB000DC051004E406C003040870033009200389
:103AC000780B8002600DE001A80E4001680FA00095
:103AD000C00F0000E80F60FF0400801AD8009808AB
:103AE000AC012007800250065403C805280458057D
:103AF000FC040005D005B004A40668047807280477
:103B00004C08E8032009B003F4097003C80A38031D
:103B10009C0BF802700CB002440D6802180E0802EB
:103B2000EC0E8801C00F8800F00F00000000A00F0D
:103B30005C006009690010097900C0088C007008F9
:103B4000A2002008BD00D007DE0080070501300775
:103B50003401E0066D019006B20140060702F0054F
:103B60006D02A005E80250057B0300052B04B0049C
:103B7000F8046004EB06C003350920037F0B8002C4
:103B8000650DE001B00E40011D0FF000480FC800A8
:103B90006C0FA000ED0F60FFFE0F48FE4550523A3B
:103BA0003120004550523A30200053656C656374F3
:103BB00045787472756465723A003A0054617267B0
:103BC0006574457874720054617267657442656407
:103BD0003A002C3BD83A683A183A0000000000003E
:103BE000903984383438B8373C37F0363836CC35ED
:103BF00008351C151C140000002243141F1F132E2F
:103C00001B315072696E7465722073657420696E21
:103C1000746F206472792072756E206D6F646520F8
:103C2000756E74696C207265737461727421002002
:103C30006D61726B6564206465636F75706C65643B
:103C400000206D61726B6564206465666563740055
:103C50003A20776F726B696E67003A2074656D70F9
:103C60002073656E736F72206465666563740065AA
:103C7000787472756465722000686561746564208B
:103C800062656400627573793A70726F636573730D
:103C9000696E6700446F6F72206F70656E006275A9
:103CA00073793A646F6F72206F70656E006275731E
:103CB000793A68656174696E6700627573793A7004
:103CC000617573656420666F722075736572206913
:103CD0006E746572616374696F6E00526573656EB0
:103CE000643A006F6B200020676F74200045727289
:103CF0006F723A6578706563746564206C696E658F
:103D00002000736B697020006F6B000000000000E2
:103D1000000000001C01000000000000000000F492
:103D20000000000000000000000019010000000079
:103D3000000000000017010000000000000000006B
:103D40001C01000000000000000000F40000000062
:103D5000000000000000180100000000000000004A
:103D60000017012C3D213D163D0B3D583D4D3D4278
:103D70003D373D05CB040400633D05CB0404006BD7
:103D80003D4865617465722F73656E736F7220664E
:103D900061696C7572650044697361626C696E6714
:103DA00020616C6C20686561746572732064756550
:103DB00020746F2064657465637465642073656E38
:103DC000736F72206465666563742E002064656796
:103DD0002E204300206D6561737572656420004577
:103DE00072726F723A436F756C64206E6F742068E4
:103DF0006F6C642074656D70657261747572652096
:103E000000206D7300206166746572200045727237
:103E10006F723A54656D702E20726169736564200B
:103E2000746F20736C6F772E2052697365203D206C
:103E3000004F6E6520686561746572207365656DFD
:103E400073206465636F75706C65642066726F6D56
:103E500020746865726D6973746F72202D206469B7
:103E60007361626C696E6720616C6C20666F722092
:103E700073616665747921004865617465722064B8
:103E800065636F75706C6564004865617465642076
:103E9000626564206578636565646564206D61783A
:103EA0002074656D706572617475726521002045BE
:103EB0003A00205A3A0020593A00583A002044303B
:103EC0003A0020403A002042403A00205241570038
:103ED0002044423A0020423A00202F00543A005336
:103EE000706565644D756C7469706C793A00466CE8
:103EF0006F774D756C7469706C793A0046616E73BA
:103F0000706565643A00206D696E0020686F757297
:103F1000732000206461797320005072696E7469A7
:103F20006E672074696D653A006D20005072696E8D
:103F30007465642066696C616D656E743A00496EE3
:103F400076616C69642061726300582028412920E1
:103F5000746F77657220666C6F6F72207365742062
:103F6000746F3A2000592028422920746F776572B7
:103F700020666C6F6F722073657420746F3A200036
:103F80005A2028432920746F77657220666C6F6F02
:103F9000722073657420746F3A20006D6F766554DB
:103FA0006F202F20717565756544656C74614D6F68
:103FB00076652072657475726E73206572726F72A9
:103FC00000506F7346726F6D53746570733A002CB6
:103FD00000436F6D7044656C74613A00546F77658F
:103FE0007220333A00546F77657220323A00546F72
:103FF00077657220313A0043616C6962726174695D
:104000006F6E206D6F76656D656E74206973206CC0
:10401000696D6974656420746F2031306D6D2E0098
:104020004669727374206D6F766520746F20746FAB
:1040300075636820617420782C793D302C302074B1
:104040006F206175746F2D7365742072616469757A
:10405000732E0043616C6962726174696F6E206DCA
:104060006F76656D656E74206973206C696D697417
:10407000656420746F2031306D6D2E0043616E6E6B
:104080006F74207365742072616469757320616E4A
:104090006420666C6F6F722061742073616D65209F
:1040A00074696D652E0043616C6962726174696F39
:1040B0006E20636F6465206973206C696D69746537
:1040C0006420746F20626F74746F6D20313025200E
:1040D0006F66205A206865696768740052656C6174
:1040E0007469766520706F736974696F6E696E6745
:1040F000004162736F6C75746520706F73697469C9
:104100006F6E696E67006578656375746547436FA8
:104110006465202F20717565756544656C74614D0B
:104120006F76652072657475726E73206572726F3A
:104130007200556E6B6E6F776E20636F6D6D616E82
:10414000643A0050726F746F636F6C20766572739F
:10415000696F6E206368616E6765642C2075706797
:10416000726164696E670044657465637465642098
:10417000454550524F4D2076657273696F6E3A0017
:10418000457874722E004550523A33200045505203
:104190003A322000000000000000000000F700009C
:1041A0000000000000000000DA009F419441000080
:1041B0000310270200AA412F006572726F722077E8
:1041C000726974696E6720746F2066696C6500504F
:1041D0004944204175746F74756E652066696E6917
:1041E00073686564202120506C6163652074686584
:1041F000204B702C204B6920616E64204B6420633F
:104200006F6E7374616E747320696E2074686520BC
:10421000436F6E66696775726174696F6E2E682090
:104220006F7220454550524F4D00204F00204C00EA
:10423000204B002042002041002048002043002065
:104240004400205200204A00204900205000205302
:1042500000204600204500205A0020590020580028
:10426000205072696E7465722073746F707065642B
:1042700020616E642068656174657273206469737F
:1042800061626C65642064756520746F2074686970
:1042900073206572726F722E204669782065727283
:1042A0006F7220616E64207265737461727420771E
:1042B000697468204D3939392E00666174616C3A31
:1042C000005344206572726F7220646964206E6FBF
:1042D00074207265636F76657221005344206572A5
:1042E000726F72206669786564005344205265617C
:1042F00064204572726F72005344207265616420BD
:104300006572726F7200446F6E65207072696E74B0
:10431000696E672066696C65004563686F3A0000E6
:1043200000420FA1071605D0030D038B022E02E8F1
:1043300001B2018601630145012C0117010401F45A
:10434000000000000000000000000000000000006D
:104350000024F403D950C38EB1C2A23D96828B359E
:1043600082127AE372816CCB66A861015DC758EB5B
:10437000546151204E1E4B5648C14559431A4101C4
:104380003F093D2F3B7139CD374036C93465331471
:1043900032D430A32F802E6B2D632C672B752A8E81
:1043A00029B028DC2710274B268F25D9242B2482DF
:1043B00023E0224322AC211A218D200420801F00FB
:1043C0001F841E0C1E971D261DB81C4E1CE61B824A
:1043D0001B201BC11A641A0A1AB2195D190A19B9ED
:1043E000186A181C18D11788174017FA16B51673D3
:1043F000163116F115B31576153A150015C7148F39
:104400001458142214EE13BA13881356132513F6F6
:1044100012C71299126C1240121512EB11C11198A9
:1044200011701148112111FB10D610B1108D1069B7
:1044300010461024100210E10FC00FA00F800F6172
:104440000F420F230F060FE80ECB0EAF0E930E7721
:104450000E5C0E410E270E0D0EF30DDA0DC10DA8E8
:104460000D900D780D600D490D320D1B0D050DEFF2
:104470000CD90CC30CAE0C990C850C700C5C0C4860
:104480000C350C210C0E0CFB0BE80BD60BC40BB23D
:104490000BA00B8E0B7D0B6B0B5A0B4A0B390B29A8
:1044A0000B180B080BF80AE90AD90ACA0ABB0AACAE
:1044B0000A9D0A8E0A800A710A630A550A470A3958
:1044C0000A2C0A1E0A110A040AF709EA09DD09D0B2
:1044D00009C409B709AB099F09920987097B096FCC
:1044E00009630958094C09410936092B09200915A6
:1044F000090A090009F508EB08E008D608CC08C24B
:1045000008B808AE08A4089A08900887087D0874BF
:10451000086B08610858084F0846083D0834082C05
:104520000823081A08120809080108F807F007E824
:1045300007E007D807D007C807C007B807B007A823
:1045400007A10700002110422063308440A550C617
:1045500060E770088129914AA16BB18CC1ADD1CEC1
:10456000E1EFF13112100273325222B5529442F748
:1045700072D662399318837BB35AA3BDD39CC3FF11
:10458000F3DEE36224433420040114E664C774A418
:104590004485546AA54BB528850995EEE5CFF5AC61
:1045A000C58DD55336722611163006D776F6669528
:1045B00056B4465BB77AA719973887DFF7FEE79DB1
:1045C000D7BCC7C448E5588668A778400861180278
:1045D000282338CCC9EDD98EE9AFF9488969990A01
:1045E000A92BB9F55AD44AB77A966A711A500A3388
:1045F0003A122AFDDBDCCBBFFB9EEB799B588B3B51
:10460000BB1AABA66C877CE44CC55C222C033C60D7
:104610000C411CAEED8FFDECCDCDDD2AAD0BBD68A0
:104620008D499D977EB66ED55EF44E133E322E5167
:104630001E700E9FFFBEEFDDDFFCCF1BBF3AAF59F0
:104640009F788F8891A981CAB1EBA10CD12DC14E61
:10465000F16FE18010A100C230E3200450254046F4
:10466000706760B9839893FBA3DAB33DC31CD37F13
:10467000E35EF3B1029012F322D232354214527744
:10468000625672EAB5CBA5A89589856EF54FE52CE3
:10469000D50DC5E234C324A0148104667447642494
:1046A000540544DBA7FAB79987B8975FE77EF71DF3
:1046B000C73CD7D326F2369106B0165766767615E4
:1046C0004634564CD96DC90EF92FE9C899E9898A43
:1046D000B9ABA94458654806782768C018E1088234
:1046E00038A3287DCB5CDB3FEB1EFBF98BD89BBB53
:1046F000AB9ABB754A545A376A167AF10AD01AB384
:104700002A923A2EFD0FED6CDD4DCDAABD8BADE8A2
:104710009DC98D267C076C645C454CA23C832CE0D3
:104720001CC10C1FEF3EFF5DCF7CDF9BAFBABFD932
:104730008FF89F176E367E554E745E932EB23ED123
:104740000EF01E00401454466F726D617420657245
:10475000726F720057726F6E6720636865636B7368
:10476000756D005265717565737450617573653A46
:10477000486F6D696E67206661696C6564210043EE
:10478000617365206C6967687473206F66660043A7
:10479000617365206C6967687473206F6E00526581
:1047A000717565737453746F703A007C3C3E5E2B78
:1047B0003D3F2F5B5D3B2C2A225C004361703A0039
:1047C000436F6E6669673A00496E666F3A004572DC
:1047D000726F723A00494E46004E414E0057617268
:1047E0006E696E673A00207A3A0020793A002078A4
:1047F0003A00496E76616C69642064656C7461206E
:10480000636F6F7264696E617465202D206D6F76C1
:10481000652069676E6F726564004E6F206D6F76FC
:104820006520696E2064656C7461207365676D65D1
:104830006E742077697468203E2031207365676D3F
:10484000656E742E20546869732073686F756C648C
:10485000206E657665722068617070656E20616E8D
:1048600064206D61792063617573652061207072C9
:104870006F626C656D2100696E20717565756544A8
:10488000656C74614D6F766520746F2063616C6335
:10489000756C61746544656C7461537562536567CA
:1048A0006D656E74732072657475726E73206572B7
:1048B000726F722E0000000100000000FFFF000078
:1048C00000000100000D0E0000003FCDCC4C3D0A61
:1048D000D7A33B6F12033A4E414E494E49545949B2
:1048E0004E46CDCCCC3D0AD7233C17B7D13877CC38
:1048F0002B329595E6241FB14F0A0000204100009D
:10490000C84200401C4620BCBE4CCA1B0E5AAEC555
:104910009D74C102C70211241FBECFEFD1E2DEBFDA
:10492000CDBF00E00CBF14E0A0E0B2E0E6E7F0E5A8
:1049300002E00BBF02C007900D92A032B107D9F779
:104940002DE1A0E2B4E001C01D92A43BB207E1F763
:1049500014E2CAE8D4E200E006C021970109802FE2
:10496000FE010F94031FC938D10780E00807A9F79B
:104970000F946C130D9429280C9400002F923F92F1
:104980004F925F926F927F928F929F92AF92BF925F
:10499000CF92DF92EF92FF920F931F93CF93DF930B
:1049A000CDB7DEB7C759D1090FB6F894DEBF0FBE39
:1049B000CDBF8C01DC0116968D919C911797893C97
:1049C000910511F40C94E63108F4F0C18836B1E099
:1049D0009B0711F40C947D3308F050C2823E910580
:1049E00011F40C942C3708F00FC38E3C910509F498
:1049F000A5C708F0C0C38B3C910509F414C510F499
:104A00000C948E368C3C910511F40C9453368D3CED
:104A1000910511F00C94BA2D1092340361ED7BE0F6
:104A200084E094E00E94F2BB68EC7BE08BE490E0D1
:104A30000E94B1D143E063EB7BE081E890E00E940B
:104A4000D0D160EA7BE08DE790E00E94B1D162E8CE
:104A50007BE08FE490E00E94B1D169E57BE083E5E3
:104A600090E00E94B1D144E06CE47BE08BE090E008
:104A70000E94D0D143E067E37BE087E190E00E94B1
:104A8000D0D143E060E27BE083E290E00E94D0D1AD
:104A900043E06FE07BE087E290E00E94D0D143E00A
:104AA00060E07BE085E890E00E94D0D143E061EFD8
:104AB0007AE089E890E00E94D0D143E062EE7AE0AB
:104AC0008DE890E00E94D0D143E060ED7AE081E98A
:104AD00090E00E94D0D143E06EEB7AE085E990E06F
:104AE0000E94D0D143E06CEA7AE089E990E00E942C
:104AF000D0D166E97AE08BE793E00E9416BC6EE7BE
:104B00007AE089E793E00E9416BC43E068E67AE029
:104B10008BE390E00E94D0D143E06BE47AE087E43D
:104B200090E00E94D0D143E062E37AE081E793E035
:104B30000E94D0D143E060E17AE085E793E00E94F3
:104B4000D0D143E066EF79E08DE993E00E94D0D1C7
:104B500067ED79E08DE793E00E9416BC68EB79E0A1
:104B60008FE793E00E9416BC69E979E081E893E061
:104B70000E9416BC43E06BE879E085E893E00E9470
:104B8000D0D143E06DE779E089E893E00E94D0D18D
:104B900043E060E779E08DE893E00E94D0D143E004
:104BA0006DE579E081E993E00E94D0D143E06AE4C9
:104BB00079E085E993E00E94D0D143E067E379E0B2
:104BC00089E993E00E94D0D143E061E279E085EA8F
:104BD00093E00E94D0D143E06BE079E089EA93E072
:104BE0000E94D0D143E065EF78E08DEA93E00E9427
:104BF000D0D143E06EED78E080E094E00E94D0D127
:104C000067EC78E088E194E00E9416BC60EB78E005
:104C10008AE690E00E94F2BB6EE978E08BE690E0D5
:104C20000E94F2BB6CE878E08CE790E00E94F2BB57
:104C300043E06DE778E08CE690E00E94D0D143E05D
:104C40006EE678E080E790E00E94D0D143E06FE527
:104C500078E084E790E00E94D0D165E478E088E7CE
:104C600090E00E94F2BB62E278E08CEF93E00E9459
:104C7000F2BB43E06BE078E080EE93E00E94D0D19D
:104C800043E063EF77E088EE93E00E94D0D143E009
:104C90006CED77E08CEE93E00E94D0D143E067EBBF
:104CA00077E080EF93E00E94D0D143E061EA77E0C3
:104CB00088EF93E00E94D0D143E064E977E088EC8C
:104CC00090E00E94D0D143E06FE777E08CEC90E079
:104CD0000E94D0D143E069E677E080ED90E00E9449
:104CE000D0D143E063E577E084ED90E00E94D0D13D
:104CF00060E477E086E291E00E9416BC6DE277E026
:104D000088ED90E00E94F2BB6FE177E089ED90E0E2
:104D10000E94F2BB61E177E085EF90E00E94F2BB78
:104D200044E06CEF76E08AED90E00E94D0D144E060
:104D300061EF76E08EED90E00E94D0D144E066EE27
:104D400076E082EE90E00E94D0D160ED76E086EED3
:104D500090E00E94F2BB6FEB76E087EE90E00E945D
:104D6000B1D16EEA76E08BEE90E00E94B1D16DE9B0
:104D700076E082E291E00E94B1D164E876E08FEEC5
:104D800090E00E9416BC6EE576E08AEF90E00E940B
:104D900016BC68E376E08CEF90E00E9416BC6AE1F6
:104DA00076E08EEF90E00E94F2BB77C284359105E9
:104DB00009F48AC608F487C08237910509F49CC6B5
:104DC00008F4A1C08837910509F46CC608F44DC2F7
:104DD0008A3A910511F40C948B2F08F478C28E3B1B
:104DE000910509F410C5883C910509F0C3C6E0910E
:104DF0003405F09135058081982FD8012D913C9193
:104E000031FFFEC4F801EC5AFF4F20812111F8C494
:104E1000A12CB12C90E0F801228122FD02C00C945B
:104E2000CD37C6A4D7A4E0A8F1A823FF07C0D801B6
:104E3000D296CD90DD90ED90FC90D59725E82A9DF7
:104E4000F0012B9DF00D1124E35FFC4FC082D18255
:104E5000E282F382891711F40C94FB4020E030E0E9
:104E6000A901C701B6010F948226B50181110C94E6
:104E7000343886E690E10F946B010FC2863F41E023
:104E8000940711F40C94EB2F08F0FEC0833CA1E0D2
:104E90009A0711F40C94E42F08F0C7C18139E1E0BE
:104EA0009E0709F4D9C210F40C94F632823931E02D
:104EB000930711F40C94C032823C914009F05AC619
:104EC0000E9429A0EAC18B31910511F40C94DC31C8
:104ED00008F420C18A32910509F43CC408F44EC399
:104EE0008135910509F4E0C210F40C94D036823576
:104EF000910509F482C48335910509F03BC681E030
:104F000080933605CAC18936910509F496C608F022
:104F100051C18C35910509F401C208F4F0C48336FF
:104F2000910509F46DC58836910509F023C60E94E4
:104F30002DB3F82E8111B1C10E94904460935405A5
:104F400070935505809356059093570580911203F1
:104F500083FDA3C1D8018D919C91119793FD0FC042
:104F600092FD02C00C94623E5E968D909D90AD9035
:104F7000BC90919781149104A104B10471F40E9432
:104F8000A0C5F8018081918192FD02C00C94623E1F
:104F9000F801868C978CA0A0B1A091FD02C00C9462
:104FA000BE3CF801EC5AFF4F208121110C94BE3C0D
:104FB00090FF11C0FF24F39420E030E0A901D80154
:104FC0005A966D917D918D919C915D970F94492199
:104FD00018160CF0F12CC501B4010F948826F801C5
:104FE0002281338132FD02C00C94F341E25BFF4F1A
:104FF00020813181428153810F942F1F00E02F2D9A
:1050000040E00E94D0B549C18E32F1E09F0709F41B
:1050100020C708F061C2893131E0930709F427C243
:1050200008F4A7C6823251E0950709F43EC68C32D7
:10503000914009F09FC5D8018D919C91119792FDE7
:1050400002C00C942F385E96CD90DC905F9793FD54
:1050500002C00C94EE37F80182A093A0A4A0B5A0E2
:10506000AA24BB2480914803853211F40C94C140DA
:105070008F3F11F40C94D43EC501B4010E945944F1
:1050800085E20E9440A209C18835F2E09F0709F439
:105090005BC308F04CC2833132E0930709F40EC2BF
:1050A00008F474C38431A2E09A0711F40C944533D8
:1050B0008B31924009F05EC5D8012D913C9111973A
:1050C00032FF11C05E968D919D910D90BC91A02DE7
:1050D000892B8A2B8B2B11F40C9462428091E10472
:1050E00080628093E10433FFD8C0F80182A193A1CC
:1050F000A4A1B5A1892B8A2B8B2B11F40C945E3DB6
:10510000809158059091590584609093590580933A
:105110005805C3C08631910511F40C94293208F466
:105120006FC28831910509F49AC110F40C94AA3227
:105130008931910511F40C94A1324A9709F01AC5EE
:10514000F8018081918192FFA8C0468D578D60A1A2
:1051500071A180913D0B882309F49FC04093340BCB
:105160005093350B6093360B7093370B83E19BE0C4
:105170000E94E26F92C0813D910509F436C110F49E
:105180000C94F5368C3D910511F40C94EA368D3D66
:10519000910509F0EFC4D8018D919C91119792FD72
:1051A00002C00C94F6375E968D919C915F970E9499
:1051B00053BD73C08B36910509F4F9C008F44CC592
:1051C0008D36910509F425C28F36910509F0D2C4B8
:1051D000F8018081918192FF02C00C94504193FFAD
:1051E00011C0F80182A193A1A4A1B5A118161906B6
:1051F0001A061B0614F00C94EE3C20911203822B2D
:105200000E946EA08091120383FF47C000E020E05F
:1052100040E060E070E0CB010E94D0B540E060E08B
:1052200070E0CB010E9457B538C0853C51E095072E
:1052300009F4D8C010F40C94A632843FB1E09B0767
:1052400009F42BC5853F914009F094C481E00E9488
:105250003DD2E0913405F091350580810E94BAB9C4
:1052600087E69FE00F94070218C08437910509F480
:1052700012C108F4B3C48537910509F489C487378E
:10528000910509F077C4109234030E94A0C50F94D1
:10529000B3020F94B3020E94A1A0C956DF4F0FB60C
:1052A000F894DEBF0FBECDBFDF91CF911F910F915C
:1052B000FF90EF90DF90CF90BF90AF909F908F9036
:1052C0007F906F905F904F903F902F9008958C3813
:1052D000910509F4DAC58B39910509F04BC4F80141
:1052E0008081918192FF0AC0868D978DA0A1B1A186
:1052F000892B8A2B8B2B11F40C9455388091E10467
:1053000080618093E1040E94904460932104709333
:1053100022048093230490932404BFCFF80180815A
:1053200083FF0CC0428553856485758540930402D4
:1053300050930502609306027093070284FF0FC02A
:10534000D8011E964D915D916D917C91519740933E
:1053500008025093090260930A0270930B0285FFC2
:105360000DC0F80182899389A489B58980930C02C4
:1053700090930D02A0930E02B0930F020E94BC9A6C
:10538000D8018C9186FF89CF209134053091350565
:1053900056968D919D910D90BC91A02DF901858718
:1053A0009687A787B08B80810E94BAB976CF80910B
:1053B0002C0583FD72CFD8018D919C91119793FF9D
:1053C0000BC092968D919D910D90BC91A02D01974F
:1053D000A105B10509F461CF60E080E090E00E9492
:1053E00005BD5BCF0E9429A058CFD8018D919C911B
:1053F000119792FF52CF61E05E968D919D910D9035
:10540000BC91A02D892B8A2B8B2B11F40C944F3837
:1054100080912C05826080932C0570E087E290E1FA
:105420000F946B013ACFD8018D919C91119792FD09
:1054300002C00C94413881E05E964D915D916D9172
:105440007C9191974F3F51056105710511F40C94C2
:1054500003418093200421CF0E9424FB1ECF809122
:105460003D0B882309F419CF0E94088116CFD8017B
:105470008C9183FF02C00C94BC378AED9FE00F949F
:10548000070280E00E949C9968EC70E080E090E068
:105490000E945944FFCF86EB92E00E94B1BB8CE39F
:1054A00092E00E94B1BBF9CE0E94A0C5269A8091DD
:1054B000D20A8F7B8093D20A2E9AEFCEF801EE5A51
:1054C000FF4F6081718144E150E083E195E00F94EA
:1054D000BA2310922705E1CE8435B1E09B0709F489
:1054E00090C410F40C945A388E3521E0920709F4D8
:1054F000D4CE8336914009F03DC3D8018D919C9163
:10550000119792FF11C05E968D919D910D90BC9167
:10551000A02D892B8A2B8B2B11F00C943F4080916E
:105520000B018F7E80930B010E94D2F5B6CE8F388F
:10553000E3E09E0710F00C9436338B38F3E09F07BE
:1055400008F0ABCE893522E0920711F40C94FE32BC
:105550008E39924009F00EC3F8018081918192FF4B
:105560009CCE668D89E690E00F94C9270E9408D2F0
:10557000682F88E690E00F94C9278FCE8D31910572
:1055800009F48BCE08F4A1C78E31910509F465C7E3
:10559000809709F0EFC2D8018D919C9197FF7DCE45
:1055A00060E083ED9AE00E9425F5F801EE5AFF4F86
:1055B000C080D18080913D0B882309F46ECE10927B
:1055C0003C0B83E19BE00E9417F41E8E19A2198206
:1055D0001C82EE24E3948E010F5F1F4F9E01255C19
:1055E0003F4FA60166EF7AE0CE014E960E941BEC7B
:1055F00081110C94A84188EF95E00F94D7014DCE0E
:105600008431910509F46DC008F4B0C20E946EDEC9
:1056100044CE0E942DB3F82E81113FCE0E949044BB
:1056200060935405709355058093560590935705E4
:105630008091120383FD31CE0E94A0C5C090340535
:10564000D0903505D8018D919C9191FF0AC0F80149
:10565000EC5AFF4F2081211104C03DE8C32E32E0F7
:10566000D32E92FD02C00C94234190FF0FC0FF2463
:10567000F39420E030E0A901F801628D738D848DF0
:10568000958D0F94492118160CF0F12CD601EC9051
:10569000F801668D778D80A191A10F948826D8019D
:1056A00012962D913C91139732FD02C00C944B4100
:1056B000F801E25BFF4F20813181428153810F94D9
:1056C0002F1F01E02F2D4E2D0E94D0B50E94904437
:1056D0006093540570935505809356059093570534
:1056E000DCCD1E8E19A280EA95E00F94D70160E010
:1056F00083ED9AE00E9425F568ED7AE0CE014E96A2
:105700000E94BF7419821C8240E050E0BA01CE01B1
:105710004E960E94E26F1092A30883EA98E09AAF37
:1057200089AF8DE1FE017E96DE01119601900D920A
:105730008A95E1F760E0CE0101960E9478DE82E969
:1057400095E00F94D701A9CD61E088E893E10E942C
:10575000C852A3CDF8012081318133FF9ECDD2A064
:10576000AD2CB3A0E3E3F2E107C0319642E1EE34A1
:10577000F40711F40C942142849190E0A816B90624
:10578000A1F782ED91E10F94EE0187CD8231924035
:1057900009F0F0C1F8018281938191FF0CC0E65BB2
:1057A000FF4F60817181828193810F946720709394
:1057B0001B0260931A02D8018D919C91119792FD62
:1057C00002C00C9420385E968C91882311F40C94BE
:1057D00020388091E10488608093E104809158052D
:1057E0009091590580618B7F90935905809358055E
:1057F0001092E9080E94767C50CD109236054DCD6E
:10580000A82EB12C08CB8091120383FD46CD82EAED
:1058100090E00E94EAA260E00E94F3E80E94767C99
:105820000E94A0C5F8018081918192FD02C00C9474
:105830001B3D90FD02C00C94183DFF24F39420E022
:1058400030E0A901628D738D848D958D0F9449216F
:10585000181614F00C94183DD8015E966D917D9148
:105860008D919C9191970F948826F8012281338124
:1058700032FD02C00C94133DE25BFF4F2081318169
:10588000428153810F942F1F4F2D0E9457B52091B5
:10589000460230914702409148025091490260917E
:1058A00042027091430280914402909145020F940C
:1058B0002E1F6B017C0120E030E0A9010F944921EB
:1058C000181614F00C94053D20E030E040E450E45C
:1058D000C701B6010F94822687FDDFCC8CE392E0EE
:1058E0000E94B1BB10925C090E94904460935405E1
:1058F000709355058093560590935705CECC85350A
:10590000910509F037C1D8018D919C91119792FDB5
:1059100002C00C9445385E962D913D914D915C915D
:105920009197A8EEB3E00F94102860932805709328
:10593000290580932A0590932B05AFCC1092340350
:10594000F801808191819C0122273A7021153A400B
:1059500021F5F801EC5AFF4F2081213011F40C940D
:10596000164110F40C940641223011F40C944B3D76
:10597000233099F483FF11C0F80162A173A18285DD
:105980009385A485B58589839A83AB83BC8344E0E2
:1059900050E0CE0101960F94C0270E9408D2682FD4
:1059A00088E690E0C956DF4F6883C759D0400F940E
:1059B000AE27C956DF4F6881C759D040681721F01C
:1059C00088E690E00F94C927D80192964D915D9199
:1059D0006D917C919597485C51096109710981E04D
:1059E000483552406105710508F080E00E943DD2C3
:1059F000E0913405F091350580810E94BAB94DCC13
:105A0000D801ED91FC911197F2FD02C00C949537ED
:105A10005E962D913D914D915C919197A8EEB3E0EA
:105A20000F9410286B017C01E3FF04C05F9AD8013A
:105A3000ED91FC91E4FF04C08A9AD801ED91FC91AC
:105A4000E5FF05C0809108018160809308010E94F4
:105A50009044C60ED71EE81EF91E02C00E94EA99A5
:105A60000E949044A7019601261B370B480B590B47
:105A7000DA01C901803A9648A140B10578F3D8010E
:105A80008C9183FF02C05F988C9184FF03C08A9839
:105A9000F801808185FF01CC809108018E7F809381
:105AA0000801FBCBD8018D919C9188279C708115B2
:105AB0009C4009F0F2CBD80192966C9192975E9639
:105AC0008C910E94F1A3E9CBF8018081918192FD34
:105AD00002C00C94443E268D378D40A151A1A8EE02
