:100000000C9467280C9498280C9498280C949828A1
:100010000C9498280C9498280C9498280C94982860
:100020000C9498280C9498280C9498280C94982850
:100030000C9498280C9424B00C9498280C9498282C
:100040000C9498280C94739B0C9498280C949828E2
:100050000C9498280C9498280D941D360D94B13367
:100060000C9498280D94F3350D94C3350C9498286E
:100070000C9498280C9498280C9498280C94982800
:100080000C94B2A30C9498280C9498280C9498285B
:100090000C9498280C9498280C9498280C949828E0
:1000A0000C9498280C9498280C9498280C949828D0
:1000B0000C9498280C9498280C9498280C949828C0
:1000C0000C9498280C9498280C9498280C949828B0
:1000D0000C9498280C9498280C9498280C949828A0
:1000E0000C94982820441B440F440344F7432544B0
:1000F000EF43E743DB43CF43C343B243A6439A43B3
:1001000025448E4382436743854AF949F949F949B1
:10011000F949F949F949F949F949F949F949F949CF
:10012000F949F949F949F949F949F949F949F949BF
:10013000F949F949F949F949F949F949994AF9490E
:10014000F949AF4AF949C14ACB4AE04AF949F94964
:10015000F949F949F949F949F949F949F949294B5D
:10016000F949F949464B5D4B744BF949B04BCA4BC1
:10017000F949F949F949F949F949F949F949F9496F
:10018000F74BF949F949134C4E4C7E4CF949F94962
:10019000994CF949F949B64CF949F949C64C144DFD
:1001A000F949F9492E4DF949F949F949464D5B4D4F
:1001B0005A4A0F4B2E872E87608360834D87B77D09
:1001C000B77DB77DB77DB77D58838887B77DB77D0D
:1001D000B77DB77DB77DB77DB77DB77D4887358360
:1001E000B77DB77DB77DB77DB77DB77D018377815B
:1001F0006B81528144814683B77DB77DB77DB77DE2
:10020000B77DB77DB77DB77DB77DB77DB77DB77D4E
:10021000B77DB77DB77DB77DB77DB77DB77DB77D3E
:10022000B77DB77DB77DB77DB77DB77DB77DB77D2E
:10023000B77DB77DB77DB77DB77DB77DB77DB77D1E
:10024000B77DB77DB77DB77DB77DB77DB77DB77D0E
:10025000B77DB77DB77DB77DB77DB77DB77DB77DFE
:10026000B77DB77DB77DB77D388335817080B77D29
:10027000B77DB77DB77DB77DB77DB77D0880B77D8A
:10028000B77DB77DB77DB77DB77DB77DB77DB77DCE
:10029000B77DB77DB77DB77DB77DB77DB77DB77DBE
:1002A000B77DB77DB77DB77DB77DB77DB77DB77DAE
:1002B000B77DB77DB77DB77DB77DAF7FED7E0C7E17
:1002C000B77DDE7D0CA422A43EA4E9A34AA4E9A341
:1002D0002CA4E9A38AAE8EAE92AE98AE9EAE89AE45
:1002E000A4AEAAAEB0AEB6AEBCAEC2AEC8AECEAED6
:1002F00089AED4AEDAAE84AE93CBA0C7A0C7A0C7F8
:10030000A0C7A0C7A0C7A0C7A0C7A0C7A0C7A0C7B5
:10031000A0C7A0C7A0C7A0C7A0C7A0C7A0C7A0C7A5
:10032000A0C7A0C7A0C762CBF1CBC6CB2FCB09CB50
:10033000DFCAAECA7BCA50CA1DCAEBC9B8C92FC929
:10034000FFC8CDC8A1C8A0C776C84DC826C8A0C7D9
:10035000A0C7A0C7FCC7D6C778C7A0C7A0C7A0C7FB
:10036000A0C7A0C7A0C762CBF1CBC6CB2FCB09CB10
:10037000DFCAAECA7BCA50CA1DCAEBC9B8C92FC9E9
:10038000FFC8CDC8A1C8A0C776C84DC826C8A0C799
:10039000A0C7A0C7FCC7D6C778C705F9EDF8EDF828
:1003A000EDF8EDF8EDF8EDF8EDF8EDF8EDF8EDF825
:1003B000EDF8EDF8DAF8EDF8EDF8EDF8ABF8ABF8AC
:1003C000ABF8ABF8ABF8ABF8ABF8ABF8ABF8ABF815
:1003D000ABF8ABF8ABF8ABF8ABF8ABF8ABF8ABF805
:1003E000ABF8ABF8ABF8ABF8ABF8ABF8ABF8ABF8F5
:1003F000ABF8ABF8ABF8ABF8ABF8ABF8ABF8DAF8B6
:10040000DAF8DAF8ABF8ABF8ABF8ABF8ABF8ABF876
:10041000ABF8DAF8DAF8ABF8ABF8ABF8ABF8ABF866
:10042000ABF8ABF8ABF8ABF8ABF8ABF8ABF8ABF8B4
:10043000ABF8ABF8ABF8ABF8ABF8ABF8ABF8ABF8A4
:10044000ABF8ABF8ABF8ABF8ABF8ABF8ABF8ABF894
:10045000ABF8ABF8ABF8ABF8ABF8ABF8EDF8EDF800
:10046000EDF8DAF80BF9CDF9CDF9CDF9CDF9CDF9F3
:10047000CDF9CDF9CDF9CDF9CDF9CDF9CDF975F9A4
:10048000CDF9CDF9CDF9B4F8B4F8B4F8B4F8B4F8BE
:10049000B4F8B4F8B4F8B4F8B4F8B4F8B4F8B4F8FC
:1004A000B4F8B4F8B4F8B4F8B4F8B4F8B4F8B4F8EC
:1004B000B4F8B4F8B4F8B4F8B4F8B4F8B4F8B4F8DC
:1004C000B4F8B4F8B4F8B4F875F975F975F9B4F886
:1004D000B4F8B4F8B4F8B4F8B4F8B4F86AF94CF96C
:1004E0002EF9B4F8B4F8B4F8B4F8B4F8B4F8B4F831
:1004F000B4F8B4F8B4F8B4F8B4F8B4F8B4F8B4F89C
:10050000B4F8B4F8B4F8B4F8B4F8B4F8B4F8B4F88B
:10051000B4F8B4F8B4F8B4F8B4F8B4F8B4F8B4F87B
:10052000B4F8B4F8B4F8B4F8B4F8B4F816F9084A62
:10053000D73B3BCE016E84BCBFFDC12F3D6C7431F7
:100540009ABD56833DDA3D00C77F11BED9E4BB4C4E
:100550003E916BAAAABE000000803F05A84CCDB218
:10056000D44EB93836A9020C50B9918688083CA6F9
:10057000AAAA2ABE000000803F000D94C60D0D946B
:10058000C80D0D94A4440D94C40D0D94370E0D9414
:100590009A0D0D94CE0D0D940F0E0D941B0E0D940F
:1005A000C1100D94330E0D94AA0F0D94A3440D9415
:1005B0002D0E0D94F80D0D949B0D0D943F340D945C
:1005C000030E0D946D340D94310E0D94FB330D9488
:1005D000AB0F0D94AC100D94350E0D9430340D947A
:1005E000F60D0D94FA0D0D94020E0D94BF0D0D94A1
:1005F000CD0D0D942F0E0D9458340D94390E0D948D
:10060000A90F456E642066696C65206C697374007F
:10061000426567696E2066696C65206C6973740059
:100620005344207072696E74696E672062797465D4
:1006300020004E6F74205344207072696E74696E8E
:10064000670057726974696E6720746F2066696C01
:10065000653A20006F70656E206661696C65642C78
:100660002046696C653A20004372656174696F6E5B
:10067000206661696C6564004469726563746F72B9
:10068000792063726561746564006578747275645D
:10069000657220636F6F6C6572207370656564208E
:1006A0005B302D3235355D0064697374616E63654E
:1006B00020746F2072657472616374207768656E50
:1006C0002068656174696E67205B6D6D5D0074659F
:1006D0006D702E20666F722072657472616374692A
:1006E0006F6E207768656E2068656174696E67203B
:1006F0005B435D0074656D702E2073746162696C7C
:10070000697A652074696D65205B735D005A2D6F91
:100710006666736574205B73746570735D00592D34
:100720006F6666736574205B73746570735D0058E3
:100730002D6F6666736574205B73746570735D00FE
:10074000504944206D61782076616C7565205B307E
:100750002D3235355D0050494420442D6761696E66
:100760000050494420492D6761696E00504944207A
:10077000502D6761696E2F646561642D74696D65C4
:1007800000504944206472697665206D696E00509E
:100790004944206472697665206D617800686561FE
:1007A00074206D616E61676572205B302D335D0072
:1007B000507265686561742074656D702E205BB041
:1007C000435D00616363656C65726174696F6E207F
:1007D0005B6D6D2F735E325D0073746172742066A1
:1007E00065656472617465205B6D6D2F735D006D6E
:1007F00061782E206665656472617465205B6D6D3D
:100800002F735D00737465707320706572206D6D59
:100810000052657472616374696F6E20756E646FE7
:100820002073706565640045787472612065787422
:10083000727573696F6E206F6E20756E646F2072B3
:10084000657472616374205B6D6D5D0052657472D6
:10085000616374696F6E207A2D6C696674205B6DBC
:100860006D5D0052657472616374696F6E207370A0
:10087000656564205B6D6D2F735D005265747261F8
:100880006374696F6E206C656E677468205B6D6D54
:100890005D00456E61626C6520726574726163749F
:1008A000696F6E20636F6E76657273696F6E205B21
:1008B000302F315D0042656420504944206D6178DD
:1008C0002076616C7565205B302D3235355D0042D8
:1008D00065642050494420442D6761696E0042657B
:1008E000642050494420492D6761696E0042656467
:1008F0002050494420502D6761696E004265642094
:10090000504944206472697665206D696E004265C5
:100910006420504944206472697665206D617800D6
:100920004265642048656174204D616E616765723F
:10093000205B302D335D0042656420507265686530
:1009400061742074656D702E205BB0435D0041754D
:10095000746F6C6576656C206163746976652028B8
:10096000312F3029005A2D70726F62652062656EDA
:1009700064696E6720636F7272656374696F6E205D
:1009800043205B6D6D5D005A2D70726F6265206251
:10099000656E64696E6720636F7272656374696FF8
:1009A0006E2042205B6D6D5D005A2D70726F626526
:1009B0002062656E64696E6720636F72726563742E
:1009C000696F6E2041205B6D6D5D005A2D70726FF6
:1009D0006265205933205B6D6D5D005A2D70726F1A
:1009E0006265205833205B6D6D5D005A2D70726F0B
:1009F0006265205932205B6D6D5D005A2D70726FFB
:100A00006265205832205B6D6D5D005A2D70726FEB
:100A10006265205931205B6D6D5D005A2D70726FDB
:100A20006265205831205B6D6D5D005A2D70726FCC
:100A30006265206F66667365742079205B6D6D5DFD
:100A4000005A2D70726F6265206F66667365742040
:100A500078205B6D6D5D005A2D70726F6265207835
:100A60002D792D7370656564205B6D6D2F735D004E
:100A70005A2D70726F6265207370656564205B6DBE
:100A80006D2F735D004D61782E207A2D70726F622C
:100A900065202D2062656420646973742E205B6D6F
:100AA0006D5D005A2D70726F6265206865696768B8
:100AB00074205B6D6D5D00436F6174696E672074B7
:100AC0006869636B6E657373205B6D6D5D00436F6A
:100AD00072722E20646961676F6E616C2043205BC7
:100AE0006D6D5D00436F72722E20646961676F6E79
:100AF000616C2042205B6D6D5D00436F72722E2031
:100B0000646961676F6E616C2041205B6D6D5D0093
:100B100044656C74612052616469757320432830A8
:100B2000293A0044656C74612052616469757320D0
:100B3000422830293A0044656C746120526164692E
:100B4000757320412830293A00416C706861204358
:100B5000283930293A00416C7068612042283333CB
:100B600030293A00416C70686120412832313029C7
:100B70003A00546F776572205A20656E6473746F03
:100B800070206F6666736574205B73746570735D47
:100B900000546F776572205920656E6473746F70AE
:100BA000206F6666736574205B73746570735D0097
:100BB000546F776572205820656E6473746F70206F
:100BC0006F6666736574205B73746570735D004D4A
:100BD0006178207072696E7461626C652072616404
:100BE000697573205B6D6D5D00486F72697A6F6E19
:100BF00074616C20726F6420726164697573206126
:100C00007420302C30205B6D6D5D00446961676F2E
:100C10006E616C20726F64206C656E677468205B17
:100C20006D6D5D0054726176656C20616363656C07
:100C300065726174696F6E205B6D6D2F735E325DDE
:100C400000416363656C65726174696F6E205B6DF2
:100C50006D2F735E325D005365676D656E74732F23
:100C60007320666F72207072696E74696E670053CC
:100C700065676D656E74732F7320666F7220747272
:100C80006176656C005A206D6178206C656E6774C2
:100C900068205B6D6D5D0059206D6178206C656E1C
:100CA000677468205B6D6D5D0058206D6178206C05
:100CB000656E677468205B6D6D5D005A206D696EAE
:100CC00020706F73205B6D6D5D0059206D696E2023
:100CD000706F73205B6D6D5D0058206D696E2070C4
:100CE0006F73205B6D6D5D004D61782E206A6572BB
:100CF0006B205B6D6D2F735D00486F6D696E6720B3
:100D00006665656472617465205B6D6D2F735D004F
:100D10004D61782E206665656472617465205B6D37
:100D20006D2F735D00537465707320706572206D54
:100D30006D0053746F7020737465707065722061FC
:100D40006674657220696E6163746976697479206E
:100D50005B6D732C303D6F66665D004D61782E20B3
:100D6000696E6163746976652074696D65205B6D79
:100D7000732C303D6F66665D005072696E746572EB
:100D800020616374697665205B735D0046696C6100
:100D90006D656E74207072696E746564205B6D5D44
:100DA000004261756472617465004C616E677561C3
:100DB000676500504944204175746F74756E6520F5
:100DC0006661696C6564212074696D656F75740076
:100DD000504944204175746F74756E652066616971
:100DE0006C6564212054656D7065726174757265FF
:100DF00020746F6F206869676800204B643A200098
:100E0000204B693A2000204B703A200020436C614F
:100E10007373696320504944002054753A200020C0
:100E20004B753A2000206D61783A2000206D696E84
:100E30003A200020643A200020626961733A200061
:100E4000504944204175746F74756E6520737461E8
:100E50007274004E6F2063617365206C69676874FB
:100E600073004D617854656D703A004469616D6539
:100E70007465723A00416363656C65726174696F91
:100E80006E3A004D617853706565643A004A657248
:100E90006B3A004D617842656454656D703A00505C
:100EA00072696E746572547970653A44656C7461E8
:100EB000005A54726176656C416363656C3A0059FF
:100EC00054726176656C416363656C3A0058547284
:100ED0006176656C416363656C3A005A5072696E65
:100EE00074416363656C3A00595072696E74416372
:100EF00063656C3A00585072696E74416363656C47
:100F00003A005A53697A653A005953697A653A004A
:100F10005853697A653A005A4D61783A00594D61E3
:100F2000783A00584D61783A005A4D696E3A005946
:100F30004D696E3A00584D696E3A0052657472619F
:100F40006374696F6E556E646F53706565643A00C3
:100F500052657472616374696F6E556E646F457823
:100F60007472614C6F6E674C656E6774683A0052BC
:100F7000657472616374696F6E556E646F457874E1
:100F800072614C656E6774683A0052657472616391
:100F900074696F6E5A4C6966743A00526574726176
:100FA0006374696F6E53706565643A00526574725C
:100FB000616374696F6E4C6F6E674C656E677468C1
:100FC0003A0052657472616374696F6E4C656E6746
:100FD00074683A004B656570416C697665496E745A
:100FE000657276616C3A004A65726B58593A0050E6
:100FF00072696E746C696E6543616368653A004539
:101000004550524F4D3A004175746F6C6576656C72
:101010003A005A50726F62653A00436173654C69D9
:10102000676874733A00537570706F72744C6F63B5
:10103000616C46696C616D656E746368616E67654D
:101040003A00537570706F72744731304731313ADE
:10105000005A486F6D65506F733A0059486F6D655F
:10106000506F733A0058486F6D65506F733A005A6D
:10107000486F6D654469723A0059486F6D654469FF
:10108000723A0058486F6D654469723A00536F6652
:101090007477617265506F776572537769746368AE
:1010A0003A004C43443A0046616E323A30004661A1
:1010B0006E3A005344436172643A00486561746556
:1010C000644265643A004D6978696E674578747268
:1010D000756465723A004E756D4578747275646515
:1010E000723A00496E7075744275666665723A00B0
:1010F00042617564726174653A00436F6E66696738
:1011000075726174696F6E20726573657420746F97
:101110002064656661756C74732E00696E666F3A43
:10112000436F6E74696E75652066726F6D206661BF
:1011300074616C2073746174650000546573746924
:101140006E6720666174616C206572726F7200292F
:10115000203D20002C0042656E64696E672061743A
:10116000202800436F6E66696775726174696F6EDF
:10117000206C6F616465642066726F6D2045455018
:10118000524F4D2E00436F6E6669677572617469C8
:101190006F6E2073746F72656420746F20454550C4
:1011A000524F4D2E00436F6C6420657874727573D6
:1011B000696F6E20646973616C6C6F77656400435E
:1011C0006F6C6420657874727573696F6E20616CE2
:1011D0006C6F7765640054726967676572696E67E2
:1011E000207761746368646F672E204966206163AD
:1011F000746976617465642C207468652070726906
:101200006E7465722077696C6C2072657365742EDC
:10121000005761746368646F672064697361626C0E
:101220006564004175746F726574726163743A002D
:101230004A65726B3A0020746F2000536574207603
:101240006F6C756D657472696320657874727573FF
:10125000696F6E20666F722065787472756465724E
:10126000200044697361626C656420766F6C756DF3
:10127000657472696320657874727573696F6E2026
:10128000666F7220657874727564657220002050F4
:1012900052454845415400505245484541545F42EB
:1012A00045443A00205A533A002059533A005853C3
:1012B0003A00505245484541543A31005041555347
:1012C0004553544F503A3100544F47474C455F4CBB
:1012D00049474854533A3000534F465457415245BA
:1012E0005F504F5745523A31005A5F50524F424576
:1012F0003A31004155544F4C4556454C3A31004522
:101300004550524F4D3A31004155544F5245504F80
:1013100052545F54454D503A310050524F47524558
:1013200053533A31004649524D574152455F4E4161
:101330004D453A52657065746965725F312E302E85
:1013400030646576204649524D574152455F5552AB
:101350004C3A68747470733A2F2F676974687562B9
:101360002E636F6D2F72657065746965722F52659B
:101370007065746965722D4669726D776172652F4B
:101380002050524F544F434F4C5F56455253494F94
:101390004E3A312E30204D414348494E455F545915
:1013A00050453A44656C7461204558545255444543
:1013B000525F434F554E543A31205245504554499F
:1013C00045525F50524F544F434F4C3A330050698F
:1013D0006E2063616E206E6F742062652073657489
:1013E000206279204D34322C20697320696E20737D
:1013F000656E7369746976652070696E732120006B
:101400002069732000496C6C6567616C20532076FD
:10141000616C756520666F72204D34320020746FE8
:101420002000536574206F75747075743A20000045
:101430000136372603023C3D380E0F2E303E121384
:101440000D0C0A081A1C180D0E358816536F667499
:1014500077617265205265736574005761746368C3
:10146000646F672052657365740042726F776E20F7
:101470006F75742052657365740045787465726E7B
:10148000616C20526573657400506F77657255709A
:1014900000110A0411040A1111001C1F11111F0070
:1014A00000040A0A0A0E1F1F0E001F1111111F004F
:1014B00000001F1F1F1F1F0000040A04000000007F
:1014C00000040E150404041C0042696C6C20426187
:1014D00069277320416E79437562696300416E79B3
:1014E0004375626963204B6F7373656C20506C7534
:1014F0007300526570657469657220312E302E302C
:10150000646576007A446973746F7274696F6E43B0
:101510006F7272656374696F6E3A0046726565201A
:1015200052414D3A0082000001004A144E65656444
:1015300073206C616E67756167652073656C6563A8
:1015400074696F6E007374617274007761697400FE
:1015500000002020203F2E3F3F0020486F6D696E25
:101560006700206465632000206465662000030036
:1015700004002000000000000000000000620000E5
:1015800000000000000000006100000000000000FA
:1015900000000060000000000000000000005F008C
:1015A00095158A157F1574150355040400A015457B
:1015B0006E676C69736800000003AC0F00000000E8
:1015C000B400000002A81500000000210000000483
:1015D00026044000000096000000044C04000000B7
:1015E00000BB000000044D0400000000BC0000002F
:1015F000042E040000000090000000042A040000F3
:1016000000008F000000042B04000000008E00008A
:1016100000042C04000000008D00000004290400D8
:101620000000008C000000041304000000005600BD
:1016300000000416040000000052000000040E0424
:101640000000000037000000040D04000000003618
:10165000000000040A040000000032000000000046
:1016600000000000008900000000000000000000F1
:10167000880000000000000000000086000000005C
:101680000000000000008500AF1503A42600000044
:10169000000000000004D00400000000220100004F
:1016A00004CF040000000028010000010000000039
:1016B000000021010000038204000000000A010074
:1016C00000038104000000003F00000003800400CC
:1016D0000000003E000000037F04000000003D0009
:1016E0000000037E04000000003C00791E031DC2C0
:1016F00015B715FD17791E1A160F160416F915EEF3
:1017000015E315D815AF19A41999198E19831978ED
:10171000196D19CD156219791E30162516791E51CD
:101720001646163B1667165C167D167216791E88CD
:1017300016A916791E9E169316791EE016D516CA9E
:1017400016BF16B4160200000500EB1602000011C9
:1017500000F5160200000300171702000004001D28
:10176000170358040200251703200402002917025A
:10177000000002002D1702000004003117020000D3
:1017800006003917000002451700000000B50000F0
:1017900000030704000000003B00000003060400F3
:1017A0000000003A000000024C17000000000F008B
:1017B0000000025317000000004E000000025A17FC
:1017C00000000000390000000261170000000087DF
:1017D00000000002681700000000840000000410F0
:1017E00004000000008B000000026F1700000000E2
:1017F000E400000003B40400000000D20000000375
:10180000D604000000002901000003CA0400000003
:10181000001001000003C904000000000F010000D7
:1018200003B20400000000D000000003C804000060
:1018300000001F01000002761700000000210100D7
:1018400000027D17000000001100000004BD04002C
:10185000001000E300000003B90400001000E100E4
:10186000000003B80400001000E000000003B6040C
:1018700000001000DF00000003B50400001000DECF
:1018800000000003BE0400001000DD00000003B7EC
:101890000400001000DC00000004B60F000000008F
:1018A0000901000004B50F00000000080100000459
:1018B000B40F00000000070100000000000000005D
:1018C00000F200000000000000000000AB0000007B
:1018D0000000000000000070000000000000000098
:1018E00000006F00000003E803000000002D01006D
:1018F00000038813000000002C01000004F2030024
:101900000000002A01000001000000000000CB00E0
:10191000791EE717DC17D117C617BB17B017A51725
:10192000F61F9A178F178417791E3F183418291835
:101930001E1813180818FD17F217791E8C18811835
:1019400076186B18601855184A18791EAD18A21829
:101950009718D918CE18C318B8180519FA18EF181F
:10196000E4180000042F04000000009B00000004A5
:10197000220440000000950000000426042000001E
:10198000009A0000000425042000000099000000D7
:101990000424042000000098000000042304200018
:1019A00000009700000004220420000000940000C2
:1019B00000042D040000000093000200000C001041
:1019C000190200000900281902000008003A190253
:1019D000000004004A1903F00304005219820000B9
:1019E00004005A19791EAF19A41999198E1983196F
:1019F00078196D1962190000000000000000001342
:101A000001000000000000000000F40000000000E1
:101A100000000000001D01000000000000000000A8
:101A2000F400000002BA19000010000D00000002CE
:101A3000C119000010000E01000002332100000057
:101A4000001000000002C81900001000D9000000BA
:101A500002F420000010000F00000002ED20000042
:101A600010000E00000004570410000000CA00001F
:101A70000003B40410000000D2000000045204105F
:101A80000000007E00000004480410000000B100C7
:101A9000000002DD1910000000CB000000041F044C
:101AA00010000000B00000000461041000000024D9
:101AB000000000046204100000002500000003C4C0
:101AC00004140000004A000000034B04100004004E
:101AD0004900000003C50410000400C90000000212
:101AE000FB20000010000B000000000000000000C0
:101AF000001C0100000000000000000016010000B2
:101B000000000000000000150100000000000000BF
:101B1000000014010000000000000000001C010093
:101B2000000000000000000016010000000000009E
:101B3000000000150100000000000000000014017A
:101B4000000000000000000000E0000000000000B5
:101B500000000000DA00000000000000000000DFCC
:101B600000000000000000000000DA00000000009B
:101B70000000000000E10000000000000000000084
:101B8000DA00000000000000000000DE000000009D
:101B9000000000000000DA0000000000000000006B
:101BA00000DD00000000000000000000DA0000007E
:101BB00000000000000000DC000000000000000049
:101BC0000000DA00000003E803000000002D01001F
:101BD0000003D704000000002C01000004D804001A
:101BE0000000002B0100000100000000000029019E
:101BF000000000000000000000CF00000000000016
:101C000000000000CE00000000000000000000CD39
:101C100000000000000000000000CC00000002CF27
:101C200019000000000601000004B30400000000D9
:101C3000D100000002172100000000210000000276
:101C40001E21000000001F000000022521000000EE
:101C5000001D000000034404000000002E000000EE
:101C600002D6190000000023000000033A0400001F
:101C700000002800000004620400000000250000AD
:101C8000000461040000000024000000033604008A
:101C9000000000C6000000034304000010001C0008
:101CA0000000033104000010001B00000003380492
:101CB000000000001A0000000347040000000018A4
:101CC000000000033704000000001700000002DDE0
:101CD0001900000000CB00000004520400000000C6
:101CE0007E00000004480400000000B10000000471
:101CF0001F0400000000B0000000045704000000B2
:101D000000CA00000003FD030000100013000000E3
:101D1000000000000000006E000000000000000055
:101D200000006D000000000000000000006C0000DA
:101D300000000000000000006B0000000000000038
:101D40000000006A000000000000000000006900C0
:101D5000000000000000000000680000000000001B
:101D600000000000670000000000000000000066A6
:101D700000000000000000000000650000000000FE
:101D800000000000006400000000000000000000EF
:101D9000630000000000000000000062000000007E
:101DA00000000000000061000000000000000000D2
:101DB0000060000000000000000000005F00000064
:101DC000000000000000005E0000000000000000B5
:101DD00000005D000000000000000000005C00004A
:101DE00000000000000000005B0000000000000098
:101DF0000000005A00000000000000000000590030
:101E0000000000000000000000580000000000007A
:101E1000000000005700000003C62410000000036B
:101E200000000003E80300000000040000000100BF
:101E30000000000000F400000001000000000000AD
:101E4000C900000003F403010002004D000000027D
:101E50002C2102000000C900000003F70306000067
:101E6000004A00000003F6030200040049000000DD
:101E700003F503010002004800000003E80300002E
:101E800000000A00000000000000000000A80000A0
:101E90000000000000000000A7000000000000009B
:101EA000000000A600000000000000000000A500E7
:101EB000000000000000000000130100000000000E
:101EC00000000000F40000000000000000000020FE
:101ED00001000000000000000000F4000200000902
:101EE00000E419171A0C1A011AF619791EDD1AD214
:101EF0001AC71ABC1AB11AA61A9B1A901A851A7A0E
:101F00001A6F1A641A6E1E591A4E1A431A381A2D6D
:101F10001A221A091BFE1AF31AE81A351B2A1B1F6C
:101F20001B141B4B1B401B611B561B771B6C1B8D13
:101F30001B821BA31B981BB91BAE1BE51BDA1BCF17
:101F40001BC41B111C061CFB1BF01B791E031D4828
:101F50001C3D1C321C5E1C271C1C1C791E7F1C7423
:101F60001C691C5E1C531C791E031DF81CED1CE231
:101F70001CD71CCC1CC11CB61CAB1CA01C951C8AFD
:101F80001C2F1D241D191D0E1D5B1D501D451D3AC6
:101F90001D871D7C1D711D661DB31DA81D9D1D92F5
:101FA0001DDF1DD41DC91DBE1D0B1E001EF51DEA23
:101FB0001D371E2C1E211E161E791E6E1E631E58F6
:101FC0001E4D1E421E791E8F1E841EA51E9A1ED1F6
:101FD0001EC61EBB1EB01E526571756573745061BE
:101FE0007573653A0052657175657374436F6E74ED
:101FF000696E75653A00000002DC1E00000000A258
:102000000005CC040400E31E2F2F20616374696F68
:102010006E3A726573756D650044656C6574696FC1
:102020006E206661696C65640046696C6520646554
:102030006C65746564000200001400EB1E05CE049C
:102040000400131F05CD0404001B1F03102702000A
:10205000231F0310270200271F03102702002B1F36
:1020600003102702002F1F0310270200331F031045
:10207000270200371F82000004003B1F45455052D5
:102080004F4D2075706461746564005072696E74A0
:102090006572206865696768743A000588130400F2
:1020A000431F2F2F20616374696F6E3A70617573DF
:1020B0006500696D706F7274616E743A2046696C68
:1020C000616D656E74206368616E6765207265710D
:1020D000756972656421004A616D20636F6E747268
:1020E0006F6C2064697361626C65643A0002000081
:1020F00008004B1F02000006005B1F0200000D00DD
:10210000671F03FC030400811F03FB030400891FF6
:1021100003FA030400911F03EF030400991F03EE69
:10212000030400A11F03ED030400A91F0200000423
:1021300000B11F0200000600B91F0100000100C528
:102140001F0310270200C71F0310270200CB1F0523
:10215000CC040400CF1F000000000000000000F1CC
:1021600000000000000000000000C40000000000AB
:102170000000000000F0000000000000000000006F
:10218000C300000000000000000000F30000000099
:10219000000000000000F40000000000000000004B
:1021A00000AF00000000000000000000AC000000D4
:1021B00000000000000000F300000000000000002C
:1021C00000005F000000000000000000005B000055
:1021D00000000000000000005700000000000000A8
:1021E000000000F300000000000000000000EE000E
:1021F000000000000000000000ED000000000000F2
:1022000000000000EB0077216C2161215621A32101
:1022100098218D218221CF21C421B921AE21FB211A
:10222000F021E521DA210000000400062200000070
:1022300004000E220000000400162200000004002A
:102240001E225A20636F7272656374696F6E206418
:10225000697361626C6564005A20636F72726563B2
:1022600074696F6E20656E61626C65640053442012
:10227000696E6974206661696C000046696C65204E
:1022800073656C6563746564002053697A653A0010
:1022900046696C65206F70656E65643A0066696CAE
:1022A000652E6F70656E206661696C6564003B2207
:1022B00034222D222622473238005344207072697E
:1022C0006E742073746F707065642062792075730A
:1022D00065722E008025000040380000004B000091
:1022E0008070000000960000C0DA000000E10000ED
:1022F000002C010008B2010000C2010000F401003E
:102300000084030090D0030000E8030000080700E9
:1023100020A1070000100E0040420F0060E31600ED
:1023200000000000496E76616C6964206172630090
:10233000526573657474696E67205A20636F727298
:10234000656374696F6E00582028412920746F7787
:10235000657220666C6F6F722073657420746F3ABB
:102360002000592028422920746F77657220666CFE
:102370006F6F722073657420746F3A20005A2028A2
:10238000432920746F77657220666C6F6F722073BB
:10239000657420746F3A2000506F7346726F6D53EE
:1023A000746570733A002C00436F6D7044656C74F3
:1023B000613A00546F77657220333A00546F776545
:1023C0007220323A00546F77657220313A004361CF
:1023D0006C6962726174696F6E206D6F76656D6590
:1023E0006E74206973206C696D6974656420746F04
:1023F0002031306D6D2E004669727374206D6F76DA
:102400006520746F20746F75636820617420782C68
:10241000793D302C3020746F206175746F2D736599
:1024200074207261646975732E0043616C69627215
:102430006174696F6E206D6F76656D656E7420696D
:1024400073206C696D6974656420746F2031306D20
:102450006D2E0043616E6E6F74207365742072611F
:102460006469757320616E6420666C6F6F722061A1
:10247000742073616D652074696D652E0043616C15
:102480006962726174696F6E20636F64652069733D
:10249000206C696D6974656420746F20626F747458
:1024A0006F6D20313025206F66205A20686569677E
:1024B00068740052656C617469766520706F736929
:1024C00074696F6E696E67004162736F6C757465D5
:1024D00020706F736974696F6E696E6700596F75EC
:1024E000206E65656420746F20646566696E652082
:1024F000582C205920616E64205A20746F20736517
:1025000074206120706F696E742100473332206C33
:102510006576656C696E67206661696C656421002B
:102520004733302070726F62696E67206661696C34
:1025300065642100473239206C6576656C696E6789
:10254000206661696C656421005265736574205A68
:1025500020686569676874005A2D70726F62652023
:1025600061766572616765206865696768743A00BD
:102570006578656375746547436F6465202F2071C6
:102580007565756544656C74614D6F76652072651F
:102590007475726E73206572726F7200556E6B6E19
:1025A0006F776E20636F6D6D616E643A005A2D70A7
:1025B000726F62652073746174653A007A5F6D6151
:1025C000783A004C2000482000795F6D61783A002D
:1025D000785F6D61783A00656E6473746F70732014
:1025E0006869743A200044656275674C6576656C6D
:1025F0003A005072696E7465724D6F64653A434E6D
:1026000043005072696E7465724D6F64653A4C6137
:10261000736572005072696E7465724D6F64653ACD
:10262000464646005859206A65726B2077617320D0
:10263000746F6F206C6F772C2073657474696E678C
:1026400020746F20006D6F7665546F5265616C2049
:102650002F20717565756544656C74614D6F766585
:102660002072657475726E73206572726F7200539A
:1026700044206361726420696E73657274656400DE
:10268000534420636172642072656D6F76656400E7
:10269000424C4B20000000000000000000001C0124
:1026A000000000000000000000F400000000000036
:1026B000000000001B0100000000000000000017E7
:1026C00001B626AB26A02695264D756C3A20256FBF
:1026D0006D252525202020204C61733A256F702020
:1026E00057004D756C3A20256F6D2525252020203B
:1026F000205370693A256F7052504D20005A773A36
:102700002578372020205A3A2578320059773A2503
:102710007836202020593A2578310058773A2578A4
:1027200035202020583A2578300053746172742087
:102730005A2D50726F6265004D6561737572696ED6
:1027400067202E2E2E005A2D4F66667365743A252B
:10275000587A00436C6F736500436F6E74696E75D1
:1027600065005265616C205A20506F733A255730CE
:102770006D6D0054656D702E202565632F254563B2
:102780000243004D6561732E2050726F62652048D0
:10279000656967687400426564202020203A20251E
:1027A0007062024300457874722E20363A202570FC
:1027B00035024300457874722E20353A2025703456
:1027C000024300457874722E20343A20257033027B
:1027D0004300457874722E20333A2025703202432C
:1027E00000457874722E20323A2025703102430061
:1027F000457874722E20313A202570300243005003
:102800007265686561742054656D70657261747578
:1028100072657300486F6D696E672E2E2E004175CC
:10282000746F6C6576656C206265640043616C69E9
:1028300062726174696F6E204572726F72004361DB
:102840006C6962726174696E672062656400202041
:1028500020203E3E3E204F6B203C3C3C004C6576A9
:10286000656C696E67206572726F720046696C6193
:102870006D656E7420736C697070696E6700486571
:1028800061746572206465636F75706C6564005473
:10289000656D702E2073656E736F7220646566655A
:1028A0006374004E6F74696669636174696F6E3A30
:1028B000006F62737472756374696F6E7300626522
:1028C0006420697320636C656172206F6620616E9D
:1028D00079004D616B6520737572652074686520A1
:1028E000686561746564002A2A2A20506C656173EA
:1028F000652077616974202A2A2A0043616E636526
:102900006C0046616E20322073706565643A25461E
:102910005325252500446973746F7274696F6E20A6
:10292000636F72722E3A254465004D65617375724E
:102930006520646973746F7274696F6E0053657497
:1029400075700025506E00255070252525004C61BE
:102950007965722025506C2F25504C00456E6453CC
:10296000746F703A25647000536574205A206F6646
:10297000667365743A2554326D6D00536574205941
:10298000206F66667365743A2554316D6D0053652A
:10299000742058206F66667365743A2554306D6DE7
:1029A00000536574207072696E74206F666673657B
:1029B0007473005A2D70726F62652068656967686C
:1029C000743A257A6800254433203320636F706998
:1029D000657300254432203220636F70696573008F
:1029E000254431203120636F707900254430204E1A
:1029F0006F20636F70696573002558352053656CCF
:102A000065637420657874722E2036002558342052
:102A100053656C65637420657874722E20350025CB
:102A200058332053656C65637420657874722E206A
:102A300034005475726E20657874722E2036206FC3
:102A40006666005475726E20657874722E2035208B
:102A50006F6666005475726E20657874722E20342D
:102A6000206F66660054656D702E2036203A25650D
:102A7000352F25453502430054656D702E203520D5
:102A80003A2565342F25453402430054656D702E78
:102A90002034203A2565332F254533024300202575
:102AA00042436D6D00052565630200052565632FB2
:102AB000254563020000256F7300255566206D20B3
:102AC0007072696E74656400255566206D00255529
:102AD0007400583A25783020593A257831004D75E0
:102AE0006C3A20256F6D202020453A257834005A15
:102AF0003A2578322020427566203A20256F420020
:102B0000422565422F2545620200052565632F2574
:102B1000456302422565422F2545620200256F73F9
:102B2000004275663A20256F42004D756C3A2025AB
:102B30006F6D25252520FD202020453A202578345D
:102B40006D00466C6F773AFD20256F6625252520A0
:102B500020205A3A257832000E202565622F25451F
:102B600062B020593A257831000A202565302F259A
:102B70004530B020583A257830004C616E67756159
:102B8000676500437573746F6D3A2542436D6D0040
:102B9000437573746F6D00476C756520737469635A
:102BA0006B00477265656E205045542074617065F6
:102BB00000426C756520706170657220746170658B
:102BC000004B6170746F6E004275696C6454616B88
:102BD000004E6F20636F6174696E67000042656428
:102BE00020636F6174696E672073657420746F0071
:102BF00042656420636F6174696E67005374616E2F
:102C0000646279004578747275646572206A616DDA
:102C10000074656D706572617475726573202E2E17
:102C20002E005761697420666F7220746172676547
:102C300074006578747275646572732E00436C69F4
:102C4000636B20746F207265686561740049676EFC
:102C50006F7265204D31303620636D6420254669E2
:102C600000536572766F20706F732E3A20256F5374
:102C7000004175746F6C6576656C3A20256C6C004C
:102C8000436C69636B207768656E20646F6E6500C6
:102C900066696C616D656E742075702F646F776EF8
:102CA00000526F7461746520746F206D6F766500DB
:102CB0004368616E67652066696C616D656E74005E
:102CC0004368616E67652066696C616D656E74004E
:102CD0005A2062616279737465702E3A256F596D5E
:102CE0006D0053746F70205072696E7400536C6F76
:102CF0007742616E6700446561642074696D6500A8
:102D000041545820706F776572206F6E2F6F666622
:102D1000007072696E7465640046696C616D656E01
:102D200074207072696E746564005072696E7469A3
:102D30006E672074696D6500003A002064617973E4
:102D400020005072696E7465722072656164792E1C
:102D5000005344206361726420696E736572746508
:102D60006400534420636172642072656D6F766500
:102D700064005761697420726574722E3A25585543
:102D8000206D6D00576169742074656D702E20256B
:102D900058540243004C6576656C2064656C746120
:102DA0000043616C63756C617465206C6576656C5D
:102DB000696E67005365742050330053657420506A
:102DC0003200536574205031005A2063616C69628F
:102DD0002E00536574205A3D30005265736574208F
:102DE0006D6561732E0053686F77206D6561732E7A
:102DF00000466C6F77206D756C2E203A256F662526
:102E00002525005370656564206D756C2E3A256F1D
:102E10006D2525250020423A2565622F2545620251
:102E2000437E256F620045333A2565322F254532B2
:102E300002437E256F320045323A2565312F254504
:102E40003102437E256F310045313A2565302F250B
:102E5000453002437E256F300020453A2565632FBB
:102E600025456302437E256F4300427566666572A1
:102E70003A256F420055706C6F6164696E672E2E43
:102E80002E006C6F6164656420662E2045455052AB
:102E90004F4D00436F6E66696775726174696F6E3E
:102EA0000073746F72656420696E20454550524FFF
:102EB0004D00436F6E66696775726174696F6E006D
:102EC000537465707065722064697361626C6564C7
:102ED000004B696C6C65640048656174696E6720BD
:102EE0006265640048656174696E67206578747214
:102EF0007564657200416374696F6E3A256C610098
:102F00005049440042616E6742616E6700592D4F1F
:102F100066667365743A25587900582D4F66667356
:102F200065743A25587800504944204D61783A2517
:102F30005844004472697665204D61783A25584DB1
:102F4000004472697665204D696E3A25586D0050CF
:102F5000494420443A2558640050494420493A25C0
:102F6000586900436F6E74726F6C2050574D3A254C
:102F7000584D004465616474696D653A2558700068
:102F800050494420503A25587000436F6E74726F58
:102F90006C3A25586800416476616E6365207175EE
:102FA00061643A25586100416476616E6365206C06
:102FB000696E3A25586C00537461622E54696D65D0
:102FC0003A25587700416363656C3A255841004DB6
:102FD00061782046523A2558460053746172742035
:102FE00046523A2558660053746570732F4D4D3A1A
:102FF0002553650042617564726174653A256F639B
:103000000047656E6572616C005B6D696E5D2030B6
:103010003D4F6666004469732E2061667465723A9E
:1030200020256970004D61782E20696E6163746996
:103030007665005B6D696E5D20303D4F66660044CD
:1030400069732E2061667465723A20256973005396
:1030500074657070657220696E616374697665006D
:103060005365742066616E2066756C6C00536574E0
:103070002066616E2037352525250053657420664E
:10308000616E203530252525005365742066616EFC
:10309000203235252525005475726E2066616E201C
:1030A0004F66660046616E2073706565643A25461A
:1030B000732525250046616E207370656564004D9B
:1030C000696E3A25737A204D61783A25735A005A11
:1030D0003A257832206D6D004D696E3A257379205E
:1030E0004D61783A25735900593A257831206D6D34
:1030F000004D696E3A257378204D61783A257358F2
:1031000000583A257830206D6D004D696E3A257370
:103110007A204D61783A25735A005A3A2578322040
:103120006D6D004D696E3A257379204D61783A25B1
:10313000735900593A257831206D6D004D696E3A0A
:10314000257378204D61783A25735800583A2578D0
:1031500030206D6D003120636C69636B203D203140
:10316000206D6D00453A257833206D6D00004D616E
:103170007820656E6473746F703A25735A004D69D8
:103180006E20656E6473746F703A25737A005A3AD4
:10319000257832206D6D00004D617820656E647376
:1031A000746F703A257359004D696E20656E6473B3
:1031B000746F703A25737900593A257831206D6D16
:1031C00000004D617820656E6473746F703A2573EA
:1031D00058004D696E20656E6473746F703A257384
:1031E0007800583A257830206D6D00004D617820C8
:1031F000656E6473746F703A25735A004D696E2062
:10320000656E6473746F703A25737A005A3A257844
:1032100032206D6D2025647A25645A00004D617856
:1032200020656E6473746F703A257359004D696E32
:1032300020656E6473746F703A25737900593A256E
:103240007831206D6D2025647925645900004D6129
:103250007820656E6473746F703A257358004D69F9
:103260006E20656E6473746F703A25737800583AF7
:10327000257830206D6D2025647825645800486FCE
:103280006D653A25665A00486F6D65205A3A256685
:103290005A00486F6D6520593A25665900486F6D90
:1032A0006520583A256658004D61783A25667A00BF
:1032B0004D6178205A3A25667A004D617820593A56
:1032C000256679004D617820583A25667800466574
:1032D0006564726174650044656C65746520666937
:1032E0006C65004D6F756E74206361726400556E7D
:1032F0006D6F756E74206361726400436F6E7469E4
:103300006E7565207072696E74005061757365200A
:103310007072696E74005072696E742066696C65B3
:1033200000416E7469206F6F7A65004D6F7665207D
:1033300061667465723A254F61004D696E2E64694D
:10334000737420203A254F64004261636B736C2EC6
:103350002020203A254F6200526574726163742008
:1033600020203A254F7200254F32204F50532066BF
:1033700061737400254F31204F505320636C61738B
:1033800073696300254F30204F5053206F666600ED
:103390004472792072756E3A256464004572726FCA
:1033A0007273203A25646500496E666F2020203ACA
:1033B000256469004563686F2020203A25646F000A
:1033C0004C6F616420662E20454550524F4D00538E
:1033D000746F726520746F20454550524F4D004107
:1033E0006363656C65726174696F6E005A2D4A651E
:1033F000726B203A25614A004A65726B2020203AA0
:1034000025616A004D6F76653A25615A004D6F76E9
:1034100065205A203A25615A004D6F766520592063
:103420003A256159004D6F76652058203A2561583C
:10343000005072696E743A25617A005072696E7438
:10344000205A3A25617A005072696E7420593A25E3
:103450006179005072696E7420583A256178005382
:103460006574204F726967696E0025583220536574
:103470006C65637420657874722E20330025583192
:103480002053656C65637420657874722E20320059
:103490002558302053656C65637420657874722EEE
:1034A0002031005475726E20657874722E2033209E
:1034B0006F6666005475726E20657874722E2032C5
:1034C000206F6666005475726E20657874722E20C7
:1034D00031206F66660054656D702E2033203A25CA
:1034E00065322F25453202430054656D702E20321F
:1034F000203A2565312F25453102430054656D7012
:103500002E2031203A2565302F25453002430042D8
:1035100065642074656D703A2565622F25456202E9
:1035200043004D6F7665204578747275646572004E
:103530004D6F7665205A2066617374004D6F766515
:10354000205A004D6F766520592066617374004DD6
:103550006F76652059004D6F76652058206661733F
:1035600074004D6F766520580044697361626C6524
:1035700020737465707065720053657420746F20D9
:103580006F726967696E00436F6F6C646F776E006E
:103590004C69676874733A256C6F00507265686592
:1035A000617420416C6C20457874722E00507265F5
:1035B000686561742053696E676C65204578747224
:1035C0002E00486F6D65205A00486F6D65205900C8
:1035D000486F6D65205800486F6D6520616C6C0008
:1035E000486F6D652064656C746100446562756741
:1035F00067696E67005344206361726400457874A4
:103600007275646572004D6F7665005365747469F8
:103610006E677300256F6500436F6E74726F6C0088
:103620004261636B2001002A2A2A2A204552524F08
:1036300052202A2A2A2A004E6F20534420636172A6
:10364000640049646C65005072696E74696E67004D
:103650005072696E74696E672E2E2E004E6F00597F
:103660006573004E2F41004F6666004F6E006B364B
:10367000673663365F365C36503647364236373605
:1036800027362036183614360B360636FD35F53516
:10369000EB35E035D735D035C935C235AD359B353D
:1036A0009035873579356935623556354F3543352F
:1036B0003C35303522350F35FC34E934D634C53449
:1036C000B434A33490347D346A345F345334473493
:1036D0003B343134253419340D340434F833EC33AD
:1036E000DF33CF33C033B433A8339C3390338433C8
:1036F00074336733583349333A332B33213316331A
:103700000A33FB32EE32E332D732CE32C432BA322F
:10371000B032A8329D32923287327E326E325E32C1
:103720004E324D323D322D321D321C320C32FC31C4
:10373000EC31EB31E231D231C231C131B831A83193
:10374000983197318E317E316E316D316431553122
:103750004C313C31333123311A310A310131F130EE
:10376000E830D830CF30BF30B530A4309730893012
:103770007B306D3060304F303F3033302530153086
:1037800009300130F42FE72FDA2FCF2FC52FB72FB5
:10379000A72F962F8A2F802F732F632F592F4F2FEC
:1037A000412F332F272F1A2F0D2F042F002FF52EE7
:1037B000E42ED82ED12EC02EB22EA12E932E822EE4
:1037C000752E6A2E592E482E372E262E152E032E94
:1037D000F12DE62DDA2DD22DC92DC22DBB2DB42D04
:1037E000A12D952D842D722D622D512D422D3B2D15
:1037F000392D382D2A2D192D112D002DF62CED2CBB
:10380000E22CD02CC02CB02CA12C902C802C712C14
:10381000612C4D2C3D2C322C222C112C042CFC2BF9
:10382000F02BDD2BDC2BD12BC82BC12BB12BA22BEA
:10383000972B902B832B7A2B692B582B422B2A2BDF
:10384000212B1D2B0A2B002BEF2ADE2AD22ACE2A6F
:10385000C82ABA2AB62AB52AAB2AA52A9E2A8B2AB2
:10386000782A652A542A432A322A1F2A0C2AF9293F
:10387000EB29E029D329C629B329A1298E297B293F
:1038800068295C294E29472943293D292A291529D8
:103890000229FB28E728D228BE28B128A3288F2890
:1038A0007E286C285D284E283E282C281E281428A7
:1038B000FF27F027E127D227C327B427A52796277C
:1038C00083277327622759275327462738272A2714
:1038D0001B270C27FD26E226C92605CB040400C1C0
:1038E0002600FF6E3600000000000000000000000F
:1038F00000000000000000000000000200002100A5
:10390000240027002A002D003000330001010000B0
:10391000040107010A0100002200250028002B00F5
:103920002E003100340002010000050108010B01E6
:10393000000020002300260029002C002F00320068
:103940000001000003010601090105050505070541
:1039500008080808020202020A0A0808040404040B
:103960000101010101010101030303030303030337
:10397000040707070C0C0C0C0C0C0C0C02020202C6
:1039800006060606060606060B0B0B0B0B0B0B0BAF
:103990000102102020080810204010204080020161
:1039A0000201080402010102040810204080804046
:1039B0002010080402018004020180402010080445
:1039C00002010804020101020408102040800102E3
:1039D00004081020408000000A0B02090C0D0E089C
:1039E00007030401000000000000000000000000C8
:1039F00000000000000000000000000000000000C7
:103A00000000121110000000000000000000000083
:103A10000000000000000000000000004320686972
:103A20007420666C6F6F720043706F732078207320
:103A30007175617265200043706F73207820737414
:103A4000657073200043706F732079207371756106
:103A50007265200043706F732079207374657073F2
:103A60002000422068697420666C6F6F720042709B
:103A70006F73207820737175617265200042706FDA
:103A8000732078207374657073200042706F732008
:103A90007920737175617265200042706F732079AF
:103AA0002073746570732000412068697420666C0F
:103AB0006F6F720041706F7320782073717561723F
:103AC00065200041706F73207820737465707320D7
:103AD0000041706F732079207371756172652000E9
:103AE00041706F7320792073746570732000466F86
:103AF000726D6174206572726F720057726F6E67BB
:103B000020636865636B73756D00204F00204C0067
:103B1000204B00204200204100204800204300208C
:103B20004400205200204A00204900205000205329
:103B300000204600204500205A002059002058004F
:103B400050726F746F636F6C2076657273696F6EFD
:103B5000206368616E6765642C20757067726164AC
:103B6000696E6700446574656374656420454550FB
:103B7000524F4D2076657273696F6E3A00457874C6
:103B8000722E004550523A3320004550523A3220AE
:103B9000004550523A31200052657175657374507A
:103BA000617573653A486F6D696E67206661696C0F
:103BB00065642100002C2000446973746F7274697D
:103BC0006F6E20636F7272656374696F6E206D61D2
:103BD000747269783A0053746F7070696E6720640C
:103BE0006973746F7274696F6E206D65617375723D
:103BF000656D656E742064756520746F20657272E2
:103C00006F72732E005265666572656E6365205A29
:103C100020666F72206D6561737572656D656E7477
:103C20003A00473333206661696C65642100526550
:103C3000717565737453746F703A007C3C3E5E2BF3
:103C40003D3F2F5B5D3B2C2A225C00000000000002
:103C500000000000F700000000000000000000DA93
:103C600000563C4B3C000310270200613C205A00E8
:103C70002059004733332058002F006572726F724D
:103C80002077726974696E6720746F2066696C654D
:103C900000504944204175746F74756E65206669E3
:103CA0006E6973686564202120506C6163652074BF
:103CB0006865204B702C204B6920616E64204B643A
:103CC00020636F6E7374616E747320696E20746804
:103CD0006520436F6E66696775726174696F6E2ED9
:103CE00068206F7220454550524F4D00446F6E65FD
:103CF00020736176696E672066696C652E00547268
:103D0000616E73666F726D6174696F6E206D617440
:103D10007269783A004865617465722F73656E73D5
:103D20006F72206661696C757265004469736162C7
:103D30006C696E6720616C6C206865617465727374
:103D40002064756520746F206465746563746564B0
:103D50002073656E736F72206465666563742E00F0
:103D6000206465672E204300206D65617375726560
:103D70006420004572726F723A436F756C64206EF6
:103D80006F7420686F6C642074656D706572617407
:103D90007572652000206D73002061667465722065
:103DA000004572726F723A54656D702E20726169AF
:103DB00073656420746F20736C6F772E2052697363
:103DC00065203D20004F6E65206865617465722036
:103DD0007365656D73206465636F75706C656420D1
:103DE00066726F6D20746865726D6973746F72208E
:103DF0002D2064697361626C696E6720616C6C2050
:103E0000666F72207361666574792100486561741C
:103E10006572206465636F75706C656400486561E8
:103E200074656420626564206578636565646564B3
:103E3000206D61782074656D70657261747572654E
:103E4000210020453A00205A3A00583A00204430D8
:103E50003A0020403A002042403A002052415700A8
:103E60002044423A0020423A00202F00543A0053A6
:103E7000706565644D756C7469706C793A00466C58
:103E80006F774D756C7469706C793A0046616E732A
:103E9000706565643A00206D696E0020686F757208
:103EA000732000206461797320005072696E746918
:103EB0006E672074696D653A006D20005072696EFE
:103EC0007465642066696C616D656E743A002500E6
:103ED000F00F2C00A00F3300500F3A00000F4300EA
:103EE000B00E4D00600E5800100E6300C00D700043
:103EF000700D7E00200D9000D00CA300800CB90046
:103F0000300CD200E00BF000900B1101400B370198
:103F1000F00A6301A00A9801500AD601000A1E02A5
:103F2000B0096F026009D00210094003C008C10344
:103F3000700854042008FC04D007B70580078C06DD
:103F400030076807E006550890064E0940064B0A00
:103F5000F005320BA005140C5005D80C00058C0D93
:103F6000B004180E60048F0E1004F00EC0033A0F58
:103F70007003730F2003BD0F8002DC0F0802E90FEE
:103F8000B801F20F6801F80F1801FC0FC800FF0F0D
:103F900000004800901A4800A00F5800000F6C0065
:103FA000600E8400C00DA400200DD000800C100114
:103FB000E00B5801400BC001A00A4C02000A0803A4
:103FC0006009F803C00828052008B00680075408D7
:103FD000E006180A4006C80BA005300D0005400E8B
:103FE0006004FC0EC003740F2003BC0F8002E00FBE
:103FF000E001F40FF000FB0FC800FC0FA00004006C
:10400000501D7C00D009A4001009CC008008F400E9
:1040100010081C01B807440168076C0128079401C7
:10402000E806BC01B806E40188060C02600634020A
:1040300038065C0218068402F005AC02D805D402EA
:10404000B805FC0298052403800574035005C403D9
:104050002805140400056404D804B404B0042C0535
:104060008004A40558041C062804940600040C07C8
:10407000D803AC07A8034C087803EC0848038C0964
:104080002003A40AD0021C0BA802AC0C2802FC0CD2
:104090000802C40DB801140E9801B40E38012C0F9B
:1040A000E000540FB8007C0F8800A40F4800F40F04
:1040B00028FFFC0FC0F9000000008C030800AE03CD
:1040C0005000D603A000F703F000180440013804A4
:1040D00090015904E0017A0430029A048002BB0482
:1040E000D002FC0470032605C0038606300797093A
:1040F000A00F750D201C520E401F1F0F6022FF0FD6
:10410000803E0400081D900058091C01B007A8015A
:10411000C80634023006C002C0054C036805D80347
:1041200018056404D004F00498047C0560040806B3
:104130003004940600042007D003AC07A803380815
:104140008003C408580350093003DC090803680AD7
:10415000D802F40AB002800B88020C0C6002980CA2
:104160003002240DF801B00DC0013C0E8001C80ED4
:104170003001540FB800B40F2800E00F0000040015
:10418000401D900060091C01B007A801D006340250
:104190003806C002C8054C036805D8031805640436
:1041A000D804F00498047C056004080630049406E2
:1041B00000042007D003AC07A80338088003C40814
:1041C000580350093003DC090803680AE002F40AC6
:1041D000B802800B88020C0C6002980C3002240D8F
:1041E000F801B00DC0013C0E8001C80E3001540F23
:1041F000B800B40F2800E00F000004000016D8003B
:10420000C006AC0178058002C004540348042804A9
:10421000E803FC049803D0055003A40618037807AC
:10422000D8024C08A80220097002F4093802C80A12
:1042300008029C0BD001700C9001440D5001180E27
:10424000F800EC0E8800C00F00000400681D4C0050
:10425000500B94005809DC0050082401A8076C0199
:104260002807B401C006FC017006440228068C022F
:10427000F005D402B8051C03880564035805AC0397
:104280003005F40310053C04E8048404C804CC049D
:10429000A804140590045C057004A4055804EC05FA
:1042A0003804340620047C060804C406F0030C0716
:1042B000D8035407C8039C07B003E40798032C08ED
:1042C000800374087003BC085803040948034C09B0
:1042D000300394091803DC090803240AF0026C0A6D
:1042E000E002B40AC802FC0AB002440BA0028C0B24
:1042F0008802D40B70021C0C5802640C4002AC0CF7
:104300002802F40C10023C0DF001840DD801CC0DF4
:10431000B801140E98015C0E7001A40E4801EC0E59
:104320001801340FD8007C0F8800C40F0800FC0F60
:10433000000000000000000000000000000000007D
:10434000000000000000000000000000000000006D
:104350000000000000000000401F450060094F0001
:1043600010095C00C0086B0070087D0020089200F6
:10437000D007AC008007CC003007DE00E006230148
:1043800090065E014006A601F005FF01A0056D0242
:104390005005F30200059603B0045A04600440057A
:1043A00010044806C0036E077003A8082003EB0939
:1043B000D002230B8002410C3002390DE001040EC3
:1043C0009001A20E4001170FF000690FA000A20F8C
:1043D0005000C60F0000DD0FB0FFEB0F60FF0400C0
:1043E000700DD8004804AC0158038002D802540371
:1043F000800228043802FC040002D005C801A4068B
:104400009801780770014C08480120091801F40947
:10441000F000C80AC8009C0BA000700C7000440D8E
:104420003800180E0000EC0EA8FFC00FE8FE0400D4
:10443000001B54006009640010097400C008840067
:1044400070089C002008B800D007D8008007000141
:1044500030072C01E00668019006AC01400600021E
:10446000F0056802A005E00250057403000524046D
:10447000B004F0046004DC051004E406C003040882
:10448000700330092003780B8002600DE001A80E54
:104490004001680FA000C00F0000E80F60FF04009B
:1044A000801AD8009808AC012007800250065403F7
:1044B000C80528045805FC040005D005B004A4066E
:1044C0006804780728044C08E8032009B003F409BD
:1044D0007003C80A38039C0BF802700CB002440D3C
:1044E0006802180E0802EC0E8801C00F8800F00F59
:1044F00000000000A00F5C0060096900100979004D
:10450000C0088C007008A2002008BD00D007DE00A3
:104510008007050130073401E0066D019006B20105
:1045200040060702F0056D02A005E80250057B0376
:1045300000052B04B004F8046004EB06C003350941
:1045400020037F0B8002650DE001B00E40011D0FBE
:10455000F000480FC8006C0FA000ED0F60FFFE0FC9
:1045600048FE4550523A30200053656C65637445EF
:10457000787472756465723A003A005461726765C6
:104580007445787472005461726765744265643A68
:1045900000F2449E442E44DE43000000000000561A
:1045A000434A42FA417E410241B640FE3F923FCE2D
:1045B0003E1C151C140000002243141F1F132E1B49
:1045C000315072696E7465722073657420696E74FF
:1045D0006F206472792072756E206D6F646520752E
:1045E0006E74696C20726573746172742100206D41
:1045F00061726B6564206465636F75706C656400DF
:10460000206D61726B656420646566656374003A51
:1046100020776F726B696E67003A2074656D702049
:1046200073656E736F722064656665637400657888
:1046300074727564657220006865617465642062D7
:10464000656400627573793A70726F63657373693C
:104650006E6700446F6F72206F70656E00627573D5
:10466000793A646F6F72206F70656E00627573794E
:104670003A68656174696E6700627573793A706152
:104680007573656420666F72207573657220696E3C
:10469000746572616374696F6E00526573656E64F0
:1046A0003A006F6B200020676F7420004572726FB4
:1046B000723A6578706563746564206C696E652014
:1046C00000736B697020006F6B00000021104220A6
:1046D00063308440A550C660E770088129914AA1E3
:1046E0006BB18CC1ADD1CEE1EFF13112100273325A
:1046F0005222B5529442F772D662399318837BB333
:104700005AA3BDD39CC3FFF3DEE3622443342004E9
:104710000114E664C774A44485546AA54BB5288582
:104720000995EEE5CFF5ACC58DD553367226111639
:104730003006D776F6669556B4465BB77AA71997D2
:104740003887DFF7FEE79DD7BCC7C448E5588668C1
:10475000A7784008611802282338CCC9EDD98EE922
:10476000AFF9488969990AA92BB9F55AD44AB77A99
:10477000966A711A500A333A122AFDDBDCCBBFFB72
:104780009EEB799B588B3BBB1AABA66C877CE44CA9
:10479000C55C222C033C600C411CAEED8FFDECCDC2
:1047A000CDDD2AAD0BBD688D499D977EB66ED55E79
:1047B000F44E133E322E511E700E9FFFBEEFDDDF12
:1047C000FCCF1BBF3AAF599F788F8891A981CAB19E
:1047D000EBA10CD12DC14EF16FE18010A100C230D0
:1047E000E3200450254046706760B9839893FBA38B
:1047F000DAB33DC31CD37FE35EF3B1029012F32220
:10480000D2323542145277625672EAB5CBA5A895DA
:1048100089856EF54FE52CD50DC5E234C324A0146F
:1048200081046674476424540544DBA7FAB799876A
:10483000B8975FE77EF71DC73CD7D326F2369106BF
:10484000B01657667676154634564CD96DC90EF9B2
:104850002FE9C899E9898AB9ABA94458654806780F
:104860002768C018E1088238A3287DCB5CDB3FEBCA
:104870001EFBF98BD89BBBAB9ABB754A545A376A5F
:10488000167AF10AD01AB32A923A2EFD0FED6CDD9A
:104890004DCDAABD8BADE89DC98D267C076C645CAF
:1048A000454CA23C832CE01CC10C1FEF3EFF5DCFAA
:1048B0007CDF9BAFBABFD98FF89F176E367E554EFF
:1048C000745E932EB23ED10EF01E0040145443612C
:1048D000703A00436F6E6669673A00496E666F3AD8
:1048E000004572726F723A00494E46004E414E00CA
:1048F000205072696E7465722073746F7070656495
:1049000020616E64206865617465727320646973E8
:1049100061626C65642064756520746F20746869D9
:1049200073206572726F722E2046697820657272EC
:104930006F7220616E642072657374617274207787
:10494000697468204D3939392E00666174616C3A9A
:10495000005344206572726F7220646964206E6F28
:1049600074207265636F766572210053442065720E
:10497000726F7220666978656400534420526561E5
:1049800064204572726F7200534420726561642026
:104990006572726F7200446F6E65207072696E741A
:1049A000696E672066696C65004563686F3A000050
:1049B00000420FA1071605D0030D038B022E02E85B
:1049C00001B2018601630145012C0117010401F4C4
:1049D00000000000000000000000000000000000D7
:1049E0000024F403D950C38EB1C2A23D96828B3508
:1049F00082127AE372816CCB66A861015DC758EBC5
:104A0000546151204E1E4B5648C14559431A41012D
:104A10003F093D2F3B7139CD374036C934653314DA
:104A200032D430A32F802E6B2D632C672B752A8EEA
:104A300029B028DC2710274B268F25D9242B248248
:104A400023E0224322AC211A218D200420801F0064
:104A50001F841E0C1E971D261DB81C4E1CE61B82B3
:104A60001B201BC11A641A0A1AB2195D190A19B956
:104A7000186A181C18D11788174017FA16B516733C
:104A8000163116F115B31576153A150015C7148FA2
:104A90001458142214EE13BA13881356132513F660
:104AA00012C71299126C1240121512EB11C1119813
:104AB00011701148112111FB10D610B1108D106921
:104AC00010461024100210E10FC00FA00F800F61DC
:104AD0000F420F230F060FE80ECB0EAF0E930E778B
:104AE0000E5C0E410E270E0D0EF30DDA0DC10DA852
:104AF0000D900D780D600D490D320D1B0D050DEF5C
:104B00000CD90CC30CAE0C990C850C700C5C0C48C9
:104B10000C350C210C0E0CFB0BE80BD60BC40BB2A6
:104B20000BA00B8E0B7D0B6B0B5A0B4A0B390B2911
:104B30000B180B080BF80AE90AD90ACA0ABB0AAC17
:104B40000A9D0A8E0A800A710A630A550A470A39C1
:104B50000A2C0A1E0A110A040AF709EA09DD09D01B
:104B600009C409B709AB099F09920987097B096F35
:104B700009630958094C09410936092B092009150F
:104B8000090A090009F508EB08E008D608CC08C2B4
:104B900008B808AE08A4089A08900887087D087429
:104BA000086B08610858084F0846083D0834082C6F
:104BB0000823081A08120809080108F807F007E88E
:104BC00007E007D807D007C807C007B807B007A88D
:104BD00007A1074175746F6C6576656C696E672017
:104BE00064697361626C6564004175746F6C6576AD
:104BF000656C696E6720656E61626C656400436F09
:104C0000756C64206E6F742061637469766174657D
:104C1000207A2D70726F6265206F666673657420EE
:104C200064756520746F20636F6F7264696E617460
:104C30006520636F6E73747261696E7473202D20CA
:104C4000726573756C7420697320696E6163637536
:104C50007261746521002C2000416374697661746F
:104C6000696E67207A2D70726F626520776F756C40
:104C700064206C65616420746F20666F7262696481
:104C800064656E20787920706F736974696F6E3A0D
:104C900020004D3334302050302053373030004D19
:104CA000333430205030205331353030005A2D50BD
:104CB000726F626520686569676874207365742027
:104CC000746F3A20002063203D20002062203D20A8
:104CD00000706C616E653A2061203D200041757462
:104CE0006F6C6576656C206D617472697820726591
:104CF000736574005761726E696E673A00207A3A84
:104D00000020793A0020783A00496E76616C696437
:104D10002064656C746120636F6F7264696E617486
:104D200065202D206D6F76652069676E6F726564F2
:104D3000004E6F206D6F766520696E2064656C741F
:104D400061207365676D656E742077697468203EB5
:104D50002031207365676D656E742E205468697309
:104D60002073686F756C64206E657665722068616B
:104D70007070656E20616E64206D6179206361756D
:104D8000736520612070726F626C656D2100696EC1
:104D900020717565756544656C74614D6F7665202D
:104DA000746F2063616C63756C61746544656C74C9
:104DB000615375625365676D656E747320726574B7
:104DC00075726E73206572726F722E0000000000A3
:104DD00000000000001C01000000000000000000B6
:104DE000F4000000000000000000001A01000000B4
:104DF000000000000000170100000000000000009B
:104E0000001C01000000000000000000F400000091
:104E10000000000000000019010000000000000078
:104E2000000017010000000000000000001C01004D
:104E30000000000000000000F4000000000000007E
:104E40000000001801000000000000000000170131
:104E5000ED4DE24DD74DCC4D194E0E4E034EF84D53
:104E6000454E3A4E2F4E244E006D6F7665546F209E
:104E70002F20717565756544656C74614D6F76653D
:104E80002072657475726E73206572726F720005A0
:104E9000CB040400504E05CB040400584E05CB044F
:104EA0000400604E7A2D70726F6265206469642020
:104EB0006E6F7420756E74726967676572206166C3
:104EC00074657220676F696E67206261636B20741E
:104ED0006F20737461727420706F736974696F6E80
:104EE0002E00207A436F72723A0020593A002058FF
:104EF0003A005A2D70726F62653A007A2D70726FA7
:104F0000626520646964206E6F7420756E747269C6
:104F100067676572206F6E20726570657469746969
:104F20007665206D6561737572656D656E74202D93
:104F3000206D6179626520796F75206E65656420EA
:104F4000746F20696E637265617365206469737440
:104F5000616E63652100007A2D70726F6265206456
:104F60006964206E6F7420756E747269676765720C
:104F7000206F6E2072657065746974697665206D46
:104F80006561737572656D656E74202D206D617934
:104F9000626520796F75206E65656420746F206985
:104FA0006E6372656173652064697374616E6365B5
:104FB00021005A2D70726F6265206661696C6564AC
:104FC000007A2D70726F626520747269676765720E
:104FD0006564206265666F726520737461727469BE
:104FE0006E672070726F62696E672E002061745A5E
:104FF0003A0043757272656E745A3A0050726F626D
:10500000696E67206861642072657475726E65648C
:10501000206572726F7273202D206175746F6C65DC
:1050200076656C696E672063616E63656C65642E7E
:10503000000000000000000000000000010000FF70
:10504000000D0E0000003FCDCC4C3D0AD7A33B6FB6
:1050500012033A6D6F766552656C617469766544CA
:10506000697374616E6365496E5374657073202F44
:1050700020717565756544656C74614D6F7665204A
:1050800072657475726E73206572726F72004E4134
:105090004E494E495459494E46CDCCCC3D0AD723B2
:1050A0003C17B7D13877CC2B329595E6241FB14FFA
:1050B0000A000020410000C84200401C4620BCBE3F
:1050C0004CCA1B0E5AAEC59D7400C102D5021124F4
:1050D0001FBECFEFD1E2DEBFCDBF00E00CBF14E0BA
:1050E000A0E0B2E0E6E0FEE902E00BBF02C00790FC
:1050F0000D92A432B107D9F72DE1A4E2B4E001C0CA
:105100001D92A33FB207E1F718E2C6E6D8E200E03D
:1051100006C021970109802FFE010F94CB45C536AB
:10512000D10780E00807A9F70F94403A0D94F14E9B
:105130000C9400002F923F924F925F926F927F9259
:105140008F929F92AF92BF92CF92DF92EF92FF9297
:105150000F931F93CF93DF93CDB7DEB7C759D10914
:105160000FB6F894DEBF0FBECDBFDC0116962D91B1
:105170003C9117972B3C310511F40C94D8398C01D4
:105180002C3C3105B0F12836B1E03B0709F448C6A4
:1051900008F0D1C02232F1E03F0711F40C94F0394D
:1051A00008F099C1213D310511F40C94963D08F4A5
:1051B000E4C2223E310511F40C945A3D08F095C525
:1051C0002C3D310511F40C94303C2D3D310511F08E
:1051D0000C94BD3DDC018D919C91119792FD02C014
:1051E0000C940F425E968D919C915F970E94D9ED31
:1051F00005C32535310511F40C94043D08F4C1C0F4
:105200002437310511F40C941E3D08F4E4C02B3909
:10521000310511F40C94BA3B08F41FC2283C310547
:1052200011F40C94743B08F07EC52A3A310511F450
:105230000C94673C2E3B310511F00C94BD3D8091E0
:10524000120383FDDBC282EA90E00E9483B060E03B
:105250000F9472010E940A670E9423F6F801808170
:10526000918192FD02C00C949C4790FD02C00C9469
:105270006447FF24F39420E030E0A901628D738D30
:10528000848D958D0F941148181614F00C94644772
:10529000D8015E966D917D918D919C9191970F941F
:1052A000504DF8012281338132FD02C00C945F47DA
:1052B000E25BFF4F20813181428153810F94F7459A
:1052C0004F2D0E94B0FA2091460230914702409142
:1052D00048025091490260914202709143028091CC
:1052E0004402909145020F94F6456B017C0120E049
:1052F00030E0A9010F941148181614F00C946C4773
:1053000020E030E040E450E4C701B6010F944A4D7C
:1053100087FD74C28CE392E00F940C0110923D095A
:105320000F94A53360937B0570937C0580937D0576
:1053300090937E0563C22231F2E03F0711F40C9492
:10534000633A08F0F9C0233C51E0350711F40C949E
:10535000D03908F4DAC1243F41E0340711F40C9449
:10536000C73908F0C0C2243C81E0380711F40C941E
:10537000383D253C314011F00C94BD3D0E94839A8C
:105380003DC22B31310511F40C94593A08F4F6C0A2
:105390002A32310511F40C94883510F40C9433350D
:1053A0002235310511F40C948C3908F041C22035B6
:1053B000310511F40C9490392135310511F00C941C
:1053C000BD3D0E9423F6269A8091B30A8F7B80937D
:1053D000B30A2E9A13C22A36310511F40C940E3CEE
:1053E00008F4AAC12F36310511F40C94DE3B08F005
:1053F00041C22B36310511F40C943C3D2D3631055C
:1054000011F00C94BD3D0E9486F8F82E8111F6C172
:105410000F94A53360937B0570937C0580937D0585
:1054200090937E058091120383FDE8C10E9423F6CC
:10543000C0902F05D0903005D8018D919C9191FF9F
:105440000AC0F801EC5AFF4F2081211104C03DE849
:10545000C32E32E0D32E92FD02C00C94154790FF6C
:105460000FC0FF24F39420E030E0A901F801628D21
:10547000738D848D958D0F94114818160CF0F12CB6
:10548000D601EC90F801668D778D80A191A10F94E3
:10549000504DD80112962D913C91139732FD02C0C8
:1054A0000C943D47F801E25BFF4F2081318142813E
:1054B00053810F94F74501E02F2D4E2D0E9429FBBB
:1054C0000F94A53360937B0570937C0580937D05D5
:1054D00090937E0593C1213481E0380711F40C9438
:1054E000A53908F080C02E32A1E03A0711F40C94DF
:1054F000C63410F40C9462392F32F1E03F0711F4F6
:105500000C94DB352034314011F00C94BD3D81E02A
:105510000F94F019F8018081918192FF6FC1868DFF
:10552000978DA0A1B1A1892B8A2B8B2B09F466C181
:1055300080E00F944C0662C12935E2E03E0711F489
:105540000C94D93A10F00C94E334243142E034073F
:1055500009F43BC710F40C94653B2B3182E038070B
:1055600011F40C94353B2835324011F00C94BD3DBC
:1055700061E088E893E10E94D75740C126313105A8
:1055800011F40C941A3F10F40C947E352831310537
:1055900011F40C94B03410F40C941F3B29313105F4
:1055A00011F40C941A3B2A31310511F00C94BD3DD5
:1055B000FC018081918192FF21C1468D578D60A1B0
:1055C00071A180911E0B882309F418C14093150B1B
:1055D0005093160B6093170B7093180B84EF9AE09F
:1055E0000E9446A50BC1243551E0350709F4E9C3F3
:1055F00010F00C94CE3D223491E0390711F40C9454
:105600000E3B2334314011F00C94BD3DD8018D91F7
:105610009C91119792FD02C00C94CB475E964D91E0
:105620005D916D917C9191971416150616061706DB
:1056300014F00C948A4793FF0CC081E092964D9130
:105640005D916D917C919597413051056105710592
:1056500009F080E00E94FB6BD1C02737310511F4BF
:105660000C94BA3410F40C943B3C2837310511F4F7
:105670000C94C63F2C38310511F00C94BD3D0E94AE
:1056800086F8F82E8111BAC00F94A53360937B057C
:1056900070937C0580937D0590937E058091120325
:1056A00083FDACC0F8018081918192FD02C00C9411
:1056B000E14790FF0EC0FF24F39420E030E0A90101
:1056C000628D738D848D958D0F94114818160CF092
:1056D000F12CD8015E966D917D918D919C91919761
:1056E0000F94504DF8012281338132FD02C00C9499
:1056F0004247E25BFF4F20813181428153810F9409
:10570000F7454F2D0E94B0FA79C0213991E0390751
:1057100011F40C94573410F40C9427402239E1E032
:105720003E0711F40C94923F223C314011F00C944E
:10573000BD3D0E94839A62C02336310511F40C945A
:105740005B3410F40C94D73F2836310511F40C94D7
:10575000463E2936310511F00C94BD3D10924603AA
:10576000FC01808191819695879596958795969570
:10577000879581700E94C4EE41C02D3C310509F42B
:105780005CC610F40C942F402E3C310511F40C949F
:10579000B73E2F3C310511F00C94BD3DFC018081DA
:1057A00083FF0CC04285538564857585409344050D
:1057B00050934505609346057093470586FF11C0D9
:1057C00020912F0530913005F80186899789A08DA9
:1057D000B18DF901838F948FA58FB68F80810E9440
:1057E00014FF409144055091450560914605709124
:1057F000470522E080E392E10F94FB0BC956DF4F8F
:105800000FB6F894DEBF0FBECDBFDF91CF911F91D1
:105810000F91FF90EF90DF90CF90BF90AF909F904F
:105820008F907F906F905F904F903F902F90089552
:105830002335310511F40C94D93B2435310511F091
:105840000C94BD3DFC018081918192FD02C00C94BD
:105850005846268D378D40A151A1A8EEB3E00F9494
:10586000D84E60931C0270931D0280931E02909389
:105870001F02C4CF2237310511F40C94E43D2337C5
:10588000310511F00C94BD3D1092460385E293E181
:105890000F94C80C8AE193E10F94820D88E093E1A4
:1058A0000F94820D8FEF92E10F94820D83EF92E1BE
:1058B0000F94820D89EE92E10F94820D88ED92E1B2
:1058C0000F94820D88EC92E10F94820D8CEB92E1A3
:1058D0000F94820D82EB92E10F94820D0E94C0EC36
:1058E0000E94839A8BCF253FA1E03A0711F40C94D4
:1058F000283D263F314011F00C94BD3D0E94D1D58A
:105900000E942CCE682F88E690E0C956DF4F68834E
:10591000C759D0400F94764EC956DF4F6881C7599A
:10592000D040681721F088E690E00F94914E80E90E
:1059300090EDA3E0B0E08093160290931702A0933D
:105940001802B093190210922305109224051092A8
:1059500025051092260580E49EE7A5E0B0E080933F
:105960001C0290931D02A0931E02B0931F0280E0C0
:1059700090E0A0EAB2E48093040290930502A09321
:105980000602B09307028093080290930902A09345
:105990000A02B0930B0280930C0290930D02A09325
:1059A0000E02B0930F0280E090E0A0E8BFE3809386
:1059B000100290931102A0931202B093130240E0E0
:1059C00050E068E473E440932C0250932D026093FE
:1059D0002E0270932F024093300250933102609355
:1059E0003202709333024093340250933502609335
:1059F00036027093370280E090E0A0E2B2E4809338
:105A0000200290932102A0932202B093230280935C
:105A1000240290932502A0932602B093270280933C
:105A2000280290932902A0932A02B0932B0200E04F
:105A300010E020EA31E400934405109345052093DB
:105A400046053093470580E090E8ABE3B5E48093EA
:105A5000230390932403A0932503B09326038093FC
:105A6000270390932803A0932903B0932A038093DC
:105A70002B0390932C03A0932D03B0932E038093BC
:105A8000130390931403A0931503B093160380930C
:105A9000170390931803A0931903B0931A038093EC
:105AA0001B0390931C03A0931D03B0931E0391E06E
:105AB00090933F02E7E3F0E0F0938C02E0938B02D7
:105AC0008FEF80935202E0E5E0935302C12CE0E2B5
:105AD000DE2EE7E9EE2EE3E4FE2EC0925402D092D1
